{
	"data-types/SimpleStorage.sol": {
		"SimpleStorage": {
			"abi": [
				{
					"inputs": [],
					"name": "currentAge",
					"outputs": [
						{
							"internalType": "uint256",
							"name": "",
							"type": "uint256"
						}
					],
					"stateMutability": "view",
					"type": "function"
				},
				{
					"inputs": [],
					"name": "currentBalance",
					"outputs": [
						{
							"internalType": "int256",
							"name": "",
							"type": "int256"
						}
					],
					"stateMutability": "view",
					"type": "function"
				},
				{
					"inputs": [],
					"name": "currentStatus",
					"outputs": [
						{
							"internalType": "enum SimpleStorage.Status",
							"name": "",
							"type": "uint8"
						}
					],
					"stateMutability": "view",
					"type": "function"
				},
				{
					"inputs": [
						{
							"internalType": "uint256",
							"name": "",
							"type": "uint256"
						}
					],
					"name": "dynamicIds",
					"outputs": [
						{
							"internalType": "uint256",
							"name": "",
							"type": "uint256"
						}
					],
					"stateMutability": "view",
					"type": "function"
				},
				{
					"inputs": [
						{
							"internalType": "uint256",
							"name": "",
							"type": "uint256"
						}
					],
					"name": "fixedScores",
					"outputs": [
						{
							"internalType": "uint256",
							"name": "",
							"type": "uint256"
						}
					],
					"stateMutability": "view",
					"type": "function"
				},
				{
					"inputs": [],
					"name": "hasFavoriteNumber",
					"outputs": [
						{
							"internalType": "bool",
							"name": "",
							"type": "bool"
						}
					],
					"stateMutability": "view",
					"type": "function"
				},
				{
					"inputs": [],
					"name": "hashValue",
					"outputs": [
						{
							"internalType": "bytes32",
							"name": "",
							"type": "bytes32"
						}
					],
					"stateMutability": "view",
					"type": "function"
				},
				{
					"inputs": [],
					"name": "myAddress",
					"outputs": [
						{
							"internalType": "address",
							"name": "",
							"type": "address"
						}
					],
					"stateMutability": "view",
					"type": "function"
				},
				{
					"inputs": [],
					"name": "myName",
					"outputs": [
						{
							"internalType": "string",
							"name": "",
							"type": "string"
						}
					],
					"stateMutability": "view",
					"type": "function"
				},
				{
					"inputs": [],
					"name": "rawData",
					"outputs": [
						{
							"internalType": "bytes",
							"name": "",
							"type": "bytes"
						}
					],
					"stateMutability": "view",
					"type": "function"
				},
				{
					"inputs": [],
					"name": "singleByte",
					"outputs": [
						{
							"internalType": "bytes1",
							"name": "",
							"type": "bytes1"
						}
					],
					"stateMutability": "view",
					"type": "function"
				},
				{
					"inputs": [],
					"name": "smallNumber",
					"outputs": [
						{
							"internalType": "uint8",
							"name": "",
							"type": "uint8"
						}
					],
					"stateMutability": "view",
					"type": "function"
				},
				{
					"inputs": [],
					"name": "temperature",
					"outputs": [
						{
							"internalType": "int8",
							"name": "",
							"type": "int8"
						}
					],
					"stateMutability": "view",
					"type": "function"
				}
			],
			"devdoc": {
				"kind": "dev",
				"methods": {},
				"version": 1
			},
			"evm": {
				"assembly": "    /* \"data-types/SimpleStorage.sol\":65:1617  contract SimpleStorage {... */\n  mstore(0x40, 0x80)\n    /* \"data-types/SimpleStorage.sol\":427:431  true */\n  0x01\n    /* \"data-types/SimpleStorage.sol\":395:431  bool public hasFavoriteNumber = true */\n  0x00\n  exp(0x0100, 0x00)\n  dup2\n  sload\n  dup2\n  0xff\n  mul\n  not\n  and\n  swap1\n  dup4\n  iszero\n  iszero\n  mul\n  or\n  swap1\n  sstore\n  pop\n    /* \"data-types/SimpleStorage.sol\":494:497  255 */\n  0xff\n    /* \"data-types/SimpleStorage.sol\":463:497  uint8   public smallNumber   = 255 */\n  0x00\n  exp(0x0100, 0x01)\n  dup2\n  sload\n  dup2\n  0xff\n  mul\n  not\n  and\n  swap1\n  dup4\n  0xff\n  and\n  mul\n  or\n  swap1\n  sstore\n  pop\n    /* \"data-types/SimpleStorage.sol\":534:536  22 */\n  0x16\n    /* \"data-types/SimpleStorage.sol\":503:536  uint256 public currentAge    = 22 */\n  0x01\n  sstore\n    /* \"data-types/SimpleStorage.sol\":598:601  -10 */\n  0xfffffffffffffffffffffffffffffffffffffffffffffffffffffffffffffff6\n    /* \"data-types/SimpleStorage.sol\":566:601  int8   public temperature     = -10 */\n  0x02\n  exp(0x0100, 0x00)\n  dup2\n  sload\n  dup2\n  0xff\n  mul\n  not\n  and\n  swap1\n  dup4\n  0x00\n  signextend\n  0xff\n  and\n  mul\n  or\n  swap1\n  sstore\n  pop\n    /* \"data-types/SimpleStorage.sol\":639:644  20000 */\n  0x4e20\n    /* \"data-types/SimpleStorage.sol\":607:644  int256 public currentBalance  = 20000 */\n  0x03\n  sstore\n    /* \"data-types/SimpleStorage.sol\":693:735  0x7eD04EF0c2dc4952d63088CE60f514089fF3383b */\n  0x7ed04ef0c2dc4952d63088ce60f514089ff3383b\n    /* \"data-types/SimpleStorage.sol\":666:735  address public myAddress = 0x7eD04EF0c2dc4952d63088CE60f514089fF3383b */\n  0x04\n  exp(0x0100, 0x00)\n  dup2\n  sload\n  dup2\n  0xffffffffffffffffffffffffffffffffffffffff\n  mul\n  not\n  and\n  swap1\n  dup4\n  0xffffffffffffffffffffffffffffffffffffffff\n  and\n  mul\n  or\n  swap1\n  sstore\n  pop\n    /* \"data-types/SimpleStorage.sol\":794:798  0xFF */\n  0xff\n    /* \"data-types/SimpleStorage.sol\":766:798  bytes1  public singleByte = 0xFF */\n  0xf8\n  shl\n  0x04\n  exp(0x0100, 0x14)\n  dup2\n  sload\n  dup2\n  0xff\n  mul\n  not\n  and\n  swap1\n  dup4\n  0xf8\n  shr\n  mul\n  or\n  swap1\n  sstore\n  pop\n    /* \"data-types/SimpleStorage.sol\":804:849  bytes32 public hashValue  = \"thisIsRajMishra\" */\n  sstore(0x05, 0x74686973497352616a4d69736872610000000000000000000000000000000000)\n    /* \"data-types/SimpleStorage.sol\":1281:1316  string public myName = \"Raj Mishra\" */\n  mload(0x40)\n  dup1\n  0x40\n  add\n  0x40\n  mstore\n  dup1\n  0x0a\n  dup2\n  mstore\n  0x20\n  add\n  0x52616a204d697368726100000000000000000000000000000000000000000000\n  dup2\n  mstore\n  pop\n  0x07\n  swap1\n  dup2\n  tag_1\n  swap2\n  swap1\n  tag_2\n  jump\t// in\ntag_1:\n  pop\n    /* \"data-types/SimpleStorage.sol\":1344:1374  bytes public rawData = \"hello\" */\n  mload(0x40)\n  dup1\n  0x40\n  add\n  0x40\n  mstore\n  dup1\n  0x05\n  dup2\n  mstore\n  0x20\n  add\n  0x68656c6c6f000000000000000000000000000000000000000000000000000000\n  dup2\n  mstore\n  pop\n  0x08\n  swap1\n  dup2\n  tag_3\n  swap2\n  swap1\n  tag_4\n  jump\t// in\ntag_3:\n  pop\n    /* \"data-types/SimpleStorage.sol\":1405:1449  uint256[3] public fixedScores = [10, 20, 30] */\n  mload(0x40)\n  dup1\n  0x60\n  add\n  0x40\n  mstore\n  dup1\n    /* \"data-types/SimpleStorage.sol\":1438:1440  10 */\n  0x0a\n    /* \"data-types/SimpleStorage.sol\":1405:1449  uint256[3] public fixedScores = [10, 20, 30] */\n  0xff\n  and\n  dup2\n  mstore\n  0x20\n  add\n    /* \"data-types/SimpleStorage.sol\":1442:1444  20 */\n  0x14\n    /* \"data-types/SimpleStorage.sol\":1405:1449  uint256[3] public fixedScores = [10, 20, 30] */\n  0xff\n  and\n  dup2\n  mstore\n  0x20\n  add\n    /* \"data-types/SimpleStorage.sol\":1446:1448  30 */\n  0x1e\n    /* \"data-types/SimpleStorage.sol\":1405:1449  uint256[3] public fixedScores = [10, 20, 30] */\n  0xff\n  and\n  dup2\n  mstore\n  pop\n  0x09\n  swap1\n  dup2\n  tag_5\n  swap2\n  swap1\n  tag_6\n  jump\t// in\ntag_5:\n  pop\n    /* \"data-types/SimpleStorage.sol\":65:1617  contract SimpleStorage {... */\n  callvalue\n  dup1\n  iszero\n  tag_7\n  jumpi\n  revert(0x00, 0x00)\ntag_7:\n  pop\n  jump(tag_8)\n    /* \"#utility.yul\":7:106   */\ntag_9:\n    /* \"#utility.yul\":59:65   */\n  0x00\n    /* \"#utility.yul\":93:98   */\n  dup2\n    /* \"#utility.yul\":87:99   */\n  mload\n    /* \"#utility.yul\":77:99   */\n  swap1\n  pop\n    /* \"#utility.yul\":7:106   */\n  swap2\n  swap1\n  pop\n  jump\t// out\n    /* \"#utility.yul\":112:292   */\ntag_10:\n    /* \"#utility.yul\":160:237   */\n  0x4e487b7100000000000000000000000000000000000000000000000000000000\n    /* \"#utility.yul\":157:158   */\n  0x00\n    /* \"#utility.yul\":150:238   */\n  mstore\n    /* \"#utility.yul\":257:261   */\n  0x41\n    /* \"#utility.yul\":254:255   */\n  0x04\n    /* \"#utility.yul\":247:262   */\n  mstore\n    /* \"#utility.yul\":281:285   */\n  0x24\n    /* \"#utility.yul\":278:279   */\n  0x00\n    /* \"#utility.yul\":271:286   */\n  revert\n    /* \"#utility.yul\":298:478   */\ntag_11:\n    /* \"#utility.yul\":346:423   */\n  0x4e487b7100000000000000000000000000000000000000000000000000000000\n    /* \"#utility.yul\":343:344   */\n  0x00\n    /* \"#utility.yul\":336:424   */\n  mstore\n    /* \"#utility.yul\":443:447   */\n  0x22\n    /* \"#utility.yul\":440:441   */\n  0x04\n    /* \"#utility.yul\":433:448   */\n  mstore\n    /* \"#utility.yul\":467:471   */\n  0x24\n    /* \"#utility.yul\":464:465   */\n  0x00\n    /* \"#utility.yul\":457:472   */\n  revert\n    /* \"#utility.yul\":484:804   */\ntag_12:\n    /* \"#utility.yul\":528:534   */\n  0x00\n    /* \"#utility.yul\":565:566   */\n  0x02\n    /* \"#utility.yul\":559:563   */\n  dup3\n    /* \"#utility.yul\":555:567   */\n  div\n    /* \"#utility.yul\":545:567   */\n  swap1\n  pop\n    /* \"#utility.yul\":612:613   */\n  0x01\n    /* \"#utility.yul\":606:610   */\n  dup3\n    /* \"#utility.yul\":602:614   */\n  and\n    /* \"#utility.yul\":633:651   */\n  dup1\n    /* \"#utility.yul\":623:704   */\n  tag_52\n  jumpi\n    /* \"#utility.yul\":689:693   */\n  0x7f\n    /* \"#utility.yul\":681:687   */\n  dup3\n    /* \"#utility.yul\":677:694   */\n  and\n    /* \"#utility.yul\":667:694   */\n  swap2\n  pop\n    /* \"#utility.yul\":623:704   */\ntag_52:\n    /* \"#utility.yul\":751:753   */\n  0x20\n    /* \"#utility.yul\":743:749   */\n  dup3\n    /* \"#utility.yul\":740:754   */\n  lt\n    /* \"#utility.yul\":720:738   */\n  dup2\n    /* \"#utility.yul\":717:755   */\n  sub\n    /* \"#utility.yul\":714:798   */\n  tag_53\n  jumpi\n    /* \"#utility.yul\":770:788   */\n  tag_54\n  tag_11\n  jump\t// in\ntag_54:\n    /* \"#utility.yul\":714:798   */\ntag_53:\n    /* \"#utility.yul\":535:804   */\n  pop\n    /* \"#utility.yul\":484:804   */\n  swap2\n  swap1\n  pop\n  jump\t// out\n    /* \"#utility.yul\":810:951   */\ntag_13:\n    /* \"#utility.yul\":859:863   */\n  0x00\n    /* \"#utility.yul\":882:885   */\n  dup2\n    /* \"#utility.yul\":874:885   */\n  swap1\n  pop\n    /* \"#utility.yul\":905:908   */\n  dup2\n    /* \"#utility.yul\":902:903   */\n  0x00\n    /* \"#utility.yul\":895:909   */\n  mstore\n    /* \"#utility.yul\":939:943   */\n  0x20\n    /* \"#utility.yul\":936:937   */\n  0x00\n    /* \"#utility.yul\":926:944   */\n  keccak256\n    /* \"#utility.yul\":918:944   */\n  swap1\n  pop\n    /* \"#utility.yul\":810:951   */\n  swap2\n  swap1\n  pop\n  jump\t// out\n    /* \"#utility.yul\":957:1050   */\ntag_14:\n    /* \"#utility.yul\":994:1000   */\n  0x00\n    /* \"#utility.yul\":1041:1043   */\n  0x20\n    /* \"#utility.yul\":1036:1038   */\n  0x1f\n    /* \"#utility.yul\":1029:1034   */\n  dup4\n    /* \"#utility.yul\":1025:1039   */\n  add\n    /* \"#utility.yul\":1021:1044   */\n  div\n    /* \"#utility.yul\":1011:1044   */\n  swap1\n  pop\n    /* \"#utility.yul\":957:1050   */\n  swap2\n  swap1\n  pop\n  jump\t// out\n    /* \"#utility.yul\":1056:1163   */\ntag_15:\n    /* \"#utility.yul\":1100:1108   */\n  0x00\n    /* \"#utility.yul\":1150:1155   */\n  dup3\n    /* \"#utility.yul\":1144:1148   */\n  dup3\n    /* \"#utility.yul\":1140:1156   */\n  shl\n    /* \"#utility.yul\":1119:1156   */\n  swap1\n  pop\n    /* \"#utility.yul\":1056:1163   */\n  swap3\n  swap2\n  pop\n  pop\n  jump\t// out\n    /* \"#utility.yul\":1169:1562   */\ntag_16:\n    /* \"#utility.yul\":1238:1244   */\n  0x00\n    /* \"#utility.yul\":1288:1289   */\n  0x08\n    /* \"#utility.yul\":1276:1286   */\n  dup4\n    /* \"#utility.yul\":1272:1290   */\n  mul\n    /* \"#utility.yul\":1311:1408   */\n  tag_59\n    /* \"#utility.yul\":1341:1407   */\n  0xffffffffffffffffffffffffffffffffffffffffffffffffffffffffffffffff\n    /* \"#utility.yul\":1330:1339   */\n  dup3\n    /* \"#utility.yul\":1311:1408   */\n  tag_15\n  jump\t// in\ntag_59:\n    /* \"#utility.yul\":1429:1468   */\n  tag_60\n    /* \"#utility.yul\":1459:1467   */\n  dup7\n    /* \"#utility.yul\":1448:1457   */\n  dup4\n    /* \"#utility.yul\":1429:1468   */\n  tag_15\n  jump\t// in\ntag_60:\n    /* \"#utility.yul\":1417:1468   */\n  swap6\n  pop\n    /* \"#utility.yul\":1501:1505   */\n  dup1\n    /* \"#utility.yul\":1497:1506   */\n  not\n    /* \"#utility.yul\":1490:1495   */\n  dup5\n    /* \"#utility.yul\":1486:1507   */\n  and\n    /* \"#utility.yul\":1477:1507   */\n  swap4\n  pop\n    /* \"#utility.yul\":1550:1554   */\n  dup1\n    /* \"#utility.yul\":1540:1548   */\n  dup7\n    /* \"#utility.yul\":1536:1555   */\n  and\n    /* \"#utility.yul\":1529:1534   */\n  dup5\n    /* \"#utility.yul\":1526:1556   */\n  or\n    /* \"#utility.yul\":1516:1556   */\n  swap3\n  pop\n    /* \"#utility.yul\":1245:1562   */\n  pop\n  pop\n    /* \"#utility.yul\":1169:1562   */\n  swap4\n  swap3\n  pop\n  pop\n  pop\n  jump\t// out\n    /* \"#utility.yul\":1568:1645   */\ntag_17:\n    /* \"#utility.yul\":1605:1612   */\n  0x00\n    /* \"#utility.yul\":1634:1639   */\n  dup2\n    /* \"#utility.yul\":1623:1639   */\n  swap1\n  pop\n    /* \"#utility.yul\":1568:1645   */\n  swap2\n  swap1\n  pop\n  jump\t// out\n    /* \"#utility.yul\":1651:1711   */\ntag_18:\n    /* \"#utility.yul\":1679:1682   */\n  0x00\n    /* \"#utility.yul\":1700:1705   */\n  dup2\n    /* \"#utility.yul\":1693:1705   */\n  swap1\n  pop\n    /* \"#utility.yul\":1651:1711   */\n  swap2\n  swap1\n  pop\n  jump\t// out\n    /* \"#utility.yul\":1717:1859   */\ntag_19:\n    /* \"#utility.yul\":1767:1776   */\n  0x00\n    /* \"#utility.yul\":1800:1853   */\n  tag_64\n    /* \"#utility.yul\":1818:1852   */\n  tag_65\n    /* \"#utility.yul\":1827:1851   */\n  tag_66\n    /* \"#utility.yul\":1845:1850   */\n  dup5\n    /* \"#utility.yul\":1827:1851   */\n  tag_17\n  jump\t// in\ntag_66:\n    /* \"#utility.yul\":1818:1852   */\n  tag_18\n  jump\t// in\ntag_65:\n    /* \"#utility.yul\":1800:1853   */\n  tag_17\n  jump\t// in\ntag_64:\n    /* \"#utility.yul\":1787:1853   */\n  swap1\n  pop\n    /* \"#utility.yul\":1717:1859   */\n  swap2\n  swap1\n  pop\n  jump\t// out\n    /* \"#utility.yul\":1865:1940   */\ntag_20:\n    /* \"#utility.yul\":1908:1911   */\n  0x00\n    /* \"#utility.yul\":1929:1934   */\n  dup2\n    /* \"#utility.yul\":1922:1934   */\n  swap1\n  pop\n    /* \"#utility.yul\":1865:1940   */\n  swap2\n  swap1\n  pop\n  jump\t// out\n    /* \"#utility.yul\":1946:2215   */\ntag_21:\n    /* \"#utility.yul\":2056:2095   */\n  tag_69\n    /* \"#utility.yul\":2087:2094   */\n  dup4\n    /* \"#utility.yul\":2056:2095   */\n  tag_19\n  jump\t// in\ntag_69:\n    /* \"#utility.yul\":2117:2208   */\n  tag_70\n    /* \"#utility.yul\":2166:2207   */\n  tag_71\n    /* \"#utility.yul\":2190:2206   */\n  dup3\n    /* \"#utility.yul\":2166:2207   */\n  tag_20\n  jump\t// in\ntag_71:\n    /* \"#utility.yul\":2158:2164   */\n  dup5\n    /* \"#utility.yul\":2151:2155   */\n  dup5\n    /* \"#utility.yul\":2145:2156   */\n  sload\n    /* \"#utility.yul\":2117:2208   */\n  tag_16\n  jump\t// in\ntag_70:\n    /* \"#utility.yul\":2111:2115   */\n  dup3\n    /* \"#utility.yul\":2104:2209   */\n  sstore\n    /* \"#utility.yul\":2022:2215   */\n  pop\n    /* \"#utility.yul\":1946:2215   */\n  pop\n  pop\n  pop\n  jump\t// out\n    /* \"#utility.yul\":2221:2294   */\ntag_22:\n    /* \"#utility.yul\":2266:2269   */\n  0x00\n    /* \"#utility.yul\":2287:2288   */\n  0x00\n    /* \"#utility.yul\":2280:2288   */\n  swap1\n  pop\n    /* \"#utility.yul\":2221:2294   */\n  swap1\n  jump\t// out\n    /* \"#utility.yul\":2300:2489   */\ntag_23:\n    /* \"#utility.yul\":2377:2409   */\n  tag_74\n  tag_22\n  jump\t// in\ntag_74:\n    /* \"#utility.yul\":2418:2483   */\n  tag_75\n    /* \"#utility.yul\":2476:2482   */\n  dup2\n    /* \"#utility.yul\":2468:2474   */\n  dup5\n    /* \"#utility.yul\":2462:2466   */\n  dup5\n    /* \"#utility.yul\":2418:2483   */\n  tag_21\n  jump\t// in\ntag_75:\n    /* \"#utility.yul\":2353:2489   */\n  pop\n    /* \"#utility.yul\":2300:2489   */\n  pop\n  pop\n  jump\t// out\n    /* \"#utility.yul\":2495:2709   */\ntag_24:\n    /* \"#utility.yul\":2580:2581   */\n  0x00\n    /* \"#utility.yul\":2565:2703   */\ntag_77:\n    /* \"#utility.yul\":2590:2599   */\n  dup3\n    /* \"#utility.yul\":2587:2588   */\n  dup2\n    /* \"#utility.yul\":2584:2600   */\n  lt\n    /* \"#utility.yul\":2565:2703   */\n  iszero\n  tag_79\n  jumpi\n    /* \"#utility.yul\":2642:2693   */\n  tag_80\n    /* \"#utility.yul\":2691:2692   */\n  0x00\n    /* \"#utility.yul\":2687:2688   */\n  dup3\n    /* \"#utility.yul\":2676:2685   */\n  dup5\n    /* \"#utility.yul\":2672:2689   */\n  add\n    /* \"#utility.yul\":2642:2693   */\n  tag_23\n  jump\t// in\ntag_80:\n    /* \"#utility.yul\":2615:2616   */\n  0x01\n    /* \"#utility.yul\":2612:2613   */\n  dup2\n    /* \"#utility.yul\":2608:2617   */\n  add\n    /* \"#utility.yul\":2603:2617   */\n  swap1\n  pop\n    /* \"#utility.yul\":2565:2703   */\n  jump(tag_77)\ntag_79:\n    /* \"#utility.yul\":2569:2583   */\n  pop\n    /* \"#utility.yul\":2495:2709   */\n  pop\n  pop\n  jump\t// out\n    /* \"#utility.yul\":2715:3461   */\ntag_25:\n    /* \"#utility.yul\":2816:2818   */\n  0x1f\n    /* \"#utility.yul\":2811:2814   */\n  dup3\n    /* \"#utility.yul\":2808:2819   */\n  gt\n    /* \"#utility.yul\":2805:3454   */\n  iszero\n  tag_82\n  jumpi\n    /* \"#utility.yul\":2845:2855   */\n  dup3\n    /* \"#utility.yul\":2840:2843   */\n  dup3\n    /* \"#utility.yul\":2837:2856   */\n  gt\n    /* \"#utility.yul\":2834:3444   */\n  iszero\n  tag_83\n  jumpi\n    /* \"#utility.yul\":2891:2929   */\n  tag_84\n    /* \"#utility.yul\":2923:2928   */\n  dup2\n    /* \"#utility.yul\":2891:2929   */\n  tag_13\n  jump\t// in\ntag_84:\n    /* \"#utility.yul\":2966:2988   */\n  tag_85\n    /* \"#utility.yul\":2984:2987   */\n  dup4\n    /* \"#utility.yul\":2966:2988   */\n  tag_14\n  jump\t// in\ntag_85:\n    /* \"#utility.yul\":3025:3054   */\n  tag_86\n    /* \"#utility.yul\":3043:3053   */\n  dup6\n    /* \"#utility.yul\":3025:3054   */\n  tag_14\n  jump\t// in\ntag_86:\n    /* \"#utility.yul\":3215:3217   */\n  0x20\n    /* \"#utility.yul\":3203:3213   */\n  dup7\n    /* \"#utility.yul\":3200:3218   */\n  lt\n    /* \"#utility.yul\":3197:3276   */\n  iszero\n  tag_87\n  jumpi\n    /* \"#utility.yul\":3257:3258   */\n  0x00\n    /* \"#utility.yul\":3241:3258   */\n  swap1\n  pop\n    /* \"#utility.yul\":3197:3276   */\ntag_87:\n    /* \"#utility.yul\":3326:3338   */\n  dup1\n    /* \"#utility.yul\":3316:3324   */\n  dup4\n    /* \"#utility.yul\":3312:3339   */\n  add\n    /* \"#utility.yul\":3356:3430   */\n  tag_88\n    /* \"#utility.yul\":3416:3428   */\n  dup3\n    /* \"#utility.yul\":3402:3414   */\n  dup5\n    /* \"#utility.yul\":3398:3429   */\n  sub\n    /* \"#utility.yul\":3385:3396   */\n  dup3\n    /* \"#utility.yul\":3356:3430   */\n  tag_24\n  jump\t// in\ntag_88:\n    /* \"#utility.yul\":2857:3444   */\n  pop\n  pop\n  pop\n  pop\n    /* \"#utility.yul\":2834:3444   */\ntag_83:\n    /* \"#utility.yul\":2805:3454   */\ntag_82:\n    /* \"#utility.yul\":2715:3461   */\n  pop\n  pop\n  pop\n  jump\t// out\n    /* \"#utility.yul\":3467:3584   */\ntag_26:\n    /* \"#utility.yul\":3521:3529   */\n  0x00\n    /* \"#utility.yul\":3571:3576   */\n  dup3\n    /* \"#utility.yul\":3565:3569   */\n  dup3\n    /* \"#utility.yul\":3561:3577   */\n  shr\n    /* \"#utility.yul\":3540:3577   */\n  swap1\n  pop\n    /* \"#utility.yul\":3467:3584   */\n  swap3\n  swap2\n  pop\n  pop\n  jump\t// out\n    /* \"#utility.yul\":3590:3759   */\ntag_27:\n    /* \"#utility.yul\":3634:3640   */\n  0x00\n    /* \"#utility.yul\":3667:3718   */\n  tag_91\n    /* \"#utility.yul\":3715:3716   */\n  0x00\n    /* \"#utility.yul\":3711:3717   */\n  not\n    /* \"#utility.yul\":3703:3708   */\n  dup5\n    /* \"#utility.yul\":3700:3701   */\n  0x08\n    /* \"#utility.yul\":3696:3709   */\n  mul\n    /* \"#utility.yul\":3667:3718   */\n  tag_26\n  jump\t// in\ntag_91:\n    /* \"#utility.yul\":3663:3719   */\n  not\n    /* \"#utility.yul\":3748:3752   */\n  dup1\n    /* \"#utility.yul\":3742:3746   */\n  dup4\n    /* \"#utility.yul\":3738:3753   */\n  and\n    /* \"#utility.yul\":3728:3753   */\n  swap2\n  pop\n    /* \"#utility.yul\":3641:3759   */\n  pop\n    /* \"#utility.yul\":3590:3759   */\n  swap3\n  swap2\n  pop\n  pop\n  jump\t// out\n    /* \"#utility.yul\":3764:4059   */\ntag_28:\n    /* \"#utility.yul\":3840:3844   */\n  0x00\n    /* \"#utility.yul\":3986:4015   */\n  tag_93\n    /* \"#utility.yul\":4011:4014   */\n  dup4\n    /* \"#utility.yul\":4005:4009   */\n  dup4\n    /* \"#utility.yul\":3986:4015   */\n  tag_27\n  jump\t// in\ntag_93:\n    /* \"#utility.yul\":3978:4015   */\n  swap2\n  pop\n    /* \"#utility.yul\":4048:4051   */\n  dup3\n    /* \"#utility.yul\":4045:4046   */\n  0x02\n    /* \"#utility.yul\":4041:4052   */\n  mul\n    /* \"#utility.yul\":4035:4039   */\n  dup3\n    /* \"#utility.yul\":4032:4053   */\n  or\n    /* \"#utility.yul\":4024:4053   */\n  swap1\n  pop\n    /* \"#utility.yul\":3764:4059   */\n  swap3\n  swap2\n  pop\n  pop\n  jump\t// out\n    /* \"#utility.yul\":4064:5459   */\ntag_2:\n    /* \"#utility.yul\":4181:4218   */\n  tag_95\n    /* \"#utility.yul\":4214:4217   */\n  dup3\n    /* \"#utility.yul\":4181:4218   */\n  tag_9\n  jump\t// in\ntag_95:\n    /* \"#utility.yul\":4283:4301   */\n  0xffffffffffffffff\n    /* \"#utility.yul\":4275:4281   */\n  dup2\n    /* \"#utility.yul\":4272:4302   */\n  gt\n    /* \"#utility.yul\":4269:4325   */\n  iszero\n  tag_96\n  jumpi\n    /* \"#utility.yul\":4305:4323   */\n  tag_97\n  tag_10\n  jump\t// in\ntag_97:\n    /* \"#utility.yul\":4269:4325   */\ntag_96:\n    /* \"#utility.yul\":4349:4387   */\n  tag_98\n    /* \"#utility.yul\":4381:4385   */\n  dup3\n    /* \"#utility.yul\":4375:4386   */\n  sload\n    /* \"#utility.yul\":4349:4387   */\n  tag_12\n  jump\t// in\ntag_98:\n    /* \"#utility.yul\":4434:4501   */\n  tag_99\n    /* \"#utility.yul\":4494:4500   */\n  dup3\n    /* \"#utility.yul\":4486:4492   */\n  dup3\n    /* \"#utility.yul\":4480:4484   */\n  dup6\n    /* \"#utility.yul\":4434:4501   */\n  tag_25\n  jump\t// in\ntag_99:\n    /* \"#utility.yul\":4528:4529   */\n  0x00\n    /* \"#utility.yul\":4552:4556   */\n  0x20\n    /* \"#utility.yul\":4539:4556   */\n  swap1\n  pop\n    /* \"#utility.yul\":4584:4586   */\n  0x1f\n    /* \"#utility.yul\":4576:4582   */\n  dup4\n    /* \"#utility.yul\":4573:4587   */\n  gt\n    /* \"#utility.yul\":4601:4602   */\n  0x01\n    /* \"#utility.yul\":4596:5214   */\n  dup2\n  eq\n  tag_101\n  jumpi\n    /* \"#utility.yul\":5258:5259   */\n  0x00\n    /* \"#utility.yul\":5275:5281   */\n  dup5\n    /* \"#utility.yul\":5272:5349   */\n  iszero\n  tag_102\n  jumpi\n    /* \"#utility.yul\":5324:5333   */\n  dup3\n    /* \"#utility.yul\":5319:5322   */\n  dup8\n    /* \"#utility.yul\":5315:5334   */\n  add\n    /* \"#utility.yul\":5309:5335   */\n  mload\n    /* \"#utility.yul\":5300:5335   */\n  swap1\n  pop\n    /* \"#utility.yul\":5272:5349   */\ntag_102:\n    /* \"#utility.yul\":5375:5442   */\n  tag_103\n    /* \"#utility.yul\":5435:5441   */\n  dup6\n    /* \"#utility.yul\":5428:5433   */\n  dup3\n    /* \"#utility.yul\":5375:5442   */\n  tag_28\n  jump\t// in\ntag_103:\n    /* \"#utility.yul\":5369:5373   */\n  dup7\n    /* \"#utility.yul\":5362:5443   */\n  sstore\n    /* \"#utility.yul\":5231:5453   */\n  pop\n    /* \"#utility.yul\":4566:5453   */\n  jump(tag_100)\n    /* \"#utility.yul\":4596:5214   */\ntag_101:\n    /* \"#utility.yul\":4648:4652   */\n  0x1f\n    /* \"#utility.yul\":4644:4653   */\n  not\n    /* \"#utility.yul\":4636:4642   */\n  dup5\n    /* \"#utility.yul\":4632:4654   */\n  and\n    /* \"#utility.yul\":4682:4719   */\n  tag_104\n    /* \"#utility.yul\":4714:4718   */\n  dup7\n    /* \"#utility.yul\":4682:4719   */\n  tag_13\n  jump\t// in\ntag_104:\n    /* \"#utility.yul\":4741:4742   */\n  0x00\n    /* \"#utility.yul\":4755:4963   */\ntag_105:\n    /* \"#utility.yul\":4769:4776   */\n  dup3\n    /* \"#utility.yul\":4766:4767   */\n  dup2\n    /* \"#utility.yul\":4763:4777   */\n  lt\n    /* \"#utility.yul\":4755:4963   */\n  iszero\n  tag_107\n  jumpi\n    /* \"#utility.yul\":4848:4857   */\n  dup5\n    /* \"#utility.yul\":4843:4846   */\n  dup10\n    /* \"#utility.yul\":4839:4858   */\n  add\n    /* \"#utility.yul\":4833:4859   */\n  mload\n    /* \"#utility.yul\":4825:4831   */\n  dup3\n    /* \"#utility.yul\":4818:4860   */\n  sstore\n    /* \"#utility.yul\":4899:4900   */\n  0x01\n    /* \"#utility.yul\":4891:4897   */\n  dup3\n    /* \"#utility.yul\":4887:4901   */\n  add\n    /* \"#utility.yul\":4877:4901   */\n  swap2\n  pop\n    /* \"#utility.yul\":4946:4948   */\n  0x20\n    /* \"#utility.yul\":4935:4944   */\n  dup6\n    /* \"#utility.yul\":4931:4949   */\n  add\n    /* \"#utility.yul\":4918:4949   */\n  swap5\n  pop\n    /* \"#utility.yul\":4792:4796   */\n  0x20\n    /* \"#utility.yul\":4789:4790   */\n  dup2\n    /* \"#utility.yul\":4785:4797   */\n  add\n    /* \"#utility.yul\":4780:4797   */\n  swap1\n  pop\n    /* \"#utility.yul\":4755:4963   */\n  jump(tag_105)\ntag_107:\n    /* \"#utility.yul\":4991:4997   */\n  dup7\n    /* \"#utility.yul\":4982:4989   */\n  dup4\n    /* \"#utility.yul\":4979:4998   */\n  lt\n    /* \"#utility.yul\":4976:5155   */\n  iszero\n  tag_108\n  jumpi\n    /* \"#utility.yul\":5049:5058   */\n  dup5\n    /* \"#utility.yul\":5044:5047   */\n  dup10\n    /* \"#utility.yul\":5040:5059   */\n  add\n    /* \"#utility.yul\":5034:5060   */\n  mload\n    /* \"#utility.yul\":5092:5140   */\n  tag_109\n    /* \"#utility.yul\":5134:5138   */\n  0x1f\n    /* \"#utility.yul\":5126:5132   */\n  dup10\n    /* \"#utility.yul\":5122:5139   */\n  and\n    /* \"#utility.yul\":5111:5120   */\n  dup3\n    /* \"#utility.yul\":5092:5140   */\n  tag_27\n  jump\t// in\ntag_109:\n    /* \"#utility.yul\":5084:5090   */\n  dup4\n    /* \"#utility.yul\":5077:5141   */\n  sstore\n    /* \"#utility.yul\":4999:5155   */\n  pop\n    /* \"#utility.yul\":4976:5155   */\ntag_108:\n    /* \"#utility.yul\":5201:5202   */\n  0x01\n    /* \"#utility.yul\":5197:5198   */\n  0x02\n    /* \"#utility.yul\":5189:5195   */\n  dup9\n    /* \"#utility.yul\":5185:5199   */\n  mul\n    /* \"#utility.yul\":5181:5203   */\n  add\n    /* \"#utility.yul\":5175:5179   */\n  dup9\n    /* \"#utility.yul\":5168:5204   */\n  sstore\n    /* \"#utility.yul\":4603:5214   */\n  pop\n  pop\n  pop\n    /* \"#utility.yul\":4566:5453   */\ntag_100:\n  pop\n    /* \"#utility.yul\":4156:5459   */\n  pop\n  pop\n  pop\n    /* \"#utility.yul\":4064:5459   */\n  pop\n  pop\n  jump\t// out\n    /* \"#utility.yul\":5465:5605   */\ntag_29:\n    /* \"#utility.yul\":5513:5517   */\n  0x00\n    /* \"#utility.yul\":5536:5539   */\n  dup2\n    /* \"#utility.yul\":5528:5539   */\n  swap1\n  pop\n    /* \"#utility.yul\":5559:5562   */\n  dup2\n    /* \"#utility.yul\":5556:5557   */\n  0x00\n    /* \"#utility.yul\":5549:5563   */\n  mstore\n    /* \"#utility.yul\":5593:5597   */\n  0x20\n    /* \"#utility.yul\":5590:5591   */\n  0x00\n    /* \"#utility.yul\":5580:5598   */\n  keccak256\n    /* \"#utility.yul\":5572:5598   */\n  swap1\n  pop\n    /* \"#utility.yul\":5465:5605   */\n  swap2\n  swap1\n  pop\n  jump\t// out\n    /* \"#utility.yul\":5611:6355   */\ntag_30:\n    /* \"#utility.yul\":5711:5713   */\n  0x1f\n    /* \"#utility.yul\":5706:5709   */\n  dup3\n    /* \"#utility.yul\":5703:5714   */\n  gt\n    /* \"#utility.yul\":5700:6348   */\n  iszero\n  tag_112\n  jumpi\n    /* \"#utility.yul\":5740:5750   */\n  dup3\n    /* \"#utility.yul\":5735:5738   */\n  dup3\n    /* \"#utility.yul\":5732:5751   */\n  gt\n    /* \"#utility.yul\":5729:6338   */\n  iszero\n  tag_113\n  jumpi\n    /* \"#utility.yul\":5786:5823   */\n  tag_114\n    /* \"#utility.yul\":5817:5822   */\n  dup2\n    /* \"#utility.yul\":5786:5823   */\n  tag_29\n  jump\t// in\ntag_114:\n    /* \"#utility.yul\":5860:5882   */\n  tag_115\n    /* \"#utility.yul\":5878:5881   */\n  dup4\n    /* \"#utility.yul\":5860:5882   */\n  tag_14\n  jump\t// in\ntag_115:\n    /* \"#utility.yul\":5919:5948   */\n  tag_116\n    /* \"#utility.yul\":5937:5947   */\n  dup6\n    /* \"#utility.yul\":5919:5948   */\n  tag_14\n  jump\t// in\ntag_116:\n    /* \"#utility.yul\":6109:6111   */\n  0x20\n    /* \"#utility.yul\":6097:6107   */\n  dup7\n    /* \"#utility.yul\":6094:6112   */\n  lt\n    /* \"#utility.yul\":6091:6170   */\n  iszero\n  tag_117\n  jumpi\n    /* \"#utility.yul\":6151:6152   */\n  0x00\n    /* \"#utility.yul\":6135:6152   */\n  swap1\n  pop\n    /* \"#utility.yul\":6091:6170   */\ntag_117:\n    /* \"#utility.yul\":6220:6232   */\n  dup1\n    /* \"#utility.yul\":6210:6218   */\n  dup4\n    /* \"#utility.yul\":6206:6233   */\n  add\n    /* \"#utility.yul\":6250:6324   */\n  tag_118\n    /* \"#utility.yul\":6310:6322   */\n  dup3\n    /* \"#utility.yul\":6296:6308   */\n  dup5\n    /* \"#utility.yul\":6292:6323   */\n  sub\n    /* \"#utility.yul\":6279:6290   */\n  dup3\n    /* \"#utility.yul\":6250:6324   */\n  tag_24\n  jump\t// in\ntag_118:\n    /* \"#utility.yul\":5752:6338   */\n  pop\n  pop\n  pop\n  pop\n    /* \"#utility.yul\":5729:6338   */\ntag_113:\n    /* \"#utility.yul\":5700:6348   */\ntag_112:\n    /* \"#utility.yul\":5611:6355   */\n  pop\n  pop\n  pop\n  jump\t// out\n    /* \"#utility.yul\":6361:7753   */\ntag_4:\n    /* \"#utility.yul\":6477:6514   */\n  tag_120\n    /* \"#utility.yul\":6510:6513   */\n  dup3\n    /* \"#utility.yul\":6477:6514   */\n  tag_9\n  jump\t// in\ntag_120:\n    /* \"#utility.yul\":6579:6597   */\n  0xffffffffffffffff\n    /* \"#utility.yul\":6571:6577   */\n  dup2\n    /* \"#utility.yul\":6568:6598   */\n  gt\n    /* \"#utility.yul\":6565:6621   */\n  iszero\n  tag_121\n  jumpi\n    /* \"#utility.yul\":6601:6619   */\n  tag_122\n  tag_10\n  jump\t// in\ntag_122:\n    /* \"#utility.yul\":6565:6621   */\ntag_121:\n    /* \"#utility.yul\":6645:6683   */\n  tag_123\n    /* \"#utility.yul\":6677:6681   */\n  dup3\n    /* \"#utility.yul\":6671:6682   */\n  sload\n    /* \"#utility.yul\":6645:6683   */\n  tag_12\n  jump\t// in\ntag_123:\n    /* \"#utility.yul\":6730:6796   */\n  tag_124\n    /* \"#utility.yul\":6789:6795   */\n  dup3\n    /* \"#utility.yul\":6781:6787   */\n  dup3\n    /* \"#utility.yul\":6775:6779   */\n  dup6\n    /* \"#utility.yul\":6730:6796   */\n  tag_30\n  jump\t// in\ntag_124:\n    /* \"#utility.yul\":6823:6824   */\n  0x00\n    /* \"#utility.yul\":6847:6851   */\n  0x20\n    /* \"#utility.yul\":6834:6851   */\n  swap1\n  pop\n    /* \"#utility.yul\":6879:6881   */\n  0x1f\n    /* \"#utility.yul\":6871:6877   */\n  dup4\n    /* \"#utility.yul\":6868:6882   */\n  gt\n    /* \"#utility.yul\":6896:6897   */\n  0x01\n    /* \"#utility.yul\":6891:7508   */\n  dup2\n  eq\n  tag_126\n  jumpi\n    /* \"#utility.yul\":7552:7553   */\n  0x00\n    /* \"#utility.yul\":7569:7575   */\n  dup5\n    /* \"#utility.yul\":7566:7643   */\n  iszero\n  tag_127\n  jumpi\n    /* \"#utility.yul\":7618:7627   */\n  dup3\n    /* \"#utility.yul\":7613:7616   */\n  dup8\n    /* \"#utility.yul\":7609:7628   */\n  add\n    /* \"#utility.yul\":7603:7629   */\n  mload\n    /* \"#utility.yul\":7594:7629   */\n  swap1\n  pop\n    /* \"#utility.yul\":7566:7643   */\ntag_127:\n    /* \"#utility.yul\":7669:7736   */\n  tag_128\n    /* \"#utility.yul\":7729:7735   */\n  dup6\n    /* \"#utility.yul\":7722:7727   */\n  dup3\n    /* \"#utility.yul\":7669:7736   */\n  tag_28\n  jump\t// in\ntag_128:\n    /* \"#utility.yul\":7663:7667   */\n  dup7\n    /* \"#utility.yul\":7656:7737   */\n  sstore\n    /* \"#utility.yul\":7525:7747   */\n  pop\n    /* \"#utility.yul\":6861:7747   */\n  jump(tag_125)\n    /* \"#utility.yul\":6891:7508   */\ntag_126:\n    /* \"#utility.yul\":6943:6947   */\n  0x1f\n    /* \"#utility.yul\":6939:6948   */\n  not\n    /* \"#utility.yul\":6931:6937   */\n  dup5\n    /* \"#utility.yul\":6927:6949   */\n  and\n    /* \"#utility.yul\":6977:7013   */\n  tag_129\n    /* \"#utility.yul\":7008:7012   */\n  dup7\n    /* \"#utility.yul\":6977:7013   */\n  tag_29\n  jump\t// in\ntag_129:\n    /* \"#utility.yul\":7035:7036   */\n  0x00\n    /* \"#utility.yul\":7049:7257   */\ntag_130:\n    /* \"#utility.yul\":7063:7070   */\n  dup3\n    /* \"#utility.yul\":7060:7061   */\n  dup2\n    /* \"#utility.yul\":7057:7071   */\n  lt\n    /* \"#utility.yul\":7049:7257   */\n  iszero\n  tag_132\n  jumpi\n    /* \"#utility.yul\":7142:7151   */\n  dup5\n    /* \"#utility.yul\":7137:7140   */\n  dup10\n    /* \"#utility.yul\":7133:7152   */\n  add\n    /* \"#utility.yul\":7127:7153   */\n  mload\n    /* \"#utility.yul\":7119:7125   */\n  dup3\n    /* \"#utility.yul\":7112:7154   */\n  sstore\n    /* \"#utility.yul\":7193:7194   */\n  0x01\n    /* \"#utility.yul\":7185:7191   */\n  dup3\n    /* \"#utility.yul\":7181:7195   */\n  add\n    /* \"#utility.yul\":7171:7195   */\n  swap2\n  pop\n    /* \"#utility.yul\":7240:7242   */\n  0x20\n    /* \"#utility.yul\":7229:7238   */\n  dup6\n    /* \"#utility.yul\":7225:7243   */\n  add\n    /* \"#utility.yul\":7212:7243   */\n  swap5\n  pop\n    /* \"#utility.yul\":7086:7090   */\n  0x20\n    /* \"#utility.yul\":7083:7084   */\n  dup2\n    /* \"#utility.yul\":7079:7091   */\n  add\n    /* \"#utility.yul\":7074:7091   */\n  swap1\n  pop\n    /* \"#utility.yul\":7049:7257   */\n  jump(tag_130)\ntag_132:\n    /* \"#utility.yul\":7285:7291   */\n  dup7\n    /* \"#utility.yul\":7276:7283   */\n  dup4\n    /* \"#utility.yul\":7273:7292   */\n  lt\n    /* \"#utility.yul\":7270:7449   */\n  iszero\n  tag_133\n  jumpi\n    /* \"#utility.yul\":7343:7352   */\n  dup5\n    /* \"#utility.yul\":7338:7341   */\n  dup10\n    /* \"#utility.yul\":7334:7353   */\n  add\n    /* \"#utility.yul\":7328:7354   */\n  mload\n    /* \"#utility.yul\":7386:7434   */\n  tag_134\n    /* \"#utility.yul\":7428:7432   */\n  0x1f\n    /* \"#utility.yul\":7420:7426   */\n  dup10\n    /* \"#utility.yul\":7416:7433   */\n  and\n    /* \"#utility.yul\":7405:7414   */\n  dup3\n    /* \"#utility.yul\":7386:7434   */\n  tag_27\n  jump\t// in\ntag_134:\n    /* \"#utility.yul\":7378:7384   */\n  dup4\n    /* \"#utility.yul\":7371:7435   */\n  sstore\n    /* \"#utility.yul\":7293:7449   */\n  pop\n    /* \"#utility.yul\":7270:7449   */\ntag_133:\n    /* \"#utility.yul\":7495:7496   */\n  0x01\n    /* \"#utility.yul\":7491:7492   */\n  0x02\n    /* \"#utility.yul\":7483:7489   */\n  dup9\n    /* \"#utility.yul\":7479:7493   */\n  mul\n    /* \"#utility.yul\":7475:7497   */\n  add\n    /* \"#utility.yul\":7469:7473   */\n  dup9\n    /* \"#utility.yul\":7462:7498   */\n  sstore\n    /* \"#utility.yul\":6898:7508   */\n  pop\n  pop\n  pop\n    /* \"#utility.yul\":6861:7747   */\ntag_125:\n  pop\n    /* \"#utility.yul\":6452:7753   */\n  pop\n  pop\n  pop\n    /* \"#utility.yul\":6361:7753   */\n  pop\n  pop\n  jump\t// out\n    /* \"#utility.yul\":7759:7860   */\ntag_31:\n    /* \"#utility.yul\":7821:7827   */\n  0x00\n    /* \"#utility.yul\":7849:7853   */\n  0x03\n    /* \"#utility.yul\":7839:7853   */\n  swap1\n  pop\n    /* \"#utility.yul\":7759:7860   */\n  swap2\n  swap1\n  pop\n  jump\t// out\n    /* \"#utility.yul\":8468:8669   */\ntag_34:\n    /* \"#utility.yul\":8547:8551   */\n  0x00\n    /* \"#utility.yul\":8570:8576   */\n  dup2\n    /* \"#utility.yul\":8562:8576   */\n  swap1\n  pop\n    /* \"#utility.yul\":8660:8661   */\n  0x01\n    /* \"#utility.yul\":8655:8656   */\n  dup1\n    /* \"#utility.yul\":8652:8653   */\n  0x01\n    /* \"#utility.yul\":8648:8657   */\n  sub\n    /* \"#utility.yul\":8640:8646   */\n  dup4\n    /* \"#utility.yul\":8636:8658   */\n  add\n    /* \"#utility.yul\":8632:8662   */\n  div\n    /* \"#utility.yul\":8624:8662   */\n  swap1\n  pop\n    /* \"#utility.yul\":8468:8669   */\n  swap2\n  swap1\n  pop\n  jump\t// out\n    /* \"#utility.yul\":8674:8769   */\ntag_35:\n    /* \"#utility.yul\":8736:8740   */\n  0x00\n    /* \"#utility.yul\":8759:8762   */\n  dup2\n    /* \"#utility.yul\":8751:8762   */\n  swap1\n  pop\n    /* \"#utility.yul\":8674:8769   */\n  swap2\n  swap1\n  pop\n  jump\t// out\n    /* \"#utility.yul\":8775:8990   */\ntag_36:\n    /* \"#utility.yul\":8861:8862   */\n  0x00\n    /* \"#utility.yul\":8846:8984   */\ntag_146:\n    /* \"#utility.yul\":8871:8880   */\n  dup3\n    /* \"#utility.yul\":8868:8869   */\n  dup2\n    /* \"#utility.yul\":8865:8881   */\n  lt\n    /* \"#utility.yul\":8846:8984   */\n  iszero\n  tag_148\n  jumpi\n    /* \"#utility.yul\":8923:8974   */\n  tag_149\n    /* \"#utility.yul\":8972:8973   */\n  0x00\n    /* \"#utility.yul\":8968:8969   */\n  dup3\n    /* \"#utility.yul\":8957:8966   */\n  dup5\n    /* \"#utility.yul\":8953:8970   */\n  add\n    /* \"#utility.yul\":8923:8974   */\n  tag_23\n  jump\t// in\ntag_149:\n    /* \"#utility.yul\":8896:8897   */\n  0x01\n    /* \"#utility.yul\":8893:8894   */\n  dup2\n    /* \"#utility.yul\":8889:8898   */\n  add\n    /* \"#utility.yul\":8884:8898   */\n  swap1\n  pop\n    /* \"#utility.yul\":8846:8984   */\n  jump(tag_146)\ntag_148:\n    /* \"#utility.yul\":8850:8864   */\n  pop\n    /* \"#utility.yul\":8775:8990   */\n  pop\n  pop\n  jump\t// out\n    /* \"#utility.yul\":9246:9878   */\ntag_38:\n    /* \"#utility.yul\":9364:9367   */\n  dup2\n    /* \"#utility.yul\":9352:9362   */\n  dup4\n    /* \"#utility.yul\":9349:9368   */\n  lt\n    /* \"#utility.yul\":9346:9871   */\n  iszero\n  tag_153\n  jumpi\n    /* \"#utility.yul\":9455:9518   */\n  tag_154\n    /* \"#utility.yul\":9514:9517   */\n  dup3\n    /* \"#utility.yul\":9455:9518   */\n  tag_34\n  jump\t// in\ntag_154:\n    /* \"#utility.yul\":9551:9621   */\n  tag_155\n    /* \"#utility.yul\":9610:9620   */\n  dup5\n    /* \"#utility.yul\":9551:9621   */\n  tag_34\n  jump\t// in\ntag_155:\n    /* \"#utility.yul\":9656:9707   */\n  tag_156\n    /* \"#utility.yul\":9701:9706   */\n  dup4\n    /* \"#utility.yul\":9656:9707   */\n  tag_35\n  jump\t// in\ntag_156:\n    /* \"#utility.yul\":9759:9771   */\n  dup2\n    /* \"#utility.yul\":9743:9757   */\n  dup2\n    /* \"#utility.yul\":9739:9772   */\n  add\n    /* \"#utility.yul\":9786:9861   */\n  tag_157\n    /* \"#utility.yul\":9847:9859   */\n  dup4\n    /* \"#utility.yul\":9833:9845   */\n  dup6\n    /* \"#utility.yul\":9829:9860   */\n  sub\n    /* \"#utility.yul\":9816:9827   */\n  dup3\n    /* \"#utility.yul\":9786:9861   */\n  tag_36\n  jump\t// in\ntag_157:\n    /* \"#utility.yul\":9369:9871   */\n  pop\n  pop\n  pop\n  pop\n    /* \"#utility.yul\":9346:9871   */\ntag_153:\n    /* \"#utility.yul\":9246:9878   */\n  pop\n  pop\n  pop\n  jump\t// out\n    /* \"#utility.yul\":9884:10207   */\ntag_39:\n    /* \"#utility.yul\":9975:9995   */\n  0x010000000000000000\n    /* \"#utility.yul\":9967:9973   */\n  dup3\n    /* \"#utility.yul\":9964:9996   */\n  gt\n    /* \"#utility.yul\":9961:10039   */\n  iszero\n  tag_159\n  jumpi\n    /* \"#utility.yul\":10011:10029   */\n  tag_160\n  tag_10\n  jump\t// in\ntag_160:\n    /* \"#utility.yul\":9961:10039   */\ntag_159:\n    /* \"#utility.yul\":10063:10112   */\n  tag_161\n    /* \"#utility.yul\":10106:10111   */\n  dup2\n    /* \"#utility.yul\":10063:10112   */\n  tag_31\n  jump\t// in\ntag_161:\n    /* \"#utility.yul\":10122:10200   */\n  tag_162\n    /* \"#utility.yul\":10193:10199   */\n  dup4\n    /* \"#utility.yul\":10185:10191   */\n  dup3\n    /* \"#utility.yul\":10178:10183   */\n  dup5\n    /* \"#utility.yul\":10122:10200   */\n  tag_38\n  jump\t// in\ntag_162:\n    /* \"#utility.yul\":9951:10207   */\n  pop\n    /* \"#utility.yul\":9884:10207   */\n  pop\n  pop\n  jump\t// out\n    /* \"#utility.yul\":10212:10314   */\ntag_40:\n    /* \"#utility.yul\":10275:10281   */\n  0x00\n    /* \"#utility.yul\":10303:10307   */\n  0x03\n    /* \"#utility.yul\":10293:10307   */\n  swap1\n  pop\n    /* \"#utility.yul\":10212:10314   */\n  swap2\n  swap1\n  pop\n  jump\t// out\n    /* \"#utility.yul\":10320:10406   */\ntag_41:\n    /* \"#utility.yul\":10355:10362   */\n  0x00\n    /* \"#utility.yul\":10395:10399   */\n  0xff\n    /* \"#utility.yul\":10388:10393   */\n  dup3\n    /* \"#utility.yul\":10384:10400   */\n  and\n    /* \"#utility.yul\":10373:10400   */\n  swap1\n  pop\n    /* \"#utility.yul\":10320:10406   */\n  swap2\n  swap1\n  pop\n  jump\t// out\n    /* \"#utility.yul\":10412:10562   */\ntag_42:\n    /* \"#utility.yul\":10453:10464   */\n  0x00\n    /* \"#utility.yul\":10489:10516   */\n  tag_166\n    /* \"#utility.yul\":10511:10514   */\n  dup3\n    /* \"#utility.yul\":10505:10515   */\n  mload\n    /* \"#utility.yul\":10489:10516   */\n  tag_41\n  jump\t// in\ntag_166:\n    /* \"#utility.yul\":10550:10555   */\n  dup1\n    /* \"#utility.yul\":10526:10555   */\n  swap2\n  pop\n    /* \"#utility.yul\":10465:10562   */\n  pop\n    /* \"#utility.yul\":10412:10562   */\n  swap2\n  swap1\n  pop\n  jump\t// out\n    /* \"#utility.yul\":10568:10664   */\ntag_43:\n    /* \"#utility.yul\":10631:10635   */\n  0x00\n    /* \"#utility.yul\":10654:10657   */\n  dup2\n    /* \"#utility.yul\":10646:10657   */\n  swap1\n  pop\n    /* \"#utility.yul\":10568:10664   */\n  swap2\n  swap1\n  pop\n  jump\t// out\n    /* \"#utility.yul\":11116:12097   */\ntag_6:\n    /* \"#utility.yul\":11251:11299   */\n  tag_177\n    /* \"#utility.yul\":11295:11298   */\n  dup3\n    /* \"#utility.yul\":11251:11299   */\n  tag_40\n  jump\t// in\ntag_177:\n    /* \"#utility.yul\":11364:11382   */\n  0xffffffffffffffff\n    /* \"#utility.yul\":11356:11362   */\n  dup2\n    /* \"#utility.yul\":11353:11383   */\n  gt\n    /* \"#utility.yul\":11350:11406   */\n  iszero\n  tag_178\n  jumpi\n    /* \"#utility.yul\":11386:11404   */\n  tag_179\n  tag_10\n  jump\t// in\ntag_179:\n    /* \"#utility.yul\":11350:11406   */\ntag_178:\n    /* \"#utility.yul\":11415:11470   */\n  tag_180\n    /* \"#utility.yul\":11463:11469   */\n  dup2\n    /* \"#utility.yul\":11458:11461   */\n  dup4\n    /* \"#utility.yul\":11415:11470   */\n  tag_39\n  jump\t// in\ntag_180:\n    /* \"#utility.yul\":11494:11544   */\n  tag_181\n    /* \"#utility.yul\":11540:11543   */\n  dup4\n    /* \"#utility.yul\":11494:11544   */\n  tag_43\n  jump\t// in\ntag_181:\n    /* \"#utility.yul\":11568:11617   */\n  tag_182\n    /* \"#utility.yul\":11613:11616   */\n  dup4\n    /* \"#utility.yul\":11568:11617   */\n  tag_35\n  jump\t// in\ntag_182:\n    /* \"#utility.yul\":11656:11657   */\n  0x01\n    /* \"#utility.yul\":11648:11654   */\n  dup4\n    /* \"#utility.yul\":11644:11658   */\n  div\n    /* \"#utility.yul\":11683:11684   */\n  0x00\n    /* \"#utility.yul\":11668:12090   */\ntag_183:\n    /* \"#utility.yul\":11693:11702   */\n  dup2\n    /* \"#utility.yul\":11690:11691   */\n  dup2\n    /* \"#utility.yul\":11687:11703   */\n  lt\n    /* \"#utility.yul\":11668:12090   */\n  iszero\n  tag_185\n  jumpi\n    /* \"#utility.yul\":11757:11758   */\n  0x00\n    /* \"#utility.yul\":11810:11841   */\n  tag_186\n    /* \"#utility.yul\":11834:11840   */\n  dup6\n    /* \"#utility.yul\":11810:11841   */\n  tag_42\n  jump\t// in\ntag_186:\n    /* \"#utility.yul\":11876:11912   */\n  tag_187\n    /* \"#utility.yul\":11900:11911   */\n  dup2\n    /* \"#utility.yul\":11876:11912   */\n  tag_20\n  jump\t// in\ntag_187:\n    /* \"#utility.yul\":11962:11971   */\n  dup1\n    /* \"#utility.yul\":11929:11971   */\n  swap3\n  pop\n    /* \"#utility.yul\":12011:12013   */\n  0x20\n    /* \"#utility.yul\":12003:12009   */\n  dup8\n    /* \"#utility.yul\":11999:12014   */\n  add\n    /* \"#utility.yul\":11989:12014   */\n  swap7\n  pop\n    /* \"#utility.yul\":11772:12029   */\n  pop\n  pop\n    /* \"#utility.yul\":12067:12079   */\n  dup1\n    /* \"#utility.yul\":12063:12064   */\n  dup3\n    /* \"#utility.yul\":12054:12061   */\n  dup6\n    /* \"#utility.yul\":12050:12065   */\n  add\n    /* \"#utility.yul\":12043:12080   */\n  sstore\n    /* \"#utility.yul\":11723:12090   */\n  pop\n    /* \"#utility.yul\":11718:11719   */\n  0x01\n    /* \"#utility.yul\":11715:11716   */\n  dup2\n    /* \"#utility.yul\":11711:11720   */\n  add\n    /* \"#utility.yul\":11706:11720   */\n  swap1\n  pop\n    /* \"#utility.yul\":11668:12090   */\n  jump(tag_183)\ntag_185:\n    /* \"#utility.yul\":11672:11686   */\n  pop\n    /* \"#utility.yul\":11226:12097   */\n  pop\n  pop\n  pop\n  pop\n    /* \"#utility.yul\":11116:12097   */\n  pop\n  pop\n  jump\t// out\n    /* \"data-types/SimpleStorage.sol\":65:1617  contract SimpleStorage {... */\ntag_8:\n  dataSize(sub_0)\n  dup1\n  dataOffset(sub_0)\n  0x00\n  codecopy\n  0x00\n  return\nstop\n\nsub_0: assembly {\n        /* \"data-types/SimpleStorage.sol\":65:1617  contract SimpleStorage {... */\n      mstore(0x40, 0x80)\n      callvalue\n      dup1\n      iszero\n      tag_1\n      jumpi\n      revert(0x00, 0x00)\n    tag_1:\n      pop\n      jumpi(tag_2, lt(calldatasize, 0x04))\n      shr(0xe0, calldataload(0x00))\n      dup1\n      0xadccea12\n      gt\n      tag_16\n      jumpi\n      dup1\n      0xce845d1d\n      gt\n      tag_17\n      jumpi\n      dup1\n      0xce845d1d\n      eq\n      tag_12\n      jumpi\n      dup1\n      0xe1b0385f\n      eq\n      tag_13\n      jumpi\n      dup1\n      0xef8a9235\n      eq\n      tag_14\n      jumpi\n      dup1\n      0xfae2dd4b\n      eq\n      tag_15\n      jumpi\n      jump(tag_2)\n    tag_17:\n      dup1\n      0xadccea12\n      eq\n      tag_9\n      jumpi\n      dup1\n      0xccec1980\n      eq\n      tag_10\n      jumpi\n      dup1\n      0xcdd1897a\n      eq\n      tag_11\n      jumpi\n      jump(tag_2)\n    tag_16:\n      dup1\n      0x0de296ed\n      eq\n      tag_3\n      jumpi\n      dup1\n      0x26b85ee1\n      eq\n      tag_4\n      jumpi\n      dup1\n      0x2b92b8e5\n      eq\n      tag_5\n      jumpi\n      dup1\n      0x313b277d\n      eq\n      tag_6\n      jumpi\n      dup1\n      0x6670cde0\n      eq\n      tag_7\n      jumpi\n      dup1\n      0x85c3c411\n      eq\n      tag_8\n      jumpi\n    tag_2:\n      revert(0x00, 0x00)\n        /* \"data-types/SimpleStorage.sol\":766:798  bytes1  public singleByte = 0xFF */\n    tag_3:\n      tag_18\n      tag_19\n      jump\t// in\n    tag_18:\n      mload(0x40)\n      tag_20\n      swap2\n      swap1\n      tag_21\n      jump\t// in\n    tag_20:\n      mload(0x40)\n      dup1\n      swap2\n      sub\n      swap1\n      return\n        /* \"data-types/SimpleStorage.sol\":666:735  address public myAddress = 0x7eD04EF0c2dc4952d63088CE60f514089fF3383b */\n    tag_4:\n      tag_22\n      tag_23\n      jump\t// in\n    tag_22:\n      mload(0x40)\n      tag_24\n      swap2\n      swap1\n      tag_25\n      jump\t// in\n    tag_24:\n      mload(0x40)\n      dup1\n      swap2\n      sub\n      swap1\n      return\n        /* \"data-types/SimpleStorage.sol\":804:849  bytes32 public hashValue  = \"thisIsRajMishra\" */\n    tag_5:\n      tag_26\n      tag_27\n      jump\t// in\n    tag_26:\n      mload(0x40)\n      tag_28\n      swap2\n      swap1\n      tag_29\n      jump\t// in\n    tag_28:\n      mload(0x40)\n      dup1\n      swap2\n      sub\n      swap1\n      return\n        /* \"data-types/SimpleStorage.sol\":1405:1449  uint256[3] public fixedScores = [10, 20, 30] */\n    tag_6:\n      tag_30\n      0x04\n      dup1\n      calldatasize\n      sub\n      dup2\n      add\n      swap1\n      tag_31\n      swap2\n      swap1\n      tag_32\n      jump\t// in\n    tag_31:\n      tag_33\n      jump\t// in\n    tag_30:\n      mload(0x40)\n      tag_34\n      swap2\n      swap1\n      tag_35\n      jump\t// in\n    tag_34:\n      mload(0x40)\n      dup1\n      swap2\n      sub\n      swap1\n      return\n        /* \"data-types/SimpleStorage.sol\":463:497  uint8   public smallNumber   = 255 */\n    tag_7:\n      tag_36\n      tag_37\n      jump\t// in\n    tag_36:\n      mload(0x40)\n      tag_38\n      swap2\n      swap1\n      tag_39\n      jump\t// in\n    tag_38:\n      mload(0x40)\n      dup1\n      swap2\n      sub\n      swap1\n      return\n        /* \"data-types/SimpleStorage.sol\":395:431  bool public hasFavoriteNumber = true */\n    tag_8:\n      tag_40\n      tag_41\n      jump\t// in\n    tag_40:\n      mload(0x40)\n      tag_42\n      swap2\n      swap1\n      tag_43\n      jump\t// in\n    tag_42:\n      mload(0x40)\n      dup1\n      swap2\n      sub\n      swap1\n      return\n        /* \"data-types/SimpleStorage.sol\":566:601  int8   public temperature     = -10 */\n    tag_9:\n      tag_44\n      tag_45\n      jump\t// in\n    tag_44:\n      mload(0x40)\n      tag_46\n      swap2\n      swap1\n      tag_47\n      jump\t// in\n    tag_46:\n      mload(0x40)\n      dup1\n      swap2\n      sub\n      swap1\n      return\n        /* \"data-types/SimpleStorage.sol\":1477:1504  uint256[] public dynamicIds */\n    tag_10:\n      tag_48\n      0x04\n      dup1\n      calldatasize\n      sub\n      dup2\n      add\n      swap1\n      tag_49\n      swap2\n      swap1\n      tag_32\n      jump\t// in\n    tag_49:\n      tag_50\n      jump\t// in\n    tag_48:\n      mload(0x40)\n      tag_51\n      swap2\n      swap1\n      tag_35\n      jump\t// in\n    tag_51:\n      mload(0x40)\n      dup1\n      swap2\n      sub\n      swap1\n      return\n        /* \"data-types/SimpleStorage.sol\":1344:1374  bytes public rawData = \"hello\" */\n    tag_11:\n      tag_52\n      tag_53\n      jump\t// in\n    tag_52:\n      mload(0x40)\n      tag_54\n      swap2\n      swap1\n      tag_55\n      jump\t// in\n    tag_54:\n      mload(0x40)\n      dup1\n      swap2\n      sub\n      swap1\n      return\n        /* \"data-types/SimpleStorage.sol\":607:644  int256 public currentBalance  = 20000 */\n    tag_12:\n      tag_56\n      tag_57\n      jump\t// in\n    tag_56:\n      mload(0x40)\n      tag_58\n      swap2\n      swap1\n      tag_59\n      jump\t// in\n    tag_58:\n      mload(0x40)\n      dup1\n      swap2\n      sub\n      swap1\n      return\n        /* \"data-types/SimpleStorage.sol\":503:536  uint256 public currentAge    = 22 */\n    tag_13:\n      tag_60\n      tag_61\n      jump\t// in\n    tag_60:\n      mload(0x40)\n      tag_62\n      swap2\n      swap1\n      tag_35\n      jump\t// in\n    tag_62:\n      mload(0x40)\n      dup1\n      swap2\n      sub\n      swap1\n      return\n        /* \"data-types/SimpleStorage.sol\":912:939  Status public currentStatus */\n    tag_14:\n      tag_63\n      tag_64\n      jump\t// in\n    tag_63:\n      mload(0x40)\n      tag_65\n      swap2\n      swap1\n      tag_66\n      jump\t// in\n    tag_65:\n      mload(0x40)\n      dup1\n      swap2\n      sub\n      swap1\n      return\n        /* \"data-types/SimpleStorage.sol\":1281:1316  string public myName = \"Raj Mishra\" */\n    tag_15:\n      tag_67\n      tag_68\n      jump\t// in\n    tag_67:\n      mload(0x40)\n      tag_69\n      swap2\n      swap1\n      tag_70\n      jump\t// in\n    tag_69:\n      mload(0x40)\n      dup1\n      swap2\n      sub\n      swap1\n      return\n        /* \"data-types/SimpleStorage.sol\":766:798  bytes1  public singleByte = 0xFF */\n    tag_19:\n      0x04\n      0x14\n      swap1\n      sload\n      swap1\n      0x0100\n      exp\n      swap1\n      div\n      0xf8\n      shl\n      dup2\n      jump\t// out\n        /* \"data-types/SimpleStorage.sol\":666:735  address public myAddress = 0x7eD04EF0c2dc4952d63088CE60f514089fF3383b */\n    tag_23:\n      0x04\n      0x00\n      swap1\n      sload\n      swap1\n      0x0100\n      exp\n      swap1\n      div\n      0xffffffffffffffffffffffffffffffffffffffff\n      and\n      dup2\n      jump\t// out\n        /* \"data-types/SimpleStorage.sol\":804:849  bytes32 public hashValue  = \"thisIsRajMishra\" */\n    tag_27:\n      sload(0x05)\n      dup2\n      jump\t// out\n        /* \"data-types/SimpleStorage.sol\":1405:1449  uint256[3] public fixedScores = [10, 20, 30] */\n    tag_33:\n      0x09\n      dup2\n      0x03\n      dup2\n      lt\n      tag_71\n      jumpi\n      0x00\n      dup1\n      revert\n    tag_71:\n      add\n      0x00\n      swap2\n      pop\n      swap1\n      pop\n      sload\n      dup2\n      jump\t// out\n        /* \"data-types/SimpleStorage.sol\":463:497  uint8   public smallNumber   = 255 */\n    tag_37:\n      0x00\n      0x01\n      swap1\n      sload\n      swap1\n      0x0100\n      exp\n      swap1\n      div\n      0xff\n      and\n      dup2\n      jump\t// out\n        /* \"data-types/SimpleStorage.sol\":395:431  bool public hasFavoriteNumber = true */\n    tag_41:\n      0x00\n      0x00\n      swap1\n      sload\n      swap1\n      0x0100\n      exp\n      swap1\n      div\n      0xff\n      and\n      dup2\n      jump\t// out\n        /* \"data-types/SimpleStorage.sol\":566:601  int8   public temperature     = -10 */\n    tag_45:\n      0x02\n      0x00\n      swap1\n      sload\n      swap1\n      0x0100\n      exp\n      swap1\n      div\n      0x00\n      signextend\n      dup2\n      jump\t// out\n        /* \"data-types/SimpleStorage.sol\":1477:1504  uint256[] public dynamicIds */\n    tag_50:\n      0x0c\n      dup2\n      dup2\n      sload\n      dup2\n      lt\n      tag_73\n      jumpi\n      0x00\n      dup1\n      revert\n    tag_73:\n      swap1\n      0x00\n      mstore\n      keccak256(0x00, 0x20)\n      add\n      0x00\n      swap2\n      pop\n      swap1\n      pop\n      sload\n      dup2\n      jump\t// out\n        /* \"data-types/SimpleStorage.sol\":1344:1374  bytes public rawData = \"hello\" */\n    tag_53:\n      0x08\n      dup1\n      sload\n      tag_75\n      swap1\n      tag_76\n      jump\t// in\n    tag_75:\n      dup1\n      0x1f\n      add\n      0x20\n      dup1\n      swap2\n      div\n      mul\n      0x20\n      add\n      mload(0x40)\n      swap1\n      dup2\n      add\n      0x40\n      mstore\n      dup1\n      swap3\n      swap2\n      swap1\n      dup2\n      dup2\n      mstore\n      0x20\n      add\n      dup3\n      dup1\n      sload\n      tag_77\n      swap1\n      tag_76\n      jump\t// in\n    tag_77:\n      dup1\n      iszero\n      tag_78\n      jumpi\n      dup1\n      0x1f\n      lt\n      tag_79\n      jumpi\n      0x0100\n      dup1\n      dup4\n      sload\n      div\n      mul\n      dup4\n      mstore\n      swap2\n      0x20\n      add\n      swap2\n      jump(tag_78)\n    tag_79:\n      dup3\n      add\n      swap2\n      swap1\n      0x00\n      mstore\n      keccak256(0x00, 0x20)\n      swap1\n    tag_80:\n      dup2\n      sload\n      dup2\n      mstore\n      swap1\n      0x01\n      add\n      swap1\n      0x20\n      add\n      dup1\n      dup4\n      gt\n      tag_80\n      jumpi\n      dup3\n      swap1\n      sub\n      0x1f\n      and\n      dup3\n      add\n      swap2\n    tag_78:\n      pop\n      pop\n      pop\n      pop\n      pop\n      dup2\n      jump\t// out\n        /* \"data-types/SimpleStorage.sol\":607:644  int256 public currentBalance  = 20000 */\n    tag_57:\n      sload(0x03)\n      dup2\n      jump\t// out\n        /* \"data-types/SimpleStorage.sol\":503:536  uint256 public currentAge    = 22 */\n    tag_61:\n      sload(0x01)\n      dup2\n      jump\t// out\n        /* \"data-types/SimpleStorage.sol\":912:939  Status public currentStatus */\n    tag_64:\n      0x06\n      0x00\n      swap1\n      sload\n      swap1\n      0x0100\n      exp\n      swap1\n      div\n      0xff\n      and\n      dup2\n      jump\t// out\n        /* \"data-types/SimpleStorage.sol\":1281:1316  string public myName = \"Raj Mishra\" */\n    tag_68:\n      0x07\n      dup1\n      sload\n      tag_81\n      swap1\n      tag_76\n      jump\t// in\n    tag_81:\n      dup1\n      0x1f\n      add\n      0x20\n      dup1\n      swap2\n      div\n      mul\n      0x20\n      add\n      mload(0x40)\n      swap1\n      dup2\n      add\n      0x40\n      mstore\n      dup1\n      swap3\n      swap2\n      swap1\n      dup2\n      dup2\n      mstore\n      0x20\n      add\n      dup3\n      dup1\n      sload\n      tag_82\n      swap1\n      tag_76\n      jump\t// in\n    tag_82:\n      dup1\n      iszero\n      tag_83\n      jumpi\n      dup1\n      0x1f\n      lt\n      tag_84\n      jumpi\n      0x0100\n      dup1\n      dup4\n      sload\n      div\n      mul\n      dup4\n      mstore\n      swap2\n      0x20\n      add\n      swap2\n      jump(tag_83)\n    tag_84:\n      dup3\n      add\n      swap2\n      swap1\n      0x00\n      mstore\n      keccak256(0x00, 0x20)\n      swap1\n    tag_85:\n      dup2\n      sload\n      dup2\n      mstore\n      swap1\n      0x01\n      add\n      swap1\n      0x20\n      add\n      dup1\n      dup4\n      gt\n      tag_85\n      jumpi\n      dup3\n      swap1\n      sub\n      0x1f\n      and\n      dup3\n      add\n      swap2\n    tag_83:\n      pop\n      pop\n      pop\n      pop\n      pop\n      dup2\n      jump\t// out\n        /* \"#utility.yul\":7:156   */\n    tag_86:\n        /* \"#utility.yul\":43:50   */\n      0x00\n        /* \"#utility.yul\":83:149   */\n      0xff00000000000000000000000000000000000000000000000000000000000000\n        /* \"#utility.yul\":76:81   */\n      dup3\n        /* \"#utility.yul\":72:150   */\n      and\n        /* \"#utility.yul\":61:150   */\n      swap1\n      pop\n        /* \"#utility.yul\":7:156   */\n      swap2\n      swap1\n      pop\n      jump\t// out\n        /* \"#utility.yul\":162:277   */\n    tag_87:\n        /* \"#utility.yul\":247:270   */\n      tag_125\n        /* \"#utility.yul\":264:269   */\n      dup2\n        /* \"#utility.yul\":247:270   */\n      tag_86\n      jump\t// in\n    tag_125:\n        /* \"#utility.yul\":242:245   */\n      dup3\n        /* \"#utility.yul\":235:271   */\n      mstore\n        /* \"#utility.yul\":162:277   */\n      pop\n      pop\n      jump\t// out\n        /* \"#utility.yul\":283:501   */\n    tag_21:\n        /* \"#utility.yul\":374:378   */\n      0x00\n        /* \"#utility.yul\":412:414   */\n      0x20\n        /* \"#utility.yul\":401:410   */\n      dup3\n        /* \"#utility.yul\":397:415   */\n      add\n        /* \"#utility.yul\":389:415   */\n      swap1\n      pop\n        /* \"#utility.yul\":425:494   */\n      tag_127\n        /* \"#utility.yul\":491:492   */\n      0x00\n        /* \"#utility.yul\":480:489   */\n      dup4\n        /* \"#utility.yul\":476:493   */\n      add\n        /* \"#utility.yul\":467:473   */\n      dup5\n        /* \"#utility.yul\":425:494   */\n      tag_87\n      jump\t// in\n    tag_127:\n        /* \"#utility.yul\":283:501   */\n      swap3\n      swap2\n      pop\n      pop\n      jump\t// out\n        /* \"#utility.yul\":507:633   */\n    tag_88:\n        /* \"#utility.yul\":544:551   */\n      0x00\n        /* \"#utility.yul\":584:626   */\n      0xffffffffffffffffffffffffffffffffffffffff\n        /* \"#utility.yul\":577:582   */\n      dup3\n        /* \"#utility.yul\":573:627   */\n      and\n        /* \"#utility.yul\":562:627   */\n      swap1\n      pop\n        /* \"#utility.yul\":507:633   */\n      swap2\n      swap1\n      pop\n      jump\t// out\n        /* \"#utility.yul\":639:735   */\n    tag_89:\n        /* \"#utility.yul\":676:683   */\n      0x00\n        /* \"#utility.yul\":705:729   */\n      tag_130\n        /* \"#utility.yul\":723:728   */\n      dup3\n        /* \"#utility.yul\":705:729   */\n      tag_88\n      jump\t// in\n    tag_130:\n        /* \"#utility.yul\":694:729   */\n      swap1\n      pop\n        /* \"#utility.yul\":639:735   */\n      swap2\n      swap1\n      pop\n      jump\t// out\n        /* \"#utility.yul\":741:859   */\n    tag_90:\n        /* \"#utility.yul\":828:852   */\n      tag_132\n        /* \"#utility.yul\":846:851   */\n      dup2\n        /* \"#utility.yul\":828:852   */\n      tag_89\n      jump\t// in\n    tag_132:\n        /* \"#utility.yul\":823:826   */\n      dup3\n        /* \"#utility.yul\":816:853   */\n      mstore\n        /* \"#utility.yul\":741:859   */\n      pop\n      pop\n      jump\t// out\n        /* \"#utility.yul\":865:1087   */\n    tag_25:\n        /* \"#utility.yul\":958:962   */\n      0x00\n        /* \"#utility.yul\":996:998   */\n      0x20\n        /* \"#utility.yul\":985:994   */\n      dup3\n        /* \"#utility.yul\":981:999   */\n      add\n        /* \"#utility.yul\":973:999   */\n      swap1\n      pop\n        /* \"#utility.yul\":1009:1080   */\n      tag_134\n        /* \"#utility.yul\":1077:1078   */\n      0x00\n        /* \"#utility.yul\":1066:1075   */\n      dup4\n        /* \"#utility.yul\":1062:1079   */\n      add\n        /* \"#utility.yul\":1053:1059   */\n      dup5\n        /* \"#utility.yul\":1009:1080   */\n      tag_90\n      jump\t// in\n    tag_134:\n        /* \"#utility.yul\":865:1087   */\n      swap3\n      swap2\n      pop\n      pop\n      jump\t// out\n        /* \"#utility.yul\":1093:1170   */\n    tag_91:\n        /* \"#utility.yul\":1130:1137   */\n      0x00\n        /* \"#utility.yul\":1159:1164   */\n      dup2\n        /* \"#utility.yul\":1148:1164   */\n      swap1\n      pop\n        /* \"#utility.yul\":1093:1170   */\n      swap2\n      swap1\n      pop\n      jump\t// out\n        /* \"#utility.yul\":1176:1294   */\n    tag_92:\n        /* \"#utility.yul\":1263:1287   */\n      tag_137\n        /* \"#utility.yul\":1281:1286   */\n      dup2\n        /* \"#utility.yul\":1263:1287   */\n      tag_91\n      jump\t// in\n    tag_137:\n        /* \"#utility.yul\":1258:1261   */\n      dup3\n        /* \"#utility.yul\":1251:1288   */\n      mstore\n        /* \"#utility.yul\":1176:1294   */\n      pop\n      pop\n      jump\t// out\n        /* \"#utility.yul\":1300:1522   */\n    tag_29:\n        /* \"#utility.yul\":1393:1397   */\n      0x00\n        /* \"#utility.yul\":1431:1433   */\n      0x20\n        /* \"#utility.yul\":1420:1429   */\n      dup3\n        /* \"#utility.yul\":1416:1434   */\n      add\n        /* \"#utility.yul\":1408:1434   */\n      swap1\n      pop\n        /* \"#utility.yul\":1444:1515   */\n      tag_139\n        /* \"#utility.yul\":1512:1513   */\n      0x00\n        /* \"#utility.yul\":1501:1510   */\n      dup4\n        /* \"#utility.yul\":1497:1514   */\n      add\n        /* \"#utility.yul\":1488:1494   */\n      dup5\n        /* \"#utility.yul\":1444:1515   */\n      tag_92\n      jump\t// in\n    tag_139:\n        /* \"#utility.yul\":1300:1522   */\n      swap3\n      swap2\n      pop\n      pop\n      jump\t// out\n        /* \"#utility.yul\":1609:1726   */\n    tag_94:\n        /* \"#utility.yul\":1718:1719   */\n      0x00\n        /* \"#utility.yul\":1715:1716   */\n      0x00\n        /* \"#utility.yul\":1708:1720   */\n      revert\n        /* \"#utility.yul\":1855:1932   */\n    tag_96:\n        /* \"#utility.yul\":1892:1899   */\n      0x00\n        /* \"#utility.yul\":1921:1926   */\n      dup2\n        /* \"#utility.yul\":1910:1926   */\n      swap1\n      pop\n        /* \"#utility.yul\":1855:1932   */\n      swap2\n      swap1\n      pop\n      jump\t// out\n        /* \"#utility.yul\":1938:2060   */\n    tag_97:\n        /* \"#utility.yul\":2011:2035   */\n      tag_145\n        /* \"#utility.yul\":2029:2034   */\n      dup2\n        /* \"#utility.yul\":2011:2035   */\n      tag_96\n      jump\t// in\n    tag_145:\n        /* \"#utility.yul\":2004:2009   */\n      dup2\n        /* \"#utility.yul\":2001:2036   */\n      eq\n        /* \"#utility.yul\":1991:2054   */\n      tag_146\n      jumpi\n        /* \"#utility.yul\":2050:2051   */\n      0x00\n        /* \"#utility.yul\":2047:2048   */\n      0x00\n        /* \"#utility.yul\":2040:2052   */\n      revert\n        /* \"#utility.yul\":1991:2054   */\n    tag_146:\n        /* \"#utility.yul\":1938:2060   */\n      pop\n      jump\t// out\n        /* \"#utility.yul\":2066:2205   */\n    tag_98:\n        /* \"#utility.yul\":2112:2117   */\n      0x00\n        /* \"#utility.yul\":2150:2156   */\n      dup2\n        /* \"#utility.yul\":2137:2157   */\n      calldataload\n        /* \"#utility.yul\":2128:2157   */\n      swap1\n      pop\n        /* \"#utility.yul\":2166:2199   */\n      tag_148\n        /* \"#utility.yul\":2193:2198   */\n      dup2\n        /* \"#utility.yul\":2166:2199   */\n      tag_97\n      jump\t// in\n    tag_148:\n        /* \"#utility.yul\":2066:2205   */\n      swap3\n      swap2\n      pop\n      pop\n      jump\t// out\n        /* \"#utility.yul\":2211:2540   */\n    tag_32:\n        /* \"#utility.yul\":2270:2276   */\n      0x00\n        /* \"#utility.yul\":2319:2321   */\n      0x20\n        /* \"#utility.yul\":2307:2316   */\n      dup3\n        /* \"#utility.yul\":2298:2305   */\n      dup5\n        /* \"#utility.yul\":2294:2317   */\n      sub\n        /* \"#utility.yul\":2290:2322   */\n      slt\n        /* \"#utility.yul\":2287:2406   */\n      iszero\n      tag_150\n      jumpi\n        /* \"#utility.yul\":2325:2404   */\n      tag_151\n      tag_94\n      jump\t// in\n    tag_151:\n        /* \"#utility.yul\":2287:2406   */\n    tag_150:\n        /* \"#utility.yul\":2445:2446   */\n      0x00\n        /* \"#utility.yul\":2470:2523   */\n      tag_152\n        /* \"#utility.yul\":2515:2522   */\n      dup5\n        /* \"#utility.yul\":2506:2512   */\n      dup3\n        /* \"#utility.yul\":2495:2504   */\n      dup6\n        /* \"#utility.yul\":2491:2513   */\n      add\n        /* \"#utility.yul\":2470:2523   */\n      tag_98\n      jump\t// in\n    tag_152:\n        /* \"#utility.yul\":2460:2523   */\n      swap2\n      pop\n        /* \"#utility.yul\":2416:2533   */\n      pop\n        /* \"#utility.yul\":2211:2540   */\n      swap3\n      swap2\n      pop\n      pop\n      jump\t// out\n        /* \"#utility.yul\":2546:2664   */\n    tag_99:\n        /* \"#utility.yul\":2633:2657   */\n      tag_154\n        /* \"#utility.yul\":2651:2656   */\n      dup2\n        /* \"#utility.yul\":2633:2657   */\n      tag_96\n      jump\t// in\n    tag_154:\n        /* \"#utility.yul\":2628:2631   */\n      dup3\n        /* \"#utility.yul\":2621:2658   */\n      mstore\n        /* \"#utility.yul\":2546:2664   */\n      pop\n      pop\n      jump\t// out\n        /* \"#utility.yul\":2670:2892   */\n    tag_35:\n        /* \"#utility.yul\":2763:2767   */\n      0x00\n        /* \"#utility.yul\":2801:2803   */\n      0x20\n        /* \"#utility.yul\":2790:2799   */\n      dup3\n        /* \"#utility.yul\":2786:2804   */\n      add\n        /* \"#utility.yul\":2778:2804   */\n      swap1\n      pop\n        /* \"#utility.yul\":2814:2885   */\n      tag_156\n        /* \"#utility.yul\":2882:2883   */\n      0x00\n        /* \"#utility.yul\":2871:2880   */\n      dup4\n        /* \"#utility.yul\":2867:2884   */\n      add\n        /* \"#utility.yul\":2858:2864   */\n      dup5\n        /* \"#utility.yul\":2814:2885   */\n      tag_99\n      jump\t// in\n    tag_156:\n        /* \"#utility.yul\":2670:2892   */\n      swap3\n      swap2\n      pop\n      pop\n      jump\t// out\n        /* \"#utility.yul\":2898:2984   */\n    tag_100:\n        /* \"#utility.yul\":2933:2940   */\n      0x00\n        /* \"#utility.yul\":2973:2977   */\n      0xff\n        /* \"#utility.yul\":2966:2971   */\n      dup3\n        /* \"#utility.yul\":2962:2978   */\n      and\n        /* \"#utility.yul\":2951:2978   */\n      swap1\n      pop\n        /* \"#utility.yul\":2898:2984   */\n      swap2\n      swap1\n      pop\n      jump\t// out\n        /* \"#utility.yul\":2990:3102   */\n    tag_101:\n        /* \"#utility.yul\":3073:3095   */\n      tag_159\n        /* \"#utility.yul\":3089:3094   */\n      dup2\n        /* \"#utility.yul\":3073:3095   */\n      tag_100\n      jump\t// in\n    tag_159:\n        /* \"#utility.yul\":3068:3071   */\n      dup3\n        /* \"#utility.yul\":3061:3096   */\n      mstore\n        /* \"#utility.yul\":2990:3102   */\n      pop\n      pop\n      jump\t// out\n        /* \"#utility.yul\":3108:3322   */\n    tag_39:\n        /* \"#utility.yul\":3197:3201   */\n      0x00\n        /* \"#utility.yul\":3235:3237   */\n      0x20\n        /* \"#utility.yul\":3224:3233   */\n      dup3\n        /* \"#utility.yul\":3220:3238   */\n      add\n        /* \"#utility.yul\":3212:3238   */\n      swap1\n      pop\n        /* \"#utility.yul\":3248:3315   */\n      tag_161\n        /* \"#utility.yul\":3312:3313   */\n      0x00\n        /* \"#utility.yul\":3301:3310   */\n      dup4\n        /* \"#utility.yul\":3297:3314   */\n      add\n        /* \"#utility.yul\":3288:3294   */\n      dup5\n        /* \"#utility.yul\":3248:3315   */\n      tag_101\n      jump\t// in\n    tag_161:\n        /* \"#utility.yul\":3108:3322   */\n      swap3\n      swap2\n      pop\n      pop\n      jump\t// out\n        /* \"#utility.yul\":3328:3418   */\n    tag_102:\n        /* \"#utility.yul\":3362:3369   */\n      0x00\n        /* \"#utility.yul\":3405:3410   */\n      dup2\n        /* \"#utility.yul\":3398:3411   */\n      iszero\n        /* \"#utility.yul\":3391:3412   */\n      iszero\n        /* \"#utility.yul\":3380:3412   */\n      swap1\n      pop\n        /* \"#utility.yul\":3328:3418   */\n      swap2\n      swap1\n      pop\n      jump\t// out\n        /* \"#utility.yul\":3424:3533   */\n    tag_103:\n        /* \"#utility.yul\":3505:3526   */\n      tag_164\n        /* \"#utility.yul\":3520:3525   */\n      dup2\n        /* \"#utility.yul\":3505:3526   */\n      tag_102\n      jump\t// in\n    tag_164:\n        /* \"#utility.yul\":3500:3503   */\n      dup3\n        /* \"#utility.yul\":3493:3527   */\n      mstore\n        /* \"#utility.yul\":3424:3533   */\n      pop\n      pop\n      jump\t// out\n        /* \"#utility.yul\":3539:3749   */\n    tag_43:\n        /* \"#utility.yul\":3626:3630   */\n      0x00\n        /* \"#utility.yul\":3664:3666   */\n      0x20\n        /* \"#utility.yul\":3653:3662   */\n      dup3\n        /* \"#utility.yul\":3649:3667   */\n      add\n        /* \"#utility.yul\":3641:3667   */\n      swap1\n      pop\n        /* \"#utility.yul\":3677:3742   */\n      tag_166\n        /* \"#utility.yul\":3739:3740   */\n      0x00\n        /* \"#utility.yul\":3728:3737   */\n      dup4\n        /* \"#utility.yul\":3724:3741   */\n      add\n        /* \"#utility.yul\":3715:3721   */\n      dup5\n        /* \"#utility.yul\":3677:3742   */\n      tag_103\n      jump\t// in\n    tag_166:\n        /* \"#utility.yul\":3539:3749   */\n      swap3\n      swap2\n      pop\n      pop\n      jump\t// out\n        /* \"#utility.yul\":3755:3844   */\n    tag_104:\n        /* \"#utility.yul\":3789:3796   */\n      0x00\n        /* \"#utility.yul\":3832:3837   */\n      dup2\n        /* \"#utility.yul\":3829:3830   */\n      0x00\n        /* \"#utility.yul\":3818:3838   */\n      signextend\n        /* \"#utility.yul\":3807:3838   */\n      swap1\n      pop\n        /* \"#utility.yul\":3755:3844   */\n      swap2\n      swap1\n      pop\n      jump\t// out\n        /* \"#utility.yul\":3850:3959   */\n    tag_105:\n        /* \"#utility.yul\":3931:3952   */\n      tag_169\n        /* \"#utility.yul\":3946:3951   */\n      dup2\n        /* \"#utility.yul\":3931:3952   */\n      tag_104\n      jump\t// in\n    tag_169:\n        /* \"#utility.yul\":3926:3929   */\n      dup3\n        /* \"#utility.yul\":3919:3953   */\n      mstore\n        /* \"#utility.yul\":3850:3959   */\n      pop\n      pop\n      jump\t// out\n        /* \"#utility.yul\":3965:4175   */\n    tag_47:\n        /* \"#utility.yul\":4052:4056   */\n      0x00\n        /* \"#utility.yul\":4090:4092   */\n      0x20\n        /* \"#utility.yul\":4079:4088   */\n      dup3\n        /* \"#utility.yul\":4075:4093   */\n      add\n        /* \"#utility.yul\":4067:4093   */\n      swap1\n      pop\n        /* \"#utility.yul\":4103:4168   */\n      tag_171\n        /* \"#utility.yul\":4165:4166   */\n      0x00\n        /* \"#utility.yul\":4154:4163   */\n      dup4\n        /* \"#utility.yul\":4150:4167   */\n      add\n        /* \"#utility.yul\":4141:4147   */\n      dup5\n        /* \"#utility.yul\":4103:4168   */\n      tag_105\n      jump\t// in\n    tag_171:\n        /* \"#utility.yul\":3965:4175   */\n      swap3\n      swap2\n      pop\n      pop\n      jump\t// out\n        /* \"#utility.yul\":4181:4279   */\n    tag_106:\n        /* \"#utility.yul\":4232:4238   */\n      0x00\n        /* \"#utility.yul\":4266:4271   */\n      dup2\n        /* \"#utility.yul\":4260:4272   */\n      mload\n        /* \"#utility.yul\":4250:4272   */\n      swap1\n      pop\n        /* \"#utility.yul\":4181:4279   */\n      swap2\n      swap1\n      pop\n      jump\t// out\n        /* \"#utility.yul\":4285:4453   */\n    tag_107:\n        /* \"#utility.yul\":4368:4379   */\n      0x00\n        /* \"#utility.yul\":4402:4408   */\n      dup3\n        /* \"#utility.yul\":4397:4400   */\n      dup3\n        /* \"#utility.yul\":4390:4409   */\n      mstore\n        /* \"#utility.yul\":4442:4446   */\n      0x20\n        /* \"#utility.yul\":4437:4440   */\n      dup3\n        /* \"#utility.yul\":4433:4447   */\n      add\n        /* \"#utility.yul\":4418:4447   */\n      swap1\n      pop\n        /* \"#utility.yul\":4285:4453   */\n      swap3\n      swap2\n      pop\n      pop\n      jump\t// out\n        /* \"#utility.yul\":4459:4598   */\n    tag_108:\n        /* \"#utility.yul\":4548:4554   */\n      dup3\n        /* \"#utility.yul\":4543:4546   */\n      dup2\n        /* \"#utility.yul\":4538:4541   */\n      dup4\n        /* \"#utility.yul\":4532:4555   */\n      mcopy\n        /* \"#utility.yul\":4589:4590   */\n      0x00\n        /* \"#utility.yul\":4580:4586   */\n      dup4\n        /* \"#utility.yul\":4575:4578   */\n      dup4\n        /* \"#utility.yul\":4571:4587   */\n      add\n        /* \"#utility.yul\":4564:4591   */\n      mstore\n        /* \"#utility.yul\":4459:4598   */\n      pop\n      pop\n      pop\n      jump\t// out\n        /* \"#utility.yul\":4604:4706   */\n    tag_109:\n        /* \"#utility.yul\":4645:4651   */\n      0x00\n        /* \"#utility.yul\":4696:4698   */\n      0x1f\n        /* \"#utility.yul\":4692:4699   */\n      not\n        /* \"#utility.yul\":4687:4689   */\n      0x1f\n        /* \"#utility.yul\":4680:4685   */\n      dup4\n        /* \"#utility.yul\":4676:4690   */\n      add\n        /* \"#utility.yul\":4672:4700   */\n      and\n        /* \"#utility.yul\":4662:4700   */\n      swap1\n      pop\n        /* \"#utility.yul\":4604:4706   */\n      swap2\n      swap1\n      pop\n      jump\t// out\n        /* \"#utility.yul\":4712:5085   */\n    tag_110:\n        /* \"#utility.yul\":4798:4801   */\n      0x00\n        /* \"#utility.yul\":4826:4864   */\n      tag_177\n        /* \"#utility.yul\":4858:4863   */\n      dup3\n        /* \"#utility.yul\":4826:4864   */\n      tag_106\n      jump\t// in\n    tag_177:\n        /* \"#utility.yul\":4880:4950   */\n      tag_178\n        /* \"#utility.yul\":4943:4949   */\n      dup2\n        /* \"#utility.yul\":4938:4941   */\n      dup6\n        /* \"#utility.yul\":4880:4950   */\n      tag_107\n      jump\t// in\n    tag_178:\n        /* \"#utility.yul\":4873:4950   */\n      swap4\n      pop\n        /* \"#utility.yul\":4959:5024   */\n      tag_179\n        /* \"#utility.yul\":5017:5023   */\n      dup2\n        /* \"#utility.yul\":5012:5015   */\n      dup6\n        /* \"#utility.yul\":5005:5009   */\n      0x20\n        /* \"#utility.yul\":4998:5003   */\n      dup7\n        /* \"#utility.yul\":4994:5010   */\n      add\n        /* \"#utility.yul\":4959:5024   */\n      tag_108\n      jump\t// in\n    tag_179:\n        /* \"#utility.yul\":5049:5078   */\n      tag_180\n        /* \"#utility.yul\":5071:5077   */\n      dup2\n        /* \"#utility.yul\":5049:5078   */\n      tag_109\n      jump\t// in\n    tag_180:\n        /* \"#utility.yul\":5044:5047   */\n      dup5\n        /* \"#utility.yul\":5040:5079   */\n      add\n        /* \"#utility.yul\":5033:5079   */\n      swap2\n      pop\n        /* \"#utility.yul\":4802:5085   */\n      pop\n        /* \"#utility.yul\":4712:5085   */\n      swap3\n      swap2\n      pop\n      pop\n      jump\t// out\n        /* \"#utility.yul\":5091:5400   */\n    tag_55:\n        /* \"#utility.yul\":5202:5206   */\n      0x00\n        /* \"#utility.yul\":5240:5242   */\n      0x20\n        /* \"#utility.yul\":5229:5238   */\n      dup3\n        /* \"#utility.yul\":5225:5243   */\n      add\n        /* \"#utility.yul\":5217:5243   */\n      swap1\n      pop\n        /* \"#utility.yul\":5289:5298   */\n      dup2\n        /* \"#utility.yul\":5283:5287   */\n      dup2\n        /* \"#utility.yul\":5279:5299   */\n      sub\n        /* \"#utility.yul\":5275:5276   */\n      0x00\n        /* \"#utility.yul\":5264:5273   */\n      dup4\n        /* \"#utility.yul\":5260:5277   */\n      add\n        /* \"#utility.yul\":5253:5300   */\n      mstore\n        /* \"#utility.yul\":5317:5393   */\n      tag_182\n        /* \"#utility.yul\":5388:5392   */\n      dup2\n        /* \"#utility.yul\":5379:5385   */\n      dup5\n        /* \"#utility.yul\":5317:5393   */\n      tag_110\n      jump\t// in\n    tag_182:\n        /* \"#utility.yul\":5309:5393   */\n      swap1\n      pop\n        /* \"#utility.yul\":5091:5400   */\n      swap3\n      swap2\n      pop\n      pop\n      jump\t// out\n        /* \"#utility.yul\":5406:5482   */\n    tag_111:\n        /* \"#utility.yul\":5442:5449   */\n      0x00\n        /* \"#utility.yul\":5471:5476   */\n      dup2\n        /* \"#utility.yul\":5460:5476   */\n      swap1\n      pop\n        /* \"#utility.yul\":5406:5482   */\n      swap2\n      swap1\n      pop\n      jump\t// out\n        /* \"#utility.yul\":5488:5603   */\n    tag_112:\n        /* \"#utility.yul\":5573:5596   */\n      tag_185\n        /* \"#utility.yul\":5590:5595   */\n      dup2\n        /* \"#utility.yul\":5573:5596   */\n      tag_111\n      jump\t// in\n    tag_185:\n        /* \"#utility.yul\":5568:5571   */\n      dup3\n        /* \"#utility.yul\":5561:5597   */\n      mstore\n        /* \"#utility.yul\":5488:5603   */\n      pop\n      pop\n      jump\t// out\n        /* \"#utility.yul\":5609:5827   */\n    tag_59:\n        /* \"#utility.yul\":5700:5704   */\n      0x00\n        /* \"#utility.yul\":5738:5740   */\n      0x20\n        /* \"#utility.yul\":5727:5736   */\n      dup3\n        /* \"#utility.yul\":5723:5741   */\n      add\n        /* \"#utility.yul\":5715:5741   */\n      swap1\n      pop\n        /* \"#utility.yul\":5751:5820   */\n      tag_187\n        /* \"#utility.yul\":5817:5818   */\n      0x00\n        /* \"#utility.yul\":5806:5815   */\n      dup4\n        /* \"#utility.yul\":5802:5819   */\n      add\n        /* \"#utility.yul\":5793:5799   */\n      dup5\n        /* \"#utility.yul\":5751:5820   */\n      tag_112\n      jump\t// in\n    tag_187:\n        /* \"#utility.yul\":5609:5827   */\n      swap3\n      swap2\n      pop\n      pop\n      jump\t// out\n        /* \"#utility.yul\":5833:6013   */\n    tag_113:\n        /* \"#utility.yul\":5881:5958   */\n      0x4e487b7100000000000000000000000000000000000000000000000000000000\n        /* \"#utility.yul\":5878:5879   */\n      0x00\n        /* \"#utility.yul\":5871:5959   */\n      mstore\n        /* \"#utility.yul\":5978:5982   */\n      0x21\n        /* \"#utility.yul\":5975:5976   */\n      0x04\n        /* \"#utility.yul\":5968:5983   */\n      mstore\n        /* \"#utility.yul\":6002:6006   */\n      0x24\n        /* \"#utility.yul\":5999:6000   */\n      0x00\n        /* \"#utility.yul\":5992:6007   */\n      revert\n        /* \"#utility.yul\":6019:6133   */\n    tag_114:\n        /* \"#utility.yul\":6101:6102   */\n      0x03\n        /* \"#utility.yul\":6094:6099   */\n      dup2\n        /* \"#utility.yul\":6091:6103   */\n      lt\n        /* \"#utility.yul\":6081:6127   */\n      tag_190\n      jumpi\n        /* \"#utility.yul\":6107:6125   */\n      tag_191\n      tag_113\n      jump\t// in\n    tag_191:\n        /* \"#utility.yul\":6081:6127   */\n    tag_190:\n        /* \"#utility.yul\":6019:6133   */\n      pop\n      jump\t// out\n        /* \"#utility.yul\":6139:6268   */\n    tag_115:\n        /* \"#utility.yul\":6185:6192   */\n      0x00\n        /* \"#utility.yul\":6214:6219   */\n      dup2\n        /* \"#utility.yul\":6203:6219   */\n      swap1\n      pop\n        /* \"#utility.yul\":6220:6262   */\n      tag_193\n        /* \"#utility.yul\":6256:6261   */\n      dup3\n        /* \"#utility.yul\":6220:6262   */\n      tag_114\n      jump\t// in\n    tag_193:\n        /* \"#utility.yul\":6139:6268   */\n      swap2\n      swap1\n      pop\n      jump\t// out\n        /* \"#utility.yul\":6274:6403   */\n    tag_116:\n        /* \"#utility.yul\":6331:6340   */\n      0x00\n        /* \"#utility.yul\":6364:6397   */\n      tag_195\n        /* \"#utility.yul\":6391:6396   */\n      dup3\n        /* \"#utility.yul\":6364:6397   */\n      tag_115\n      jump\t// in\n    tag_195:\n        /* \"#utility.yul\":6351:6397   */\n      swap1\n      pop\n        /* \"#utility.yul\":6274:6403   */\n      swap2\n      swap1\n      pop\n      jump\t// out\n        /* \"#utility.yul\":6409:6554   */\n    tag_117:\n        /* \"#utility.yul\":6503:6547   */\n      tag_197\n        /* \"#utility.yul\":6541:6546   */\n      dup2\n        /* \"#utility.yul\":6503:6547   */\n      tag_116\n      jump\t// in\n    tag_197:\n        /* \"#utility.yul\":6498:6501   */\n      dup3\n        /* \"#utility.yul\":6491:6548   */\n      mstore\n        /* \"#utility.yul\":6409:6554   */\n      pop\n      pop\n      jump\t// out\n        /* \"#utility.yul\":6560:6796   */\n    tag_66:\n        /* \"#utility.yul\":6660:6664   */\n      0x00\n        /* \"#utility.yul\":6698:6700   */\n      0x20\n        /* \"#utility.yul\":6687:6696   */\n      dup3\n        /* \"#utility.yul\":6683:6701   */\n      add\n        /* \"#utility.yul\":6675:6701   */\n      swap1\n      pop\n        /* \"#utility.yul\":6711:6789   */\n      tag_199\n        /* \"#utility.yul\":6786:6787   */\n      0x00\n        /* \"#utility.yul\":6775:6784   */\n      dup4\n        /* \"#utility.yul\":6771:6788   */\n      add\n        /* \"#utility.yul\":6762:6768   */\n      dup5\n        /* \"#utility.yul\":6711:6789   */\n      tag_117\n      jump\t// in\n    tag_199:\n        /* \"#utility.yul\":6560:6796   */\n      swap3\n      swap2\n      pop\n      pop\n      jump\t// out\n        /* \"#utility.yul\":6802:6901   */\n    tag_118:\n        /* \"#utility.yul\":6854:6860   */\n      0x00\n        /* \"#utility.yul\":6888:6893   */\n      dup2\n        /* \"#utility.yul\":6882:6894   */\n      mload\n        /* \"#utility.yul\":6872:6894   */\n      swap1\n      pop\n        /* \"#utility.yul\":6802:6901   */\n      swap2\n      swap1\n      pop\n      jump\t// out\n        /* \"#utility.yul\":6907:7076   */\n    tag_119:\n        /* \"#utility.yul\":6991:7002   */\n      0x00\n        /* \"#utility.yul\":7025:7031   */\n      dup3\n        /* \"#utility.yul\":7020:7023   */\n      dup3\n        /* \"#utility.yul\":7013:7032   */\n      mstore\n        /* \"#utility.yul\":7065:7069   */\n      0x20\n        /* \"#utility.yul\":7060:7063   */\n      dup3\n        /* \"#utility.yul\":7056:7070   */\n      add\n        /* \"#utility.yul\":7041:7070   */\n      swap1\n      pop\n        /* \"#utility.yul\":6907:7076   */\n      swap3\n      swap2\n      pop\n      pop\n      jump\t// out\n        /* \"#utility.yul\":7082:7459   */\n    tag_120:\n        /* \"#utility.yul\":7170:7173   */\n      0x00\n        /* \"#utility.yul\":7198:7237   */\n      tag_203\n        /* \"#utility.yul\":7231:7236   */\n      dup3\n        /* \"#utility.yul\":7198:7237   */\n      tag_118\n      jump\t// in\n    tag_203:\n        /* \"#utility.yul\":7253:7324   */\n      tag_204\n        /* \"#utility.yul\":7317:7323   */\n      dup2\n        /* \"#utility.yul\":7312:7315   */\n      dup6\n        /* \"#utility.yul\":7253:7324   */\n      tag_119\n      jump\t// in\n    tag_204:\n        /* \"#utility.yul\":7246:7324   */\n      swap4\n      pop\n        /* \"#utility.yul\":7333:7398   */\n      tag_205\n        /* \"#utility.yul\":7391:7397   */\n      dup2\n        /* \"#utility.yul\":7386:7389   */\n      dup6\n        /* \"#utility.yul\":7379:7383   */\n      0x20\n        /* \"#utility.yul\":7372:7377   */\n      dup7\n        /* \"#utility.yul\":7368:7384   */\n      add\n        /* \"#utility.yul\":7333:7398   */\n      tag_108\n      jump\t// in\n    tag_205:\n        /* \"#utility.yul\":7423:7452   */\n      tag_206\n        /* \"#utility.yul\":7445:7451   */\n      dup2\n        /* \"#utility.yul\":7423:7452   */\n      tag_109\n      jump\t// in\n    tag_206:\n        /* \"#utility.yul\":7418:7421   */\n      dup5\n        /* \"#utility.yul\":7414:7453   */\n      add\n        /* \"#utility.yul\":7407:7453   */\n      swap2\n      pop\n        /* \"#utility.yul\":7174:7459   */\n      pop\n        /* \"#utility.yul\":7082:7459   */\n      swap3\n      swap2\n      pop\n      pop\n      jump\t// out\n        /* \"#utility.yul\":7465:7778   */\n    tag_70:\n        /* \"#utility.yul\":7578:7582   */\n      0x00\n        /* \"#utility.yul\":7616:7618   */\n      0x20\n        /* \"#utility.yul\":7605:7614   */\n      dup3\n        /* \"#utility.yul\":7601:7619   */\n      add\n        /* \"#utility.yul\":7593:7619   */\n      swap1\n      pop\n        /* \"#utility.yul\":7665:7674   */\n      dup2\n        /* \"#utility.yul\":7659:7663   */\n      dup2\n        /* \"#utility.yul\":7655:7675   */\n      sub\n        /* \"#utility.yul\":7651:7652   */\n      0x00\n        /* \"#utility.yul\":7640:7649   */\n      dup4\n        /* \"#utility.yul\":7636:7653   */\n      add\n        /* \"#utility.yul\":7629:7676   */\n      mstore\n        /* \"#utility.yul\":7693:7771   */\n      tag_208\n        /* \"#utility.yul\":7766:7770   */\n      dup2\n        /* \"#utility.yul\":7757:7763   */\n      dup5\n        /* \"#utility.yul\":7693:7771   */\n      tag_120\n      jump\t// in\n    tag_208:\n        /* \"#utility.yul\":7685:7771   */\n      swap1\n      pop\n        /* \"#utility.yul\":7465:7778   */\n      swap3\n      swap2\n      pop\n      pop\n      jump\t// out\n        /* \"#utility.yul\":7784:7964   */\n    tag_121:\n        /* \"#utility.yul\":7832:7909   */\n      0x4e487b7100000000000000000000000000000000000000000000000000000000\n        /* \"#utility.yul\":7829:7830   */\n      0x00\n        /* \"#utility.yul\":7822:7910   */\n      mstore\n        /* \"#utility.yul\":7929:7933   */\n      0x22\n        /* \"#utility.yul\":7926:7927   */\n      0x04\n        /* \"#utility.yul\":7919:7934   */\n      mstore\n        /* \"#utility.yul\":7953:7957   */\n      0x24\n        /* \"#utility.yul\":7950:7951   */\n      0x00\n        /* \"#utility.yul\":7943:7958   */\n      revert\n        /* \"#utility.yul\":7970:8290   */\n    tag_76:\n        /* \"#utility.yul\":8014:8020   */\n      0x00\n        /* \"#utility.yul\":8051:8052   */\n      0x02\n        /* \"#utility.yul\":8045:8049   */\n      dup3\n        /* \"#utility.yul\":8041:8053   */\n      div\n        /* \"#utility.yul\":8031:8053   */\n      swap1\n      pop\n        /* \"#utility.yul\":8098:8099   */\n      0x01\n        /* \"#utility.yul\":8092:8096   */\n      dup3\n        /* \"#utility.yul\":8088:8100   */\n      and\n        /* \"#utility.yul\":8119:8137   */\n      dup1\n        /* \"#utility.yul\":8109:8190   */\n      tag_211\n      jumpi\n        /* \"#utility.yul\":8175:8179   */\n      0x7f\n        /* \"#utility.yul\":8167:8173   */\n      dup3\n        /* \"#utility.yul\":8163:8180   */\n      and\n        /* \"#utility.yul\":8153:8180   */\n      swap2\n      pop\n        /* \"#utility.yul\":8109:8190   */\n    tag_211:\n        /* \"#utility.yul\":8237:8239   */\n      0x20\n        /* \"#utility.yul\":8229:8235   */\n      dup3\n        /* \"#utility.yul\":8226:8240   */\n      lt\n        /* \"#utility.yul\":8206:8224   */\n      dup2\n        /* \"#utility.yul\":8203:8241   */\n      sub\n        /* \"#utility.yul\":8200:8284   */\n      tag_212\n      jumpi\n        /* \"#utility.yul\":8256:8274   */\n      tag_213\n      tag_121\n      jump\t// in\n    tag_213:\n        /* \"#utility.yul\":8200:8284   */\n    tag_212:\n        /* \"#utility.yul\":8021:8290   */\n      pop\n        /* \"#utility.yul\":7970:8290   */\n      swap2\n      swap1\n      pop\n      jump\t// out\n\n    auxdata: 0xa26469706673582212207c2c8689f6066f933bbd013c36fdf8c81564212293995fef20192b90c0f415e364736f6c63430008230033\n}\n",
				"bytecode": {
					"linkReferences": {},
					"object": "608060405260015f5f6101000a81548160ff02191690831515021790555060ff5f60016101000a81548160ff021916908360ff16021790555060166001557ffffffffffffffffffffffffffffffffffffffffffffffffffffffffffffffff660025f6101000a81548160ff02191690835f0b60ff160217905550614e20600355737ed04ef0c2dc4952d63088ce60f514089ff3383b60045f6101000a81548173ffffffffffffffffffffffffffffffffffffffff021916908373ffffffffffffffffffffffffffffffffffffffff16021790555060ff60f81b600460146101000a81548160ff021916908360f81c02179055507f74686973497352616a4d697368726100000000000000000000000000000000006005556040518060400160405280600a81526020017f52616a204d6973687261000000000000000000000000000000000000000000008152506007908161015a9190610435565b506040518060400160405280600581526020017f68656c6c6f0000000000000000000000000000000000000000000000000000008152506008908161019f9190610569565b506040518060600160405280600a60ff168152602001601460ff168152602001601e60ff16815250600990816101d59190610727565b503480156101e1575f5ffd5b506107ab565b5f81519050919050565b7f4e487b71000000000000000000000000000000000000000000000000000000005f52604160045260245ffd5b7f4e487b71000000000000000000000000000000000000000000000000000000005f52602260045260245ffd5b5f600282049050600182168061026257607f821691505b6020821081036102755761027461021e565b5b50919050565b5f819050815f5260205f209050919050565b5f6020601f8301049050919050565b5f82821b905092915050565b5f600883026102d77fffffffffffffffffffffffffffffffffffffffffffffffffffffffffffffffff8261029c565b6102e1868361029c565b95508019841693508086168417925050509392505050565b5f819050919050565b5f819050919050565b5f61032561032061031b846102f9565b610302565b6102f9565b9050919050565b5f819050919050565b61033e8361030b565b61035261034a8261032c565b8484546102a8565b825550505050565b5f5f905090565b61036961035a565b610374818484610335565b505050565b5f5b8281101561039a5761038f5f828401610361565b60018101905061037b565b505050565b601f8211156103ed57828211156103ec576103b98161027b565b6103c28361028d565b6103cb8561028d565b60208610156103d8575f90505b8083016103e782840382610379565b505050505b5b505050565b5f82821c905092915050565b5f61040d5f19846008026103f2565b1980831691505092915050565b5f61042583836103fe565b9150826002028217905092915050565b61043e826101e7565b67ffffffffffffffff811115610457576104566101f1565b5b610461825461024b565b61046c82828561039f565b5f60209050601f83116001811461049d575f841561048b578287015190505b610495858261041a565b8655506104fc565b601f1984166104ab8661027b565b5f5b828110156104d2578489015182556001820191506020850194506020810190506104ad565b868310156104ef57848901516104eb601f8916826103fe565b8355505b6001600288020188555050505b505050505050565b5f819050815f5260205f209050919050565b601f82111561056457828211156105635761053081610504565b6105398361028d565b6105428561028d565b602086101561054f575f90505b80830161055e82840382610379565b505050505b5b505050565b610572826101e7565b67ffffffffffffffff81111561058b5761058a6101f1565b5b610595825461024b565b6105a0828285610516565b5f60209050601f8311600181146105d1575f84156105bf578287015190505b6105c9858261041a565b865550610630565b601f1984166105df86610504565b5f5b82811015610606578489015182556001820191506020850194506020810190506105e1565b86831015610623578489015161061f601f8916826103fe565b8355505b6001600288020188555050505b505050505050565b5f60039050919050565b5f8190506001806001038301049050919050565b5f819050919050565b5f5b82811015610680576106755f828401610361565b600181019050610661565b505050565b818310156106bc5761069682610642565b61069f84610642565b6106a883610656565b8181016106b78385038261065f565b505050505b505050565b680100000000000000008211156106db576106da6101f1565b5b6106e481610638565b6106ef838284610685565b505050565b5f60039050919050565b5f60ff82169050919050565b5f61071582516106fe565b80915050919050565b5f819050919050565b610730826106f4565b67ffffffffffffffff811115610749576107486101f1565b5b61075381836106c1565b61075c8361071e565b61076583610656565b600183045f5b818110156107a2575f61077d8561070a565b6107868161032c565b809250602087019650505080828501555060018101905061076b565b50505050505050565b6108ae806107b85f395ff3fe608060405234801561000f575f5ffd5b50600436106100cd575f3560e01c8063adccea121161008a578063ce845d1d11610064578063ce845d1d14610203578063e1b0385f14610221578063ef8a92351461023f578063fae2dd4b1461025d576100cd565b8063adccea1214610197578063ccec1980146101b5578063cdd1897a146101e5576100cd565b80630de296ed146100d157806326b85ee1146100ef5780632b92b8e51461010d578063313b277d1461012b5780636670cde01461015b57806385c3c41114610179575b5f5ffd5b6100d961027b565b6040516100e69190610496565b60405180910390f35b6100f761028e565b60405161010491906104ee565b60405180910390f35b6101156102b3565b604051610122919061051f565b60405180910390f35b6101456004803603810190610140919061056f565b6102b9565b60405161015291906105a9565b60405180910390f35b6101636102d2565b60405161017091906105dd565b60405180910390f35b6101816102e4565b60405161018e9190610610565b60405180910390f35b61019f6102f5565b6040516101ac9190610643565b60405180910390f35b6101cf60048036038101906101ca919061056f565b610306565b6040516101dc91906105a9565b60405180910390f35b6101ed610326565b6040516101fa91906106cc565b60405180910390f35b61020b6103b2565b6040516102189190610704565b60405180910390f35b6102296103b8565b60405161023691906105a9565b60405180910390f35b6102476103be565b6040516102549190610790565b60405180910390f35b6102656103d0565b60405161027291906107fb565b60405180910390f35b600460149054906101000a900460f81b81565b60045f9054906101000a900473ffffffffffffffffffffffffffffffffffffffff1681565b60055481565b600981600381106102c8575f80fd5b015f915090505481565b5f60019054906101000a900460ff1681565b5f5f9054906101000a900460ff1681565b60025f9054906101000a90045f0b81565b600c8181548110610315575f80fd5b905f5260205f20015f915090505481565b6008805461033390610848565b80601f016020809104026020016040519081016040528092919081815260200182805461035f90610848565b80156103aa5780601f10610381576101008083540402835291602001916103aa565b820191905f5260205f20905b81548152906001019060200180831161038d57829003601f168201915b505050505081565b60035481565b60015481565b60065f9054906101000a900460ff1681565b600780546103dd90610848565b80601f016020809104026020016040519081016040528092919081815260200182805461040990610848565b80156104545780601f1061042b57610100808354040283529160200191610454565b820191905f5260205f20905b81548152906001019060200180831161043757829003601f168201915b505050505081565b5f7fff0000000000000000000000000000000000000000000000000000000000000082169050919050565b6104908161045c565b82525050565b5f6020820190506104a95f830184610487565b92915050565b5f73ffffffffffffffffffffffffffffffffffffffff82169050919050565b5f6104d8826104af565b9050919050565b6104e8816104ce565b82525050565b5f6020820190506105015f8301846104df565b92915050565b5f819050919050565b61051981610507565b82525050565b5f6020820190506105325f830184610510565b92915050565b5f5ffd5b5f819050919050565b61054e8161053c565b8114610558575f5ffd5b50565b5f8135905061056981610545565b92915050565b5f6020828403121561058457610583610538565b5b5f6105918482850161055b565b91505092915050565b6105a38161053c565b82525050565b5f6020820190506105bc5f83018461059a565b92915050565b5f60ff82169050919050565b6105d7816105c2565b82525050565b5f6020820190506105f05f8301846105ce565b92915050565b5f8115159050919050565b61060a816105f6565b82525050565b5f6020820190506106235f830184610601565b92915050565b5f815f0b9050919050565b61063d81610629565b82525050565b5f6020820190506106565f830184610634565b92915050565b5f81519050919050565b5f82825260208201905092915050565b8281835e5f83830152505050565b5f601f19601f8301169050919050565b5f61069e8261065c565b6106a88185610666565b93506106b8818560208601610676565b6106c181610684565b840191505092915050565b5f6020820190508181035f8301526106e48184610694565b905092915050565b5f819050919050565b6106fe816106ec565b82525050565b5f6020820190506107175f8301846106f5565b92915050565b7f4e487b71000000000000000000000000000000000000000000000000000000005f52602160045260245ffd5b6003811061075b5761075a61071d565b5b50565b5f81905061076b8261074a565b919050565b5f61077a8261075e565b9050919050565b61078a81610770565b82525050565b5f6020820190506107a35f830184610781565b92915050565b5f81519050919050565b5f82825260208201905092915050565b5f6107cd826107a9565b6107d781856107b3565b93506107e7818560208601610676565b6107f081610684565b840191505092915050565b5f6020820190508181035f83015261081381846107c3565b905092915050565b7f4e487b71000000000000000000000000000000000000000000000000000000005f52602260045260245ffd5b5f600282049050600182168061085f57607f821691505b6020821081036108725761087161081b565b5b5091905056fea26469706673582212207c2c8689f6066f933bbd013c36fdf8c81564212293995fef20192b90c0f415e364736f6c63430008230033",
					"opcodes": "PUSH1 0x80 PUSH1 0x40 MSTORE PUSH1 0x1 PUSH0 PUSH0 PUSH2 0x100 EXP DUP2 SLOAD DUP2 PUSH1 0xFF MUL NOT AND SWAP1 DUP4 ISZERO ISZERO MUL OR SWAP1 SSTORE POP PUSH1 0xFF PUSH0 PUSH1 0x1 PUSH2 0x100 EXP DUP2 SLOAD DUP2 PUSH1 0xFF MUL NOT AND SWAP1 DUP4 PUSH1 0xFF AND MUL OR SWAP1 SSTORE POP PUSH1 0x16 PUSH1 0x1 SSTORE PUSH32 0xFFFFFFFFFFFFFFFFFFFFFFFFFFFFFFFFFFFFFFFFFFFFFFFFFFFFFFFFFFFFFFF6 PUSH1 0x2 PUSH0 PUSH2 0x100 EXP DUP2 SLOAD DUP2 PUSH1 0xFF MUL NOT AND SWAP1 DUP4 PUSH0 SIGNEXTEND PUSH1 0xFF AND MUL OR SWAP1 SSTORE POP PUSH2 0x4E20 PUSH1 0x3 SSTORE PUSH20 0x7ED04EF0C2DC4952D63088CE60F514089FF3383B PUSH1 0x4 PUSH0 PUSH2 0x100 EXP DUP2 SLOAD DUP2 PUSH20 0xFFFFFFFFFFFFFFFFFFFFFFFFFFFFFFFFFFFFFFFF MUL NOT AND SWAP1 DUP4 PUSH20 0xFFFFFFFFFFFFFFFFFFFFFFFFFFFFFFFFFFFFFFFF AND MUL OR SWAP1 SSTORE POP PUSH1 0xFF PUSH1 0xF8 SHL PUSH1 0x4 PUSH1 0x14 PUSH2 0x100 EXP DUP2 SLOAD DUP2 PUSH1 0xFF MUL NOT AND SWAP1 DUP4 PUSH1 0xF8 SHR MUL OR SWAP1 SSTORE POP PUSH32 0x74686973497352616A4D69736872610000000000000000000000000000000000 PUSH1 0x5 SSTORE PUSH1 0x40 MLOAD DUP1 PUSH1 0x40 ADD PUSH1 0x40 MSTORE DUP1 PUSH1 0xA DUP2 MSTORE PUSH1 0x20 ADD PUSH32 0x52616A204D697368726100000000000000000000000000000000000000000000 DUP2 MSTORE POP PUSH1 0x7 SWAP1 DUP2 PUSH2 0x15A SWAP2 SWAP1 PUSH2 0x435 JUMP JUMPDEST POP PUSH1 0x40 MLOAD DUP1 PUSH1 0x40 ADD PUSH1 0x40 MSTORE DUP1 PUSH1 0x5 DUP2 MSTORE PUSH1 0x20 ADD PUSH32 0x68656C6C6F000000000000000000000000000000000000000000000000000000 DUP2 MSTORE POP PUSH1 0x8 SWAP1 DUP2 PUSH2 0x19F SWAP2 SWAP1 PUSH2 0x569 JUMP JUMPDEST POP PUSH1 0x40 MLOAD DUP1 PUSH1 0x60 ADD PUSH1 0x40 MSTORE DUP1 PUSH1 0xA PUSH1 0xFF AND DUP2 MSTORE PUSH1 0x20 ADD PUSH1 0x14 PUSH1 0xFF AND DUP2 MSTORE PUSH1 0x20 ADD PUSH1 0x1E PUSH1 0xFF AND DUP2 MSTORE POP PUSH1 0x9 SWAP1 DUP2 PUSH2 0x1D5 SWAP2 SWAP1 PUSH2 0x727 JUMP JUMPDEST POP CALLVALUE DUP1 ISZERO PUSH2 0x1E1 JUMPI PUSH0 PUSH0 REVERT JUMPDEST POP PUSH2 0x7AB JUMP JUMPDEST PUSH0 DUP2 MLOAD SWAP1 POP SWAP2 SWAP1 POP JUMP JUMPDEST PUSH32 0x4E487B7100000000000000000000000000000000000000000000000000000000 PUSH0 MSTORE PUSH1 0x41 PUSH1 0x4 MSTORE PUSH1 0x24 PUSH0 REVERT JUMPDEST PUSH32 0x4E487B7100000000000000000000000000000000000000000000000000000000 PUSH0 MSTORE PUSH1 0x22 PUSH1 0x4 MSTORE PUSH1 0x24 PUSH0 REVERT JUMPDEST PUSH0 PUSH1 0x2 DUP3 DIV SWAP1 POP PUSH1 0x1 DUP3 AND DUP1 PUSH2 0x262 JUMPI PUSH1 0x7F DUP3 AND SWAP2 POP JUMPDEST PUSH1 0x20 DUP3 LT DUP2 SUB PUSH2 0x275 JUMPI PUSH2 0x274 PUSH2 0x21E JUMP JUMPDEST JUMPDEST POP SWAP2 SWAP1 POP JUMP JUMPDEST PUSH0 DUP2 SWAP1 POP DUP2 PUSH0 MSTORE PUSH1 0x20 PUSH0 KECCAK256 SWAP1 POP SWAP2 SWAP1 POP JUMP JUMPDEST PUSH0 PUSH1 0x20 PUSH1 0x1F DUP4 ADD DIV SWAP1 POP SWAP2 SWAP1 POP JUMP JUMPDEST PUSH0 DUP3 DUP3 SHL SWAP1 POP SWAP3 SWAP2 POP POP JUMP JUMPDEST PUSH0 PUSH1 0x8 DUP4 MUL PUSH2 0x2D7 PUSH32 0xFFFFFFFFFFFFFFFFFFFFFFFFFFFFFFFFFFFFFFFFFFFFFFFFFFFFFFFFFFFFFFFF DUP3 PUSH2 0x29C JUMP JUMPDEST PUSH2 0x2E1 DUP7 DUP4 PUSH2 0x29C JUMP JUMPDEST SWAP6 POP DUP1 NOT DUP5 AND SWAP4 POP DUP1 DUP7 AND DUP5 OR SWAP3 POP POP POP SWAP4 SWAP3 POP POP POP JUMP JUMPDEST PUSH0 DUP2 SWAP1 POP SWAP2 SWAP1 POP JUMP JUMPDEST PUSH0 DUP2 SWAP1 POP SWAP2 SWAP1 POP JUMP JUMPDEST PUSH0 PUSH2 0x325 PUSH2 0x320 PUSH2 0x31B DUP5 PUSH2 0x2F9 JUMP JUMPDEST PUSH2 0x302 JUMP JUMPDEST PUSH2 0x2F9 JUMP JUMPDEST SWAP1 POP SWAP2 SWAP1 POP JUMP JUMPDEST PUSH0 DUP2 SWAP1 POP SWAP2 SWAP1 POP JUMP JUMPDEST PUSH2 0x33E DUP4 PUSH2 0x30B JUMP JUMPDEST PUSH2 0x352 PUSH2 0x34A DUP3 PUSH2 0x32C JUMP JUMPDEST DUP5 DUP5 SLOAD PUSH2 0x2A8 JUMP JUMPDEST DUP3 SSTORE POP POP POP POP JUMP JUMPDEST PUSH0 PUSH0 SWAP1 POP SWAP1 JUMP JUMPDEST PUSH2 0x369 PUSH2 0x35A JUMP JUMPDEST PUSH2 0x374 DUP2 DUP5 DUP5 PUSH2 0x335 JUMP JUMPDEST POP POP POP JUMP JUMPDEST PUSH0 JUMPDEST DUP3 DUP2 LT ISZERO PUSH2 0x39A JUMPI PUSH2 0x38F PUSH0 DUP3 DUP5 ADD PUSH2 0x361 JUMP JUMPDEST PUSH1 0x1 DUP2 ADD SWAP1 POP PUSH2 0x37B JUMP JUMPDEST POP POP POP JUMP JUMPDEST PUSH1 0x1F DUP3 GT ISZERO PUSH2 0x3ED JUMPI DUP3 DUP3 GT ISZERO PUSH2 0x3EC JUMPI PUSH2 0x3B9 DUP2 PUSH2 0x27B JUMP JUMPDEST PUSH2 0x3C2 DUP4 PUSH2 0x28D JUMP JUMPDEST PUSH2 0x3CB DUP6 PUSH2 0x28D JUMP JUMPDEST PUSH1 0x20 DUP7 LT ISZERO PUSH2 0x3D8 JUMPI PUSH0 SWAP1 POP JUMPDEST DUP1 DUP4 ADD PUSH2 0x3E7 DUP3 DUP5 SUB DUP3 PUSH2 0x379 JUMP JUMPDEST POP POP POP POP JUMPDEST JUMPDEST POP POP POP JUMP JUMPDEST PUSH0 DUP3 DUP3 SHR SWAP1 POP SWAP3 SWAP2 POP POP JUMP JUMPDEST PUSH0 PUSH2 0x40D PUSH0 NOT DUP5 PUSH1 0x8 MUL PUSH2 0x3F2 JUMP JUMPDEST NOT DUP1 DUP4 AND SWAP2 POP POP SWAP3 SWAP2 POP POP JUMP JUMPDEST PUSH0 PUSH2 0x425 DUP4 DUP4 PUSH2 0x3FE JUMP JUMPDEST SWAP2 POP DUP3 PUSH1 0x2 MUL DUP3 OR SWAP1 POP SWAP3 SWAP2 POP POP JUMP JUMPDEST PUSH2 0x43E DUP3 PUSH2 0x1E7 JUMP JUMPDEST PUSH8 0xFFFFFFFFFFFFFFFF DUP2 GT ISZERO PUSH2 0x457 JUMPI PUSH2 0x456 PUSH2 0x1F1 JUMP JUMPDEST JUMPDEST PUSH2 0x461 DUP3 SLOAD PUSH2 0x24B JUMP JUMPDEST PUSH2 0x46C DUP3 DUP3 DUP6 PUSH2 0x39F JUMP JUMPDEST PUSH0 PUSH1 0x20 SWAP1 POP PUSH1 0x1F DUP4 GT PUSH1 0x1 DUP2 EQ PUSH2 0x49D JUMPI PUSH0 DUP5 ISZERO PUSH2 0x48B JUMPI DUP3 DUP8 ADD MLOAD SWAP1 POP JUMPDEST PUSH2 0x495 DUP6 DUP3 PUSH2 0x41A JUMP JUMPDEST DUP7 SSTORE POP PUSH2 0x4FC JUMP JUMPDEST PUSH1 0x1F NOT DUP5 AND PUSH2 0x4AB DUP7 PUSH2 0x27B JUMP JUMPDEST PUSH0 JUMPDEST DUP3 DUP2 LT ISZERO PUSH2 0x4D2 JUMPI DUP5 DUP10 ADD MLOAD DUP3 SSTORE PUSH1 0x1 DUP3 ADD SWAP2 POP PUSH1 0x20 DUP6 ADD SWAP5 POP PUSH1 0x20 DUP2 ADD SWAP1 POP PUSH2 0x4AD JUMP JUMPDEST DUP7 DUP4 LT ISZERO PUSH2 0x4EF JUMPI DUP5 DUP10 ADD MLOAD PUSH2 0x4EB PUSH1 0x1F DUP10 AND DUP3 PUSH2 0x3FE JUMP JUMPDEST DUP4 SSTORE POP JUMPDEST PUSH1 0x1 PUSH1 0x2 DUP9 MUL ADD DUP9 SSTORE POP POP POP JUMPDEST POP POP POP POP POP POP JUMP JUMPDEST PUSH0 DUP2 SWAP1 POP DUP2 PUSH0 MSTORE PUSH1 0x20 PUSH0 KECCAK256 SWAP1 POP SWAP2 SWAP1 POP JUMP JUMPDEST PUSH1 0x1F DUP3 GT ISZERO PUSH2 0x564 JUMPI DUP3 DUP3 GT ISZERO PUSH2 0x563 JUMPI PUSH2 0x530 DUP2 PUSH2 0x504 JUMP JUMPDEST PUSH2 0x539 DUP4 PUSH2 0x28D JUMP JUMPDEST PUSH2 0x542 DUP6 PUSH2 0x28D JUMP JUMPDEST PUSH1 0x20 DUP7 LT ISZERO PUSH2 0x54F JUMPI PUSH0 SWAP1 POP JUMPDEST DUP1 DUP4 ADD PUSH2 0x55E DUP3 DUP5 SUB DUP3 PUSH2 0x379 JUMP JUMPDEST POP POP POP POP JUMPDEST JUMPDEST POP POP POP JUMP JUMPDEST PUSH2 0x572 DUP3 PUSH2 0x1E7 JUMP JUMPDEST PUSH8 0xFFFFFFFFFFFFFFFF DUP2 GT ISZERO PUSH2 0x58B JUMPI PUSH2 0x58A PUSH2 0x1F1 JUMP JUMPDEST JUMPDEST PUSH2 0x595 DUP3 SLOAD PUSH2 0x24B JUMP JUMPDEST PUSH2 0x5A0 DUP3 DUP3 DUP6 PUSH2 0x516 JUMP JUMPDEST PUSH0 PUSH1 0x20 SWAP1 POP PUSH1 0x1F DUP4 GT PUSH1 0x1 DUP2 EQ PUSH2 0x5D1 JUMPI PUSH0 DUP5 ISZERO PUSH2 0x5BF JUMPI DUP3 DUP8 ADD MLOAD SWAP1 POP JUMPDEST PUSH2 0x5C9 DUP6 DUP3 PUSH2 0x41A JUMP JUMPDEST DUP7 SSTORE POP PUSH2 0x630 JUMP JUMPDEST PUSH1 0x1F NOT DUP5 AND PUSH2 0x5DF DUP7 PUSH2 0x504 JUMP JUMPDEST PUSH0 JUMPDEST DUP3 DUP2 LT ISZERO PUSH2 0x606 JUMPI DUP5 DUP10 ADD MLOAD DUP3 SSTORE PUSH1 0x1 DUP3 ADD SWAP2 POP PUSH1 0x20 DUP6 ADD SWAP5 POP PUSH1 0x20 DUP2 ADD SWAP1 POP PUSH2 0x5E1 JUMP JUMPDEST DUP7 DUP4 LT ISZERO PUSH2 0x623 JUMPI DUP5 DUP10 ADD MLOAD PUSH2 0x61F PUSH1 0x1F DUP10 AND DUP3 PUSH2 0x3FE JUMP JUMPDEST DUP4 SSTORE POP JUMPDEST PUSH1 0x1 PUSH1 0x2 DUP9 MUL ADD DUP9 SSTORE POP POP POP JUMPDEST POP POP POP POP POP POP JUMP JUMPDEST PUSH0 PUSH1 0x3 SWAP1 POP SWAP2 SWAP1 POP JUMP JUMPDEST PUSH0 DUP2 SWAP1 POP PUSH1 0x1 DUP1 PUSH1 0x1 SUB DUP4 ADD DIV SWAP1 POP SWAP2 SWAP1 POP JUMP JUMPDEST PUSH0 DUP2 SWAP1 POP SWAP2 SWAP1 POP JUMP JUMPDEST PUSH0 JUMPDEST DUP3 DUP2 LT ISZERO PUSH2 0x680 JUMPI PUSH2 0x675 PUSH0 DUP3 DUP5 ADD PUSH2 0x361 JUMP JUMPDEST PUSH1 0x1 DUP2 ADD SWAP1 POP PUSH2 0x661 JUMP JUMPDEST POP POP POP JUMP JUMPDEST DUP2 DUP4 LT ISZERO PUSH2 0x6BC JUMPI PUSH2 0x696 DUP3 PUSH2 0x642 JUMP JUMPDEST PUSH2 0x69F DUP5 PUSH2 0x642 JUMP JUMPDEST PUSH2 0x6A8 DUP4 PUSH2 0x656 JUMP JUMPDEST DUP2 DUP2 ADD PUSH2 0x6B7 DUP4 DUP6 SUB DUP3 PUSH2 0x65F JUMP JUMPDEST POP POP POP POP JUMPDEST POP POP POP JUMP JUMPDEST PUSH9 0x10000000000000000 DUP3 GT ISZERO PUSH2 0x6DB JUMPI PUSH2 0x6DA PUSH2 0x1F1 JUMP JUMPDEST JUMPDEST PUSH2 0x6E4 DUP2 PUSH2 0x638 JUMP JUMPDEST PUSH2 0x6EF DUP4 DUP3 DUP5 PUSH2 0x685 JUMP JUMPDEST POP POP POP JUMP JUMPDEST PUSH0 PUSH1 0x3 SWAP1 POP SWAP2 SWAP1 POP JUMP JUMPDEST PUSH0 PUSH1 0xFF DUP3 AND SWAP1 POP SWAP2 SWAP1 POP JUMP JUMPDEST PUSH0 PUSH2 0x715 DUP3 MLOAD PUSH2 0x6FE JUMP JUMPDEST DUP1 SWAP2 POP POP SWAP2 SWAP1 POP JUMP JUMPDEST PUSH0 DUP2 SWAP1 POP SWAP2 SWAP1 POP JUMP JUMPDEST PUSH2 0x730 DUP3 PUSH2 0x6F4 JUMP JUMPDEST PUSH8 0xFFFFFFFFFFFFFFFF DUP2 GT ISZERO PUSH2 0x749 JUMPI PUSH2 0x748 PUSH2 0x1F1 JUMP JUMPDEST JUMPDEST PUSH2 0x753 DUP2 DUP4 PUSH2 0x6C1 JUMP JUMPDEST PUSH2 0x75C DUP4 PUSH2 0x71E JUMP JUMPDEST PUSH2 0x765 DUP4 PUSH2 0x656 JUMP JUMPDEST PUSH1 0x1 DUP4 DIV PUSH0 JUMPDEST DUP2 DUP2 LT ISZERO PUSH2 0x7A2 JUMPI PUSH0 PUSH2 0x77D DUP6 PUSH2 0x70A JUMP JUMPDEST PUSH2 0x786 DUP2 PUSH2 0x32C JUMP JUMPDEST DUP1 SWAP3 POP PUSH1 0x20 DUP8 ADD SWAP7 POP POP POP DUP1 DUP3 DUP6 ADD SSTORE POP PUSH1 0x1 DUP2 ADD SWAP1 POP PUSH2 0x76B JUMP JUMPDEST POP POP POP POP POP POP POP JUMP JUMPDEST PUSH2 0x8AE DUP1 PUSH2 0x7B8 PUSH0 CODECOPY PUSH0 RETURN INVALID PUSH1 0x80 PUSH1 0x40 MSTORE CALLVALUE DUP1 ISZERO PUSH2 0xF JUMPI PUSH0 PUSH0 REVERT JUMPDEST POP PUSH1 0x4 CALLDATASIZE LT PUSH2 0xCD JUMPI PUSH0 CALLDATALOAD PUSH1 0xE0 SHR DUP1 PUSH4 0xADCCEA12 GT PUSH2 0x8A JUMPI DUP1 PUSH4 0xCE845D1D GT PUSH2 0x64 JUMPI DUP1 PUSH4 0xCE845D1D EQ PUSH2 0x203 JUMPI DUP1 PUSH4 0xE1B0385F EQ PUSH2 0x221 JUMPI DUP1 PUSH4 0xEF8A9235 EQ PUSH2 0x23F JUMPI DUP1 PUSH4 0xFAE2DD4B EQ PUSH2 0x25D JUMPI PUSH2 0xCD JUMP JUMPDEST DUP1 PUSH4 0xADCCEA12 EQ PUSH2 0x197 JUMPI DUP1 PUSH4 0xCCEC1980 EQ PUSH2 0x1B5 JUMPI DUP1 PUSH4 0xCDD1897A EQ PUSH2 0x1E5 JUMPI PUSH2 0xCD JUMP JUMPDEST DUP1 PUSH4 0xDE296ED EQ PUSH2 0xD1 JUMPI DUP1 PUSH4 0x26B85EE1 EQ PUSH2 0xEF JUMPI DUP1 PUSH4 0x2B92B8E5 EQ PUSH2 0x10D JUMPI DUP1 PUSH4 0x313B277D EQ PUSH2 0x12B JUMPI DUP1 PUSH4 0x6670CDE0 EQ PUSH2 0x15B JUMPI DUP1 PUSH4 0x85C3C411 EQ PUSH2 0x179 JUMPI JUMPDEST PUSH0 PUSH0 REVERT JUMPDEST PUSH2 0xD9 PUSH2 0x27B JUMP JUMPDEST PUSH1 0x40 MLOAD PUSH2 0xE6 SWAP2 SWAP1 PUSH2 0x496 JUMP JUMPDEST PUSH1 0x40 MLOAD DUP1 SWAP2 SUB SWAP1 RETURN JUMPDEST PUSH2 0xF7 PUSH2 0x28E JUMP JUMPDEST PUSH1 0x40 MLOAD PUSH2 0x104 SWAP2 SWAP1 PUSH2 0x4EE JUMP JUMPDEST PUSH1 0x40 MLOAD DUP1 SWAP2 SUB SWAP1 RETURN JUMPDEST PUSH2 0x115 PUSH2 0x2B3 JUMP JUMPDEST PUSH1 0x40 MLOAD PUSH2 0x122 SWAP2 SWAP1 PUSH2 0x51F JUMP JUMPDEST PUSH1 0x40 MLOAD DUP1 SWAP2 SUB SWAP1 RETURN JUMPDEST PUSH2 0x145 PUSH1 0x4 DUP1 CALLDATASIZE SUB DUP2 ADD SWAP1 PUSH2 0x140 SWAP2 SWAP1 PUSH2 0x56F JUMP JUMPDEST PUSH2 0x2B9 JUMP JUMPDEST PUSH1 0x40 MLOAD PUSH2 0x152 SWAP2 SWAP1 PUSH2 0x5A9 JUMP JUMPDEST PUSH1 0x40 MLOAD DUP1 SWAP2 SUB SWAP1 RETURN JUMPDEST PUSH2 0x163 PUSH2 0x2D2 JUMP JUMPDEST PUSH1 0x40 MLOAD PUSH2 0x170 SWAP2 SWAP1 PUSH2 0x5DD JUMP JUMPDEST PUSH1 0x40 MLOAD DUP1 SWAP2 SUB SWAP1 RETURN JUMPDEST PUSH2 0x181 PUSH2 0x2E4 JUMP JUMPDEST PUSH1 0x40 MLOAD PUSH2 0x18E SWAP2 SWAP1 PUSH2 0x610 JUMP JUMPDEST PUSH1 0x40 MLOAD DUP1 SWAP2 SUB SWAP1 RETURN JUMPDEST PUSH2 0x19F PUSH2 0x2F5 JUMP JUMPDEST PUSH1 0x40 MLOAD PUSH2 0x1AC SWAP2 SWAP1 PUSH2 0x643 JUMP JUMPDEST PUSH1 0x40 MLOAD DUP1 SWAP2 SUB SWAP1 RETURN JUMPDEST PUSH2 0x1CF PUSH1 0x4 DUP1 CALLDATASIZE SUB DUP2 ADD SWAP1 PUSH2 0x1CA SWAP2 SWAP1 PUSH2 0x56F JUMP JUMPDEST PUSH2 0x306 JUMP JUMPDEST PUSH1 0x40 MLOAD PUSH2 0x1DC SWAP2 SWAP1 PUSH2 0x5A9 JUMP JUMPDEST PUSH1 0x40 MLOAD DUP1 SWAP2 SUB SWAP1 RETURN JUMPDEST PUSH2 0x1ED PUSH2 0x326 JUMP JUMPDEST PUSH1 0x40 MLOAD PUSH2 0x1FA SWAP2 SWAP1 PUSH2 0x6CC JUMP JUMPDEST PUSH1 0x40 MLOAD DUP1 SWAP2 SUB SWAP1 RETURN JUMPDEST PUSH2 0x20B PUSH2 0x3B2 JUMP JUMPDEST PUSH1 0x40 MLOAD PUSH2 0x218 SWAP2 SWAP1 PUSH2 0x704 JUMP JUMPDEST PUSH1 0x40 MLOAD DUP1 SWAP2 SUB SWAP1 RETURN JUMPDEST PUSH2 0x229 PUSH2 0x3B8 JUMP JUMPDEST PUSH1 0x40 MLOAD PUSH2 0x236 SWAP2 SWAP1 PUSH2 0x5A9 JUMP JUMPDEST PUSH1 0x40 MLOAD DUP1 SWAP2 SUB SWAP1 RETURN JUMPDEST PUSH2 0x247 PUSH2 0x3BE JUMP JUMPDEST PUSH1 0x40 MLOAD PUSH2 0x254 SWAP2 SWAP1 PUSH2 0x790 JUMP JUMPDEST PUSH1 0x40 MLOAD DUP1 SWAP2 SUB SWAP1 RETURN JUMPDEST PUSH2 0x265 PUSH2 0x3D0 JUMP JUMPDEST PUSH1 0x40 MLOAD PUSH2 0x272 SWAP2 SWAP1 PUSH2 0x7FB JUMP JUMPDEST PUSH1 0x40 MLOAD DUP1 SWAP2 SUB SWAP1 RETURN JUMPDEST PUSH1 0x4 PUSH1 0x14 SWAP1 SLOAD SWAP1 PUSH2 0x100 EXP SWAP1 DIV PUSH1 0xF8 SHL DUP2 JUMP JUMPDEST PUSH1 0x4 PUSH0 SWAP1 SLOAD SWAP1 PUSH2 0x100 EXP SWAP1 DIV PUSH20 0xFFFFFFFFFFFFFFFFFFFFFFFFFFFFFFFFFFFFFFFF AND DUP2 JUMP JUMPDEST PUSH1 0x5 SLOAD DUP2 JUMP JUMPDEST PUSH1 0x9 DUP2 PUSH1 0x3 DUP2 LT PUSH2 0x2C8 JUMPI PUSH0 DUP1 REVERT JUMPDEST ADD PUSH0 SWAP2 POP SWAP1 POP SLOAD DUP2 JUMP JUMPDEST PUSH0 PUSH1 0x1 SWAP1 SLOAD SWAP1 PUSH2 0x100 EXP SWAP1 DIV PUSH1 0xFF AND DUP2 JUMP JUMPDEST PUSH0 PUSH0 SWAP1 SLOAD SWAP1 PUSH2 0x100 EXP SWAP1 DIV PUSH1 0xFF AND DUP2 JUMP JUMPDEST PUSH1 0x2 PUSH0 SWAP1 SLOAD SWAP1 PUSH2 0x100 EXP SWAP1 DIV PUSH0 SIGNEXTEND DUP2 JUMP JUMPDEST PUSH1 0xC DUP2 DUP2 SLOAD DUP2 LT PUSH2 0x315 JUMPI PUSH0 DUP1 REVERT JUMPDEST SWAP1 PUSH0 MSTORE PUSH1 0x20 PUSH0 KECCAK256 ADD PUSH0 SWAP2 POP SWAP1 POP SLOAD DUP2 JUMP JUMPDEST PUSH1 0x8 DUP1 SLOAD PUSH2 0x333 SWAP1 PUSH2 0x848 JUMP JUMPDEST DUP1 PUSH1 0x1F ADD PUSH1 0x20 DUP1 SWAP2 DIV MUL PUSH1 0x20 ADD PUSH1 0x40 MLOAD SWAP1 DUP2 ADD PUSH1 0x40 MSTORE DUP1 SWAP3 SWAP2 SWAP1 DUP2 DUP2 MSTORE PUSH1 0x20 ADD DUP3 DUP1 SLOAD PUSH2 0x35F SWAP1 PUSH2 0x848 JUMP JUMPDEST DUP1 ISZERO PUSH2 0x3AA JUMPI DUP1 PUSH1 0x1F LT PUSH2 0x381 JUMPI PUSH2 0x100 DUP1 DUP4 SLOAD DIV MUL DUP4 MSTORE SWAP2 PUSH1 0x20 ADD SWAP2 PUSH2 0x3AA JUMP JUMPDEST DUP3 ADD SWAP2 SWAP1 PUSH0 MSTORE PUSH1 0x20 PUSH0 KECCAK256 SWAP1 JUMPDEST DUP2 SLOAD DUP2 MSTORE SWAP1 PUSH1 0x1 ADD SWAP1 PUSH1 0x20 ADD DUP1 DUP4 GT PUSH2 0x38D JUMPI DUP3 SWAP1 SUB PUSH1 0x1F AND DUP3 ADD SWAP2 JUMPDEST POP POP POP POP POP DUP2 JUMP JUMPDEST PUSH1 0x3 SLOAD DUP2 JUMP JUMPDEST PUSH1 0x1 SLOAD DUP2 JUMP JUMPDEST PUSH1 0x6 PUSH0 SWAP1 SLOAD SWAP1 PUSH2 0x100 EXP SWAP1 DIV PUSH1 0xFF AND DUP2 JUMP JUMPDEST PUSH1 0x7 DUP1 SLOAD PUSH2 0x3DD SWAP1 PUSH2 0x848 JUMP JUMPDEST DUP1 PUSH1 0x1F ADD PUSH1 0x20 DUP1 SWAP2 DIV MUL PUSH1 0x20 ADD PUSH1 0x40 MLOAD SWAP1 DUP2 ADD PUSH1 0x40 MSTORE DUP1 SWAP3 SWAP2 SWAP1 DUP2 DUP2 MSTORE PUSH1 0x20 ADD DUP3 DUP1 SLOAD PUSH2 0x409 SWAP1 PUSH2 0x848 JUMP JUMPDEST DUP1 ISZERO PUSH2 0x454 JUMPI DUP1 PUSH1 0x1F LT PUSH2 0x42B JUMPI PUSH2 0x100 DUP1 DUP4 SLOAD DIV MUL DUP4 MSTORE SWAP2 PUSH1 0x20 ADD SWAP2 PUSH2 0x454 JUMP JUMPDEST DUP3 ADD SWAP2 SWAP1 PUSH0 MSTORE PUSH1 0x20 PUSH0 KECCAK256 SWAP1 JUMPDEST DUP2 SLOAD DUP2 MSTORE SWAP1 PUSH1 0x1 ADD SWAP1 PUSH1 0x20 ADD DUP1 DUP4 GT PUSH2 0x437 JUMPI DUP3 SWAP1 SUB PUSH1 0x1F AND DUP3 ADD SWAP2 JUMPDEST POP POP POP POP POP DUP2 JUMP JUMPDEST PUSH0 PUSH32 0xFF00000000000000000000000000000000000000000000000000000000000000 DUP3 AND SWAP1 POP SWAP2 SWAP1 POP JUMP JUMPDEST PUSH2 0x490 DUP2 PUSH2 0x45C JUMP JUMPDEST DUP3 MSTORE POP POP JUMP JUMPDEST PUSH0 PUSH1 0x20 DUP3 ADD SWAP1 POP PUSH2 0x4A9 PUSH0 DUP4 ADD DUP5 PUSH2 0x487 JUMP JUMPDEST SWAP3 SWAP2 POP POP JUMP JUMPDEST PUSH0 PUSH20 0xFFFFFFFFFFFFFFFFFFFFFFFFFFFFFFFFFFFFFFFF DUP3 AND SWAP1 POP SWAP2 SWAP1 POP JUMP JUMPDEST PUSH0 PUSH2 0x4D8 DUP3 PUSH2 0x4AF JUMP JUMPDEST SWAP1 POP SWAP2 SWAP1 POP JUMP JUMPDEST PUSH2 0x4E8 DUP2 PUSH2 0x4CE JUMP JUMPDEST DUP3 MSTORE POP POP JUMP JUMPDEST PUSH0 PUSH1 0x20 DUP3 ADD SWAP1 POP PUSH2 0x501 PUSH0 DUP4 ADD DUP5 PUSH2 0x4DF JUMP JUMPDEST SWAP3 SWAP2 POP POP JUMP JUMPDEST PUSH0 DUP2 SWAP1 POP SWAP2 SWAP1 POP JUMP JUMPDEST PUSH2 0x519 DUP2 PUSH2 0x507 JUMP JUMPDEST DUP3 MSTORE POP POP JUMP JUMPDEST PUSH0 PUSH1 0x20 DUP3 ADD SWAP1 POP PUSH2 0x532 PUSH0 DUP4 ADD DUP5 PUSH2 0x510 JUMP JUMPDEST SWAP3 SWAP2 POP POP JUMP JUMPDEST PUSH0 PUSH0 REVERT JUMPDEST PUSH0 DUP2 SWAP1 POP SWAP2 SWAP1 POP JUMP JUMPDEST PUSH2 0x54E DUP2 PUSH2 0x53C JUMP JUMPDEST DUP2 EQ PUSH2 0x558 JUMPI PUSH0 PUSH0 REVERT JUMPDEST POP JUMP JUMPDEST PUSH0 DUP2 CALLDATALOAD SWAP1 POP PUSH2 0x569 DUP2 PUSH2 0x545 JUMP JUMPDEST SWAP3 SWAP2 POP POP JUMP JUMPDEST PUSH0 PUSH1 0x20 DUP3 DUP5 SUB SLT ISZERO PUSH2 0x584 JUMPI PUSH2 0x583 PUSH2 0x538 JUMP JUMPDEST JUMPDEST PUSH0 PUSH2 0x591 DUP5 DUP3 DUP6 ADD PUSH2 0x55B JUMP JUMPDEST SWAP2 POP POP SWAP3 SWAP2 POP POP JUMP JUMPDEST PUSH2 0x5A3 DUP2 PUSH2 0x53C JUMP JUMPDEST DUP3 MSTORE POP POP JUMP JUMPDEST PUSH0 PUSH1 0x20 DUP3 ADD SWAP1 POP PUSH2 0x5BC PUSH0 DUP4 ADD DUP5 PUSH2 0x59A JUMP JUMPDEST SWAP3 SWAP2 POP POP JUMP JUMPDEST PUSH0 PUSH1 0xFF DUP3 AND SWAP1 POP SWAP2 SWAP1 POP JUMP JUMPDEST PUSH2 0x5D7 DUP2 PUSH2 0x5C2 JUMP JUMPDEST DUP3 MSTORE POP POP JUMP JUMPDEST PUSH0 PUSH1 0x20 DUP3 ADD SWAP1 POP PUSH2 0x5F0 PUSH0 DUP4 ADD DUP5 PUSH2 0x5CE JUMP JUMPDEST SWAP3 SWAP2 POP POP JUMP JUMPDEST PUSH0 DUP2 ISZERO ISZERO SWAP1 POP SWAP2 SWAP1 POP JUMP JUMPDEST PUSH2 0x60A DUP2 PUSH2 0x5F6 JUMP JUMPDEST DUP3 MSTORE POP POP JUMP JUMPDEST PUSH0 PUSH1 0x20 DUP3 ADD SWAP1 POP PUSH2 0x623 PUSH0 DUP4 ADD DUP5 PUSH2 0x601 JUMP JUMPDEST SWAP3 SWAP2 POP POP JUMP JUMPDEST PUSH0 DUP2 PUSH0 SIGNEXTEND SWAP1 POP SWAP2 SWAP1 POP JUMP JUMPDEST PUSH2 0x63D DUP2 PUSH2 0x629 JUMP JUMPDEST DUP3 MSTORE POP POP JUMP JUMPDEST PUSH0 PUSH1 0x20 DUP3 ADD SWAP1 POP PUSH2 0x656 PUSH0 DUP4 ADD DUP5 PUSH2 0x634 JUMP JUMPDEST SWAP3 SWAP2 POP POP JUMP JUMPDEST PUSH0 DUP2 MLOAD SWAP1 POP SWAP2 SWAP1 POP JUMP JUMPDEST PUSH0 DUP3 DUP3 MSTORE PUSH1 0x20 DUP3 ADD SWAP1 POP SWAP3 SWAP2 POP POP JUMP JUMPDEST DUP3 DUP2 DUP4 MCOPY PUSH0 DUP4 DUP4 ADD MSTORE POP POP POP JUMP JUMPDEST PUSH0 PUSH1 0x1F NOT PUSH1 0x1F DUP4 ADD AND SWAP1 POP SWAP2 SWAP1 POP JUMP JUMPDEST PUSH0 PUSH2 0x69E DUP3 PUSH2 0x65C JUMP JUMPDEST PUSH2 0x6A8 DUP2 DUP6 PUSH2 0x666 JUMP JUMPDEST SWAP4 POP PUSH2 0x6B8 DUP2 DUP6 PUSH1 0x20 DUP7 ADD PUSH2 0x676 JUMP JUMPDEST PUSH2 0x6C1 DUP2 PUSH2 0x684 JUMP JUMPDEST DUP5 ADD SWAP2 POP POP SWAP3 SWAP2 POP POP JUMP JUMPDEST PUSH0 PUSH1 0x20 DUP3 ADD SWAP1 POP DUP2 DUP2 SUB PUSH0 DUP4 ADD MSTORE PUSH2 0x6E4 DUP2 DUP5 PUSH2 0x694 JUMP JUMPDEST SWAP1 POP SWAP3 SWAP2 POP POP JUMP JUMPDEST PUSH0 DUP2 SWAP1 POP SWAP2 SWAP1 POP JUMP JUMPDEST PUSH2 0x6FE DUP2 PUSH2 0x6EC JUMP JUMPDEST DUP3 MSTORE POP POP JUMP JUMPDEST PUSH0 PUSH1 0x20 DUP3 ADD SWAP1 POP PUSH2 0x717 PUSH0 DUP4 ADD DUP5 PUSH2 0x6F5 JUMP JUMPDEST SWAP3 SWAP2 POP POP JUMP JUMPDEST PUSH32 0x4E487B7100000000000000000000000000000000000000000000000000000000 PUSH0 MSTORE PUSH1 0x21 PUSH1 0x4 MSTORE PUSH1 0x24 PUSH0 REVERT JUMPDEST PUSH1 0x3 DUP2 LT PUSH2 0x75B JUMPI PUSH2 0x75A PUSH2 0x71D JUMP JUMPDEST JUMPDEST POP JUMP JUMPDEST PUSH0 DUP2 SWAP1 POP PUSH2 0x76B DUP3 PUSH2 0x74A JUMP JUMPDEST SWAP2 SWAP1 POP JUMP JUMPDEST PUSH0 PUSH2 0x77A DUP3 PUSH2 0x75E JUMP JUMPDEST SWAP1 POP SWAP2 SWAP1 POP JUMP JUMPDEST PUSH2 0x78A DUP2 PUSH2 0x770 JUMP JUMPDEST DUP3 MSTORE POP POP JUMP JUMPDEST PUSH0 PUSH1 0x20 DUP3 ADD SWAP1 POP PUSH2 0x7A3 PUSH0 DUP4 ADD DUP5 PUSH2 0x781 JUMP JUMPDEST SWAP3 SWAP2 POP POP JUMP JUMPDEST PUSH0 DUP2 MLOAD SWAP1 POP SWAP2 SWAP1 POP JUMP JUMPDEST PUSH0 DUP3 DUP3 MSTORE PUSH1 0x20 DUP3 ADD SWAP1 POP SWAP3 SWAP2 POP POP JUMP JUMPDEST PUSH0 PUSH2 0x7CD DUP3 PUSH2 0x7A9 JUMP JUMPDEST PUSH2 0x7D7 DUP2 DUP6 PUSH2 0x7B3 JUMP JUMPDEST SWAP4 POP PUSH2 0x7E7 DUP2 DUP6 PUSH1 0x20 DUP7 ADD PUSH2 0x676 JUMP JUMPDEST PUSH2 0x7F0 DUP2 PUSH2 0x684 JUMP JUMPDEST DUP5 ADD SWAP2 POP POP SWAP3 SWAP2 POP POP JUMP JUMPDEST PUSH0 PUSH1 0x20 DUP3 ADD SWAP1 POP DUP2 DUP2 SUB PUSH0 DUP4 ADD MSTORE PUSH2 0x813 DUP2 DUP5 PUSH2 0x7C3 JUMP JUMPDEST SWAP1 POP SWAP3 SWAP2 POP POP JUMP JUMPDEST PUSH32 0x4E487B7100000000000000000000000000000000000000000000000000000000 PUSH0 MSTORE PUSH1 0x22 PUSH1 0x4 MSTORE PUSH1 0x24 PUSH0 REVERT JUMPDEST PUSH0 PUSH1 0x2 DUP3 DIV SWAP1 POP PUSH1 0x1 DUP3 AND DUP1 PUSH2 0x85F JUMPI PUSH1 0x7F DUP3 AND SWAP2 POP JUMPDEST PUSH1 0x20 DUP3 LT DUP2 SUB PUSH2 0x872 JUMPI PUSH2 0x871 PUSH2 0x81B JUMP JUMPDEST JUMPDEST POP SWAP2 SWAP1 POP JUMP INVALID LOG2 PUSH5 0x6970667358 0x22 SLT KECCAK256 PUSH29 0x2C8689F6066F933BBD013C36FDF8C81564212293995FEF20192B90C0F4 ISZERO CALLF 0x6473 PUSH16 0x6C634300082300330000000000000000 "
				},
				"gasEstimates": {
					"creation": {
						"codeDepositCost": "444400",
						"executionCost": "infinite",
						"totalCost": "infinite"
					},
					"external": {
						"currentAge()": "2469",
						"currentBalance()": "2447",
						"currentStatus()": "2620",
						"dynamicIds(uint256)": "infinite",
						"fixedScores(uint256)": "infinite",
						"hasFavoriteNumber()": "2576",
						"hashValue()": "2470",
						"myAddress()": "2531",
						"myName()": "infinite",
						"rawData()": "infinite",
						"singleByte()": "2518",
						"smallNumber()": "2605",
						"temperature()": "2491"
					}
				},
				"methodIdentifiers": {
					"currentAge()": "e1b0385f",
					"currentBalance()": "ce845d1d",
					"currentStatus()": "ef8a9235",
					"dynamicIds(uint256)": "ccec1980",
					"fixedScores(uint256)": "313b277d",
					"hasFavoriteNumber()": "85c3c411",
					"hashValue()": "2b92b8e5",
					"myAddress()": "26b85ee1",
					"myName()": "fae2dd4b",
					"rawData()": "cdd1897a",
					"singleByte()": "0de296ed",
					"smallNumber()": "6670cde0",
					"temperature()": "adccea12"
				}
			},
			"storageLayout": {
				"storage": [
					{
						"astId": 4,
						"contract": "data-types/SimpleStorage.sol:SimpleStorage",
						"label": "hasFavoriteNumber",
						"offset": 0,
						"slot": "0",
						"type": "t_bool"
					},
					{
						"astId": 7,
						"contract": "data-types/SimpleStorage.sol:SimpleStorage",
						"label": "smallNumber",
						"offset": 1,
						"slot": "0",
						"type": "t_uint8"
					},
					{
						"astId": 10,
						"contract": "data-types/SimpleStorage.sol:SimpleStorage",
						"label": "currentAge",
						"offset": 0,
						"slot": "1",
						"type": "t_uint256"
					},
					{
						"astId": 14,
						"contract": "data-types/SimpleStorage.sol:SimpleStorage",
						"label": "temperature",
						"offset": 0,
						"slot": "2",
						"type": "t_int8"
					},
					{
						"astId": 17,
						"contract": "data-types/SimpleStorage.sol:SimpleStorage",
						"label": "currentBalance",
						"offset": 0,
						"slot": "3",
						"type": "t_int256"
					},
					{
						"astId": 20,
						"contract": "data-types/SimpleStorage.sol:SimpleStorage",
						"label": "myAddress",
						"offset": 0,
						"slot": "4",
						"type": "t_address"
					},
					{
						"astId": 23,
						"contract": "data-types/SimpleStorage.sol:SimpleStorage",
						"label": "singleByte",
						"offset": 20,
						"slot": "4",
						"type": "t_bytes1"
					},
					{
						"astId": 26,
						"contract": "data-types/SimpleStorage.sol:SimpleStorage",
						"label": "hashValue",
						"offset": 0,
						"slot": "5",
						"type": "t_bytes32"
					},
					{
						"astId": 33,
						"contract": "data-types/SimpleStorage.sol:SimpleStorage",
						"label": "currentStatus",
						"offset": 0,
						"slot": "6",
						"type": "t_enum(Status)30"
					},
					{
						"astId": 36,
						"contract": "data-types/SimpleStorage.sol:SimpleStorage",
						"label": "myName",
						"offset": 0,
						"slot": "7",
						"type": "t_string_storage"
					},
					{
						"astId": 39,
						"contract": "data-types/SimpleStorage.sol:SimpleStorage",
						"label": "rawData",
						"offset": 0,
						"slot": "8",
						"type": "t_bytes_storage"
					},
					{
						"astId": 47,
						"contract": "data-types/SimpleStorage.sol:SimpleStorage",
						"label": "fixedScores",
						"offset": 0,
						"slot": "9",
						"type": "t_array(t_uint256)3_storage"
					},
					{
						"astId": 50,
						"contract": "data-types/SimpleStorage.sol:SimpleStorage",
						"label": "dynamicIds",
						"offset": 0,
						"slot": "12",
						"type": "t_array(t_uint256)dyn_storage"
					}
				],
				"types": {
					"t_address": {
						"encoding": "inplace",
						"label": "address",
						"numberOfBytes": "20"
					},
					"t_array(t_uint256)3_storage": {
						"base": "t_uint256",
						"encoding": "inplace",
						"label": "uint256[3]",
						"numberOfBytes": "96"
					},
					"t_array(t_uint256)dyn_storage": {
						"base": "t_uint256",
						"encoding": "dynamic_array",
						"label": "uint256[]",
						"numberOfBytes": "32"
					},
					"t_bool": {
						"encoding": "inplace",
						"label": "bool",
						"numberOfBytes": "1"
					},
					"t_bytes1": {
						"encoding": "inplace",
						"label": "bytes1",
						"numberOfBytes": "1"
					},
					"t_bytes32": {
						"encoding": "inplace",
						"label": "bytes32",
						"numberOfBytes": "32"
					},
					"t_bytes_storage": {
						"encoding": "bytes",
						"label": "bytes",
						"numberOfBytes": "32"
					},
					"t_enum(Status)30": {
						"encoding": "inplace",
						"label": "enum SimpleStorage.Status",
						"numberOfBytes": "1"
					},
					"t_int256": {
						"encoding": "inplace",
						"label": "int256",
						"numberOfBytes": "32"
					},
					"t_int8": {
						"encoding": "inplace",
						"label": "int8",
						"numberOfBytes": "1"
					},
					"t_string_storage": {
						"encoding": "bytes",
						"label": "string",
						"numberOfBytes": "32"
					},
					"t_uint256": {
						"encoding": "inplace",
						"label": "uint256",
						"numberOfBytes": "32"
					},
					"t_uint8": {
						"encoding": "inplace",
						"label": "uint8",
						"numberOfBytes": "1"
					}
				}
			},
			"userdoc": {
				"kind": "user",
				"methods": {},
				"version": 1
			}
		}
	}
}