{
	"functions/Arrays.sol": {
		"SimpleStorage1": {
			"abi": [
				{
					"inputs": [
						{
							"internalType": "string",
							"name": "_name",
							"type": "string"
						},
						{
							"internalType": "uint256",
							"name": "_favoriteNumber",
							"type": "uint256"
						}
					],
					"name": "addPersons",
					"outputs": [],
					"stateMutability": "nonpayable",
					"type": "function"
				},
				{
					"inputs": [
						{
							"internalType": "uint256",
							"name": "",
							"type": "uint256"
						}
					],
					"name": "listOfFavoritePersons",
					"outputs": [
						{
							"internalType": "uint256",
							"name": "favoriteNumber",
							"type": "uint256"
						},
						{
							"internalType": "string",
							"name": "name",
							"type": "string"
						}
					],
					"stateMutability": "view",
					"type": "function"
				},
				{
					"inputs": [
						{
							"internalType": "uint256",
							"name": "",
							"type": "uint256"
						}
					],
					"name": "listOfPersons",
					"outputs": [
						{
							"internalType": "uint256",
							"name": "favoriteNumber",
							"type": "uint256"
						},
						{
							"internalType": "string",
							"name": "name",
							"type": "string"
						}
					],
					"stateMutability": "view",
					"type": "function"
				}
			],
			"devdoc": {
				"kind": "dev",
				"methods": {},
				"version": 1
			},
			"evm": {
				"assembly": "    /* \"functions/Arrays.sol\":65:638  contract SimpleStorage1 {... */\n  mstore(0x40, 0x80)\n  callvalue\n  dup1\n  iszero\n  tag_1\n  jumpi\n  revert(0x00, 0x00)\ntag_1:\n  pop\n  dataSize(sub_0)\n  dup1\n  dataOffset(sub_0)\n  0x00\n  codecopy\n  0x00\n  return\nstop\n\nsub_0: assembly {\n        /* \"functions/Arrays.sol\":65:638  contract SimpleStorage1 {... */\n      mstore(0x40, 0x80)\n      callvalue\n      dup1\n      iszero\n      tag_1\n      jumpi\n      revert(0x00, 0x00)\n    tag_1:\n      pop\n      jumpi(tag_2, lt(calldatasize, 0x04))\n      shr(0xe0, calldataload(0x00))\n      dup1\n      0x510f17c5\n      eq\n      tag_3\n      jumpi\n      dup1\n      0x5b54633c\n      eq\n      tag_4\n      jumpi\n      dup1\n      0x99b4a137\n      eq\n      tag_5\n      jumpi\n    tag_2:\n      revert(0x00, 0x00)\n        /* \"functions/Arrays.sol\":277:306  Person[] public listOfPersons */\n    tag_3:\n      tag_6\n      0x04\n      dup1\n      calldatasize\n      sub\n      dup2\n      add\n      swap1\n      tag_7\n      swap2\n      swap1\n      tag_8\n      jump\t// in\n    tag_7:\n      tag_9\n      jump\t// in\n    tag_6:\n      mload(0x40)\n      tag_10\n      swap3\n      swap2\n      swap1\n      tag_11\n      jump\t// in\n    tag_10:\n      mload(0x40)\n      dup1\n      swap2\n      sub\n      swap1\n      return\n        /* \"functions/Arrays.sol\":384:635  function addPersons(string memory _name, uint256 _favoriteNumber) public {... */\n    tag_4:\n      tag_12\n      0x04\n      dup1\n      calldatasize\n      sub\n      dup2\n      add\n      swap1\n      tag_13\n      swap2\n      swap1\n      tag_14\n      jump\t// in\n    tag_13:\n      tag_15\n      jump\t// in\n    tag_12:\n      stop\n        /* \"functions/Arrays.sol\":333:371  Person[4] public listOfFavoritePersons */\n    tag_5:\n      tag_16\n      0x04\n      dup1\n      calldatasize\n      sub\n      dup2\n      add\n      swap1\n      tag_17\n      swap2\n      swap1\n      tag_8\n      jump\t// in\n    tag_17:\n      tag_18\n      jump\t// in\n    tag_16:\n      mload(0x40)\n      tag_19\n      swap3\n      swap2\n      swap1\n      tag_11\n      jump\t// in\n    tag_19:\n      mload(0x40)\n      dup1\n      swap2\n      sub\n      swap1\n      return\n        /* \"functions/Arrays.sol\":277:306  Person[] public listOfPersons */\n    tag_9:\n      0x01\n      dup2\n      dup2\n      sload\n      dup2\n      lt\n      tag_20\n      jumpi\n      0x00\n      dup1\n      revert\n    tag_20:\n      swap1\n      0x00\n      mstore\n      keccak256(0x00, 0x20)\n      swap1\n      0x02\n      mul\n      add\n      0x00\n      swap2\n      pop\n      swap1\n      pop\n      dup1\n      0x00\n      add\n      sload\n      swap1\n      dup1\n      0x01\n      add\n      dup1\n      sload\n      tag_22\n      swap1\n      tag_23\n      jump\t// in\n    tag_22:\n      dup1\n      0x1f\n      add\n      0x20\n      dup1\n      swap2\n      div\n      mul\n      0x20\n      add\n      mload(0x40)\n      swap1\n      dup2\n      add\n      0x40\n      mstore\n      dup1\n      swap3\n      swap2\n      swap1\n      dup2\n      dup2\n      mstore\n      0x20\n      add\n      dup3\n      dup1\n      sload\n      tag_24\n      swap1\n      tag_23\n      jump\t// in\n    tag_24:\n      dup1\n      iszero\n      tag_25\n      jumpi\n      dup1\n      0x1f\n      lt\n      tag_26\n      jumpi\n      0x0100\n      dup1\n      dup4\n      sload\n      div\n      mul\n      dup4\n      mstore\n      swap2\n      0x20\n      add\n      swap2\n      jump(tag_25)\n    tag_26:\n      dup3\n      add\n      swap2\n      swap1\n      0x00\n      mstore\n      keccak256(0x00, 0x20)\n      swap1\n    tag_27:\n      dup2\n      sload\n      dup2\n      mstore\n      swap1\n      0x01\n      add\n      swap1\n      0x20\n      add\n      dup1\n      dup4\n      gt\n      tag_27\n      jumpi\n      dup3\n      swap1\n      sub\n      0x1f\n      and\n      dup3\n      add\n      swap2\n    tag_25:\n      pop\n      pop\n      pop\n      pop\n      pop\n      swap1\n      pop\n      dup3\n      jump\t// out\n        /* \"functions/Arrays.sol\":384:635  function addPersons(string memory _name, uint256 _favoriteNumber) public {... */\n    tag_15:\n        /* \"functions/Arrays.sol\":579:592  listOfPersons */\n      0x01\n        /* \"functions/Arrays.sol\":598:628  Person(_favoriteNumber, _name) */\n      mload(0x40)\n      dup1\n      0x40\n      add\n      0x40\n      mstore\n      dup1\n        /* \"functions/Arrays.sol\":605:620  _favoriteNumber */\n      dup4\n        /* \"functions/Arrays.sol\":598:628  Person(_favoriteNumber, _name) */\n      dup2\n      mstore\n      0x20\n      add\n        /* \"functions/Arrays.sol\":622:627  _name */\n      dup5\n        /* \"functions/Arrays.sol\":598:628  Person(_favoriteNumber, _name) */\n      dup2\n      mstore\n      pop\n        /* \"functions/Arrays.sol\":579:629  listOfPersons.push(Person(_favoriteNumber, _name)) */\n      swap1\n      dup1\n      0x01\n      dup2\n      sload\n      add\n      dup1\n      dup3\n      sstore\n      dup1\n      swap2\n      pop\n      pop\n      0x01\n      swap1\n      sub\n      swap1\n      0x00\n      mstore\n      keccak256(0x00, 0x20)\n      swap1\n      0x02\n      mul\n      add\n      0x00\n      swap1\n      swap2\n      swap1\n      swap2\n      swap1\n      swap2\n      pop\n      0x00\n      dup3\n      add\n      mload\n      dup2\n      0x00\n      add\n      sstore\n      0x20\n      dup3\n      add\n      mload\n      dup2\n      0x01\n      add\n      swap1\n      dup2\n      tag_30\n      swap2\n      swap1\n      tag_31\n      jump\t// in\n    tag_30:\n      pop\n      pop\n      pop\n        /* \"functions/Arrays.sol\":384:635  function addPersons(string memory _name, uint256 _favoriteNumber) public {... */\n      pop\n      pop\n      jump\t// out\n        /* \"functions/Arrays.sol\":333:371  Person[4] public listOfFavoritePersons */\n    tag_18:\n      0x02\n      dup2\n      0x04\n      dup2\n      lt\n      tag_32\n      jumpi\n      0x00\n      dup1\n      revert\n    tag_32:\n      0x02\n      mul\n      add\n      0x00\n      swap2\n      pop\n      swap1\n      pop\n      dup1\n      0x00\n      add\n      sload\n      swap1\n      dup1\n      0x01\n      add\n      dup1\n      sload\n      tag_34\n      swap1\n      tag_23\n      jump\t// in\n    tag_34:\n      dup1\n      0x1f\n      add\n      0x20\n      dup1\n      swap2\n      div\n      mul\n      0x20\n      add\n      mload(0x40)\n      swap1\n      dup2\n      add\n      0x40\n      mstore\n      dup1\n      swap3\n      swap2\n      swap1\n      dup2\n      dup2\n      mstore\n      0x20\n      add\n      dup3\n      dup1\n      sload\n      tag_35\n      swap1\n      tag_23\n      jump\t// in\n    tag_35:\n      dup1\n      iszero\n      tag_36\n      jumpi\n      dup1\n      0x1f\n      lt\n      tag_37\n      jumpi\n      0x0100\n      dup1\n      dup4\n      sload\n      div\n      mul\n      dup4\n      mstore\n      swap2\n      0x20\n      add\n      swap2\n      jump(tag_36)\n    tag_37:\n      dup3\n      add\n      swap2\n      swap1\n      0x00\n      mstore\n      keccak256(0x00, 0x20)\n      swap1\n    tag_38:\n      dup2\n      sload\n      dup2\n      mstore\n      swap1\n      0x01\n      add\n      swap1\n      0x20\n      add\n      dup1\n      dup4\n      gt\n      tag_38\n      jumpi\n      dup3\n      swap1\n      sub\n      0x1f\n      and\n      dup3\n      add\n      swap2\n    tag_36:\n      pop\n      pop\n      pop\n      pop\n      pop\n      swap1\n      pop\n      dup3\n      jump\t// out\n        /* \"#utility.yul\":7:82   */\n    tag_39:\n        /* \"#utility.yul\":40:46   */\n      0x00\n        /* \"#utility.yul\":73:75   */\n      0x40\n        /* \"#utility.yul\":67:76   */\n      mload\n        /* \"#utility.yul\":57:76   */\n      swap1\n      pop\n        /* \"#utility.yul\":7:82   */\n      swap1\n      jump\t// out\n        /* \"#utility.yul\":88:205   */\n    tag_40:\n        /* \"#utility.yul\":197:198   */\n      0x00\n        /* \"#utility.yul\":194:195   */\n      0x00\n        /* \"#utility.yul\":187:199   */\n      revert\n        /* \"#utility.yul\":211:328   */\n    tag_41:\n        /* \"#utility.yul\":320:321   */\n      0x00\n        /* \"#utility.yul\":317:318   */\n      0x00\n        /* \"#utility.yul\":310:322   */\n      revert\n        /* \"#utility.yul\":334:411   */\n    tag_42:\n        /* \"#utility.yul\":371:378   */\n      0x00\n        /* \"#utility.yul\":400:405   */\n      dup2\n        /* \"#utility.yul\":389:405   */\n      swap1\n      pop\n        /* \"#utility.yul\":334:411   */\n      swap2\n      swap1\n      pop\n      jump\t// out\n        /* \"#utility.yul\":417:539   */\n    tag_43:\n        /* \"#utility.yul\":490:514   */\n      tag_82\n        /* \"#utility.yul\":508:513   */\n      dup2\n        /* \"#utility.yul\":490:514   */\n      tag_42\n      jump\t// in\n    tag_82:\n        /* \"#utility.yul\":483:488   */\n      dup2\n        /* \"#utility.yul\":480:515   */\n      eq\n        /* \"#utility.yul\":470:533   */\n      tag_83\n      jumpi\n        /* \"#utility.yul\":529:530   */\n      0x00\n        /* \"#utility.yul\":526:527   */\n      0x00\n        /* \"#utility.yul\":519:531   */\n      revert\n        /* \"#utility.yul\":470:533   */\n    tag_83:\n        /* \"#utility.yul\":417:539   */\n      pop\n      jump\t// out\n        /* \"#utility.yul\":545:684   */\n    tag_44:\n        /* \"#utility.yul\":591:596   */\n      0x00\n        /* \"#utility.yul\":629:635   */\n      dup2\n        /* \"#utility.yul\":616:636   */\n      calldataload\n        /* \"#utility.yul\":607:636   */\n      swap1\n      pop\n        /* \"#utility.yul\":645:678   */\n      tag_85\n        /* \"#utility.yul\":672:677   */\n      dup2\n        /* \"#utility.yul\":645:678   */\n      tag_43\n      jump\t// in\n    tag_85:\n        /* \"#utility.yul\":545:684   */\n      swap3\n      swap2\n      pop\n      pop\n      jump\t// out\n        /* \"#utility.yul\":690:1019   */\n    tag_8:\n        /* \"#utility.yul\":749:755   */\n      0x00\n        /* \"#utility.yul\":798:800   */\n      0x20\n        /* \"#utility.yul\":786:795   */\n      dup3\n        /* \"#utility.yul\":777:784   */\n      dup5\n        /* \"#utility.yul\":773:796   */\n      sub\n        /* \"#utility.yul\":769:801   */\n      slt\n        /* \"#utility.yul\":766:885   */\n      iszero\n      tag_87\n      jumpi\n        /* \"#utility.yul\":804:883   */\n      tag_88\n      tag_40\n      jump\t// in\n    tag_88:\n        /* \"#utility.yul\":766:885   */\n    tag_87:\n        /* \"#utility.yul\":924:925   */\n      0x00\n        /* \"#utility.yul\":949:1002   */\n      tag_89\n        /* \"#utility.yul\":994:1001   */\n      dup5\n        /* \"#utility.yul\":985:991   */\n      dup3\n        /* \"#utility.yul\":974:983   */\n      dup6\n        /* \"#utility.yul\":970:992   */\n      add\n        /* \"#utility.yul\":949:1002   */\n      tag_44\n      jump\t// in\n    tag_89:\n        /* \"#utility.yul\":939:1002   */\n      swap2\n      pop\n        /* \"#utility.yul\":895:1012   */\n      pop\n        /* \"#utility.yul\":690:1019   */\n      swap3\n      swap2\n      pop\n      pop\n      jump\t// out\n        /* \"#utility.yul\":1025:1143   */\n    tag_45:\n        /* \"#utility.yul\":1112:1136   */\n      tag_91\n        /* \"#utility.yul\":1130:1135   */\n      dup2\n        /* \"#utility.yul\":1112:1136   */\n      tag_42\n      jump\t// in\n    tag_91:\n        /* \"#utility.yul\":1107:1110   */\n      dup3\n        /* \"#utility.yul\":1100:1137   */\n      mstore\n        /* \"#utility.yul\":1025:1143   */\n      pop\n      pop\n      jump\t// out\n        /* \"#utility.yul\":1149:1248   */\n    tag_46:\n        /* \"#utility.yul\":1201:1207   */\n      0x00\n        /* \"#utility.yul\":1235:1240   */\n      dup2\n        /* \"#utility.yul\":1229:1241   */\n      mload\n        /* \"#utility.yul\":1219:1241   */\n      swap1\n      pop\n        /* \"#utility.yul\":1149:1248   */\n      swap2\n      swap1\n      pop\n      jump\t// out\n        /* \"#utility.yul\":1254:1423   */\n    tag_47:\n        /* \"#utility.yul\":1338:1349   */\n      0x00\n        /* \"#utility.yul\":1372:1378   */\n      dup3\n        /* \"#utility.yul\":1367:1370   */\n      dup3\n        /* \"#utility.yul\":1360:1379   */\n      mstore\n        /* \"#utility.yul\":1412:1416   */\n      0x20\n        /* \"#utility.yul\":1407:1410   */\n      dup3\n        /* \"#utility.yul\":1403:1417   */\n      add\n        /* \"#utility.yul\":1388:1417   */\n      swap1\n      pop\n        /* \"#utility.yul\":1254:1423   */\n      swap3\n      swap2\n      pop\n      pop\n      jump\t// out\n        /* \"#utility.yul\":1429:1568   */\n    tag_48:\n        /* \"#utility.yul\":1518:1524   */\n      dup3\n        /* \"#utility.yul\":1513:1516   */\n      dup2\n        /* \"#utility.yul\":1508:1511   */\n      dup4\n        /* \"#utility.yul\":1502:1525   */\n      mcopy\n        /* \"#utility.yul\":1559:1560   */\n      0x00\n        /* \"#utility.yul\":1550:1556   */\n      dup4\n        /* \"#utility.yul\":1545:1548   */\n      dup4\n        /* \"#utility.yul\":1541:1557   */\n      add\n        /* \"#utility.yul\":1534:1561   */\n      mstore\n        /* \"#utility.yul\":1429:1568   */\n      pop\n      pop\n      pop\n      jump\t// out\n        /* \"#utility.yul\":1574:1676   */\n    tag_49:\n        /* \"#utility.yul\":1615:1621   */\n      0x00\n        /* \"#utility.yul\":1666:1668   */\n      0x1f\n        /* \"#utility.yul\":1662:1669   */\n      not\n        /* \"#utility.yul\":1657:1659   */\n      0x1f\n        /* \"#utility.yul\":1650:1655   */\n      dup4\n        /* \"#utility.yul\":1646:1660   */\n      add\n        /* \"#utility.yul\":1642:1670   */\n      and\n        /* \"#utility.yul\":1632:1670   */\n      swap1\n      pop\n        /* \"#utility.yul\":1574:1676   */\n      swap2\n      swap1\n      pop\n      jump\t// out\n        /* \"#utility.yul\":1682:2059   */\n    tag_50:\n        /* \"#utility.yul\":1770:1773   */\n      0x00\n        /* \"#utility.yul\":1798:1837   */\n      tag_97\n        /* \"#utility.yul\":1831:1836   */\n      dup3\n        /* \"#utility.yul\":1798:1837   */\n      tag_46\n      jump\t// in\n    tag_97:\n        /* \"#utility.yul\":1853:1924   */\n      tag_98\n        /* \"#utility.yul\":1917:1923   */\n      dup2\n        /* \"#utility.yul\":1912:1915   */\n      dup6\n        /* \"#utility.yul\":1853:1924   */\n      tag_47\n      jump\t// in\n    tag_98:\n        /* \"#utility.yul\":1846:1924   */\n      swap4\n      pop\n        /* \"#utility.yul\":1933:1998   */\n      tag_99\n        /* \"#utility.yul\":1991:1997   */\n      dup2\n        /* \"#utility.yul\":1986:1989   */\n      dup6\n        /* \"#utility.yul\":1979:1983   */\n      0x20\n        /* \"#utility.yul\":1972:1977   */\n      dup7\n        /* \"#utility.yul\":1968:1984   */\n      add\n        /* \"#utility.yul\":1933:1998   */\n      tag_48\n      jump\t// in\n    tag_99:\n        /* \"#utility.yul\":2023:2052   */\n      tag_100\n        /* \"#utility.yul\":2045:2051   */\n      dup2\n        /* \"#utility.yul\":2023:2052   */\n      tag_49\n      jump\t// in\n    tag_100:\n        /* \"#utility.yul\":2018:2021   */\n      dup5\n        /* \"#utility.yul\":2014:2053   */\n      add\n        /* \"#utility.yul\":2007:2053   */\n      swap2\n      pop\n        /* \"#utility.yul\":1774:2059   */\n      pop\n        /* \"#utility.yul\":1682:2059   */\n      swap3\n      swap2\n      pop\n      pop\n      jump\t// out\n        /* \"#utility.yul\":2065:2488   */\n    tag_11:\n        /* \"#utility.yul\":2206:2210   */\n      0x00\n        /* \"#utility.yul\":2244:2246   */\n      0x40\n        /* \"#utility.yul\":2233:2242   */\n      dup3\n        /* \"#utility.yul\":2229:2247   */\n      add\n        /* \"#utility.yul\":2221:2247   */\n      swap1\n      pop\n        /* \"#utility.yul\":2257:2328   */\n      tag_102\n        /* \"#utility.yul\":2325:2326   */\n      0x00\n        /* \"#utility.yul\":2314:2323   */\n      dup4\n        /* \"#utility.yul\":2310:2327   */\n      add\n        /* \"#utility.yul\":2301:2307   */\n      dup6\n        /* \"#utility.yul\":2257:2328   */\n      tag_45\n      jump\t// in\n    tag_102:\n        /* \"#utility.yul\":2375:2384   */\n      dup2\n        /* \"#utility.yul\":2369:2373   */\n      dup2\n        /* \"#utility.yul\":2365:2385   */\n      sub\n        /* \"#utility.yul\":2360:2362   */\n      0x20\n        /* \"#utility.yul\":2349:2358   */\n      dup4\n        /* \"#utility.yul\":2345:2363   */\n      add\n        /* \"#utility.yul\":2338:2386   */\n      mstore\n        /* \"#utility.yul\":2403:2481   */\n      tag_103\n        /* \"#utility.yul\":2476:2480   */\n      dup2\n        /* \"#utility.yul\":2467:2473   */\n      dup5\n        /* \"#utility.yul\":2403:2481   */\n      tag_50\n      jump\t// in\n    tag_103:\n        /* \"#utility.yul\":2395:2481   */\n      swap1\n      pop\n        /* \"#utility.yul\":2065:2488   */\n      swap4\n      swap3\n      pop\n      pop\n      pop\n      jump\t// out\n        /* \"#utility.yul\":2494:2611   */\n    tag_51:\n        /* \"#utility.yul\":2603:2604   */\n      0x00\n        /* \"#utility.yul\":2600:2601   */\n      0x00\n        /* \"#utility.yul\":2593:2605   */\n      revert\n        /* \"#utility.yul\":2617:2734   */\n    tag_52:\n        /* \"#utility.yul\":2726:2727   */\n      0x00\n        /* \"#utility.yul\":2723:2724   */\n      0x00\n        /* \"#utility.yul\":2716:2728   */\n      revert\n        /* \"#utility.yul\":2740:2920   */\n    tag_53:\n        /* \"#utility.yul\":2788:2865   */\n      0x4e487b7100000000000000000000000000000000000000000000000000000000\n        /* \"#utility.yul\":2785:2786   */\n      0x00\n        /* \"#utility.yul\":2778:2866   */\n      mstore\n        /* \"#utility.yul\":2885:2889   */\n      0x41\n        /* \"#utility.yul\":2882:2883   */\n      0x04\n        /* \"#utility.yul\":2875:2890   */\n      mstore\n        /* \"#utility.yul\":2909:2913   */\n      0x24\n        /* \"#utility.yul\":2906:2907   */\n      0x00\n        /* \"#utility.yul\":2899:2914   */\n      revert\n        /* \"#utility.yul\":2926:3207   */\n    tag_54:\n        /* \"#utility.yul\":3009:3036   */\n      tag_108\n        /* \"#utility.yul\":3031:3035   */\n      dup3\n        /* \"#utility.yul\":3009:3036   */\n      tag_49\n      jump\t// in\n    tag_108:\n        /* \"#utility.yul\":3001:3007   */\n      dup2\n        /* \"#utility.yul\":2997:3037   */\n      add\n        /* \"#utility.yul\":3139:3145   */\n      dup2\n        /* \"#utility.yul\":3127:3137   */\n      dup2\n        /* \"#utility.yul\":3124:3146   */\n      lt\n        /* \"#utility.yul\":3103:3121   */\n      0xffffffffffffffff\n        /* \"#utility.yul\":3091:3101   */\n      dup3\n        /* \"#utility.yul\":3088:3122   */\n      gt\n        /* \"#utility.yul\":3085:3147   */\n      or\n        /* \"#utility.yul\":3082:3170   */\n      iszero\n      tag_109\n      jumpi\n        /* \"#utility.yul\":3150:3168   */\n      tag_110\n      tag_53\n      jump\t// in\n    tag_110:\n        /* \"#utility.yul\":3082:3170   */\n    tag_109:\n        /* \"#utility.yul\":3190:3200   */\n      dup1\n        /* \"#utility.yul\":3186:3188   */\n      0x40\n        /* \"#utility.yul\":3179:3201   */\n      mstore\n        /* \"#utility.yul\":2969:3207   */\n      pop\n        /* \"#utility.yul\":2926:3207   */\n      pop\n      pop\n      jump\t// out\n        /* \"#utility.yul\":3213:3342   */\n    tag_55:\n        /* \"#utility.yul\":3247:3253   */\n      0x00\n        /* \"#utility.yul\":3274:3294   */\n      tag_112\n      tag_39\n      jump\t// in\n    tag_112:\n        /* \"#utility.yul\":3264:3294   */\n      swap1\n      pop\n        /* \"#utility.yul\":3303:3336   */\n      tag_113\n        /* \"#utility.yul\":3331:3335   */\n      dup3\n        /* \"#utility.yul\":3323:3329   */\n      dup3\n        /* \"#utility.yul\":3303:3336   */\n      tag_54\n      jump\t// in\n    tag_113:\n        /* \"#utility.yul\":3213:3342   */\n      swap2\n      swap1\n      pop\n      jump\t// out\n        /* \"#utility.yul\":3348:3656   */\n    tag_56:\n        /* \"#utility.yul\":3410:3414   */\n      0x00\n        /* \"#utility.yul\":3500:3518   */\n      0xffffffffffffffff\n        /* \"#utility.yul\":3492:3498   */\n      dup3\n        /* \"#utility.yul\":3489:3519   */\n      gt\n        /* \"#utility.yul\":3486:3542   */\n      iszero\n      tag_115\n      jumpi\n        /* \"#utility.yul\":3522:3540   */\n      tag_116\n      tag_53\n      jump\t// in\n    tag_116:\n        /* \"#utility.yul\":3486:3542   */\n    tag_115:\n        /* \"#utility.yul\":3560:3589   */\n      tag_117\n        /* \"#utility.yul\":3582:3588   */\n      dup3\n        /* \"#utility.yul\":3560:3589   */\n      tag_49\n      jump\t// in\n    tag_117:\n        /* \"#utility.yul\":3552:3589   */\n      swap1\n      pop\n        /* \"#utility.yul\":3644:3648   */\n      0x20\n        /* \"#utility.yul\":3638:3642   */\n      dup2\n        /* \"#utility.yul\":3634:3649   */\n      add\n        /* \"#utility.yul\":3626:3649   */\n      swap1\n      pop\n        /* \"#utility.yul\":3348:3656   */\n      swap2\n      swap1\n      pop\n      jump\t// out\n        /* \"#utility.yul\":3662:3810   */\n    tag_57:\n        /* \"#utility.yul\":3760:3766   */\n      dup3\n        /* \"#utility.yul\":3755:3758   */\n      dup2\n        /* \"#utility.yul\":3750:3753   */\n      dup4\n        /* \"#utility.yul\":3737:3767   */\n      calldatacopy\n        /* \"#utility.yul\":3801:3802   */\n      0x00\n        /* \"#utility.yul\":3792:3798   */\n      dup4\n        /* \"#utility.yul\":3787:3790   */\n      dup4\n        /* \"#utility.yul\":3783:3799   */\n      add\n        /* \"#utility.yul\":3776:3803   */\n      mstore\n        /* \"#utility.yul\":3662:3810   */\n      pop\n      pop\n      pop\n      jump\t// out\n        /* \"#utility.yul\":3816:4241   */\n    tag_58:\n        /* \"#utility.yul\":3894:3899   */\n      0x00\n        /* \"#utility.yul\":3919:3985   */\n      tag_120\n        /* \"#utility.yul\":3935:3984   */\n      tag_121\n        /* \"#utility.yul\":3977:3983   */\n      dup5\n        /* \"#utility.yul\":3935:3984   */\n      tag_56\n      jump\t// in\n    tag_121:\n        /* \"#utility.yul\":3919:3985   */\n      tag_55\n      jump\t// in\n    tag_120:\n        /* \"#utility.yul\":3910:3985   */\n      swap1\n      pop\n        /* \"#utility.yul\":4008:4014   */\n      dup3\n        /* \"#utility.yul\":4001:4006   */\n      dup2\n        /* \"#utility.yul\":3994:4015   */\n      mstore\n        /* \"#utility.yul\":4046:4050   */\n      0x20\n        /* \"#utility.yul\":4039:4044   */\n      dup2\n        /* \"#utility.yul\":4035:4051   */\n      add\n        /* \"#utility.yul\":4084:4087   */\n      dup5\n        /* \"#utility.yul\":4075:4081   */\n      dup5\n        /* \"#utility.yul\":4070:4073   */\n      dup5\n        /* \"#utility.yul\":4066:4082   */\n      add\n        /* \"#utility.yul\":4063:4088   */\n      gt\n        /* \"#utility.yul\":4060:4172   */\n      iszero\n      tag_122\n      jumpi\n        /* \"#utility.yul\":4091:4170   */\n      tag_123\n      tag_52\n      jump\t// in\n    tag_123:\n        /* \"#utility.yul\":4060:4172   */\n    tag_122:\n        /* \"#utility.yul\":4181:4235   */\n      tag_124\n        /* \"#utility.yul\":4228:4234   */\n      dup5\n        /* \"#utility.yul\":4223:4226   */\n      dup3\n        /* \"#utility.yul\":4218:4221   */\n      dup6\n        /* \"#utility.yul\":4181:4235   */\n      tag_57\n      jump\t// in\n    tag_124:\n        /* \"#utility.yul\":3900:4241   */\n      pop\n        /* \"#utility.yul\":3816:4241   */\n      swap4\n      swap3\n      pop\n      pop\n      pop\n      jump\t// out\n        /* \"#utility.yul\":4261:4601   */\n    tag_59:\n        /* \"#utility.yul\":4317:4322   */\n      0x00\n        /* \"#utility.yul\":4366:4369   */\n      dup3\n        /* \"#utility.yul\":4359:4363   */\n      0x1f\n        /* \"#utility.yul\":4351:4357   */\n      dup4\n        /* \"#utility.yul\":4347:4364   */\n      add\n        /* \"#utility.yul\":4343:4370   */\n      slt\n        /* \"#utility.yul\":4333:4455   */\n      tag_126\n      jumpi\n        /* \"#utility.yul\":4374:4453   */\n      tag_127\n      tag_51\n      jump\t// in\n    tag_127:\n        /* \"#utility.yul\":4333:4455   */\n    tag_126:\n        /* \"#utility.yul\":4491:4497   */\n      dup2\n        /* \"#utility.yul\":4478:4498   */\n      calldataload\n        /* \"#utility.yul\":4516:4595   */\n      tag_128\n        /* \"#utility.yul\":4591:4594   */\n      dup5\n        /* \"#utility.yul\":4583:4589   */\n      dup3\n        /* \"#utility.yul\":4576:4580   */\n      0x20\n        /* \"#utility.yul\":4568:4574   */\n      dup7\n        /* \"#utility.yul\":4564:4581   */\n      add\n        /* \"#utility.yul\":4516:4595   */\n      tag_58\n      jump\t// in\n    tag_128:\n        /* \"#utility.yul\":4507:4595   */\n      swap2\n      pop\n        /* \"#utility.yul\":4323:4601   */\n      pop\n        /* \"#utility.yul\":4261:4601   */\n      swap3\n      swap2\n      pop\n      pop\n      jump\t// out\n        /* \"#utility.yul\":4607:5261   */\n    tag_14:\n        /* \"#utility.yul\":4685:4691   */\n      0x00\n        /* \"#utility.yul\":4693:4699   */\n      0x00\n        /* \"#utility.yul\":4742:4744   */\n      0x40\n        /* \"#utility.yul\":4730:4739   */\n      dup4\n        /* \"#utility.yul\":4721:4728   */\n      dup6\n        /* \"#utility.yul\":4717:4740   */\n      sub\n        /* \"#utility.yul\":4713:4745   */\n      slt\n        /* \"#utility.yul\":4710:4829   */\n      iszero\n      tag_130\n      jumpi\n        /* \"#utility.yul\":4748:4827   */\n      tag_131\n      tag_40\n      jump\t// in\n    tag_131:\n        /* \"#utility.yul\":4710:4829   */\n    tag_130:\n        /* \"#utility.yul\":4896:4897   */\n      0x00\n        /* \"#utility.yul\":4885:4894   */\n      dup4\n        /* \"#utility.yul\":4881:4898   */\n      add\n        /* \"#utility.yul\":4868:4899   */\n      calldataload\n        /* \"#utility.yul\":4926:4944   */\n      0xffffffffffffffff\n        /* \"#utility.yul\":4918:4924   */\n      dup2\n        /* \"#utility.yul\":4915:4945   */\n      gt\n        /* \"#utility.yul\":4912:5029   */\n      iszero\n      tag_132\n      jumpi\n        /* \"#utility.yul\":4948:5027   */\n      tag_133\n      tag_41\n      jump\t// in\n    tag_133:\n        /* \"#utility.yul\":4912:5029   */\n    tag_132:\n        /* \"#utility.yul\":5053:5116   */\n      tag_134\n        /* \"#utility.yul\":5108:5115   */\n      dup6\n        /* \"#utility.yul\":5099:5105   */\n      dup3\n        /* \"#utility.yul\":5088:5097   */\n      dup7\n        /* \"#utility.yul\":5084:5106   */\n      add\n        /* \"#utility.yul\":5053:5116   */\n      tag_59\n      jump\t// in\n    tag_134:\n        /* \"#utility.yul\":5043:5116   */\n      swap3\n      pop\n        /* \"#utility.yul\":4839:5126   */\n      pop\n        /* \"#utility.yul\":5165:5167   */\n      0x20\n        /* \"#utility.yul\":5191:5244   */\n      tag_135\n        /* \"#utility.yul\":5236:5243   */\n      dup6\n        /* \"#utility.yul\":5227:5233   */\n      dup3\n        /* \"#utility.yul\":5216:5225   */\n      dup7\n        /* \"#utility.yul\":5212:5234   */\n      add\n        /* \"#utility.yul\":5191:5244   */\n      tag_44\n      jump\t// in\n    tag_135:\n        /* \"#utility.yul\":5181:5244   */\n      swap2\n      pop\n        /* \"#utility.yul\":5136:5254   */\n      pop\n        /* \"#utility.yul\":4607:5261   */\n      swap3\n      pop\n      swap3\n      swap1\n      pop\n      jump\t// out\n        /* \"#utility.yul\":5267:5447   */\n    tag_60:\n        /* \"#utility.yul\":5315:5392   */\n      0x4e487b7100000000000000000000000000000000000000000000000000000000\n        /* \"#utility.yul\":5312:5313   */\n      0x00\n        /* \"#utility.yul\":5305:5393   */\n      mstore\n        /* \"#utility.yul\":5412:5416   */\n      0x22\n        /* \"#utility.yul\":5409:5410   */\n      0x04\n        /* \"#utility.yul\":5402:5417   */\n      mstore\n        /* \"#utility.yul\":5436:5440   */\n      0x24\n        /* \"#utility.yul\":5433:5434   */\n      0x00\n        /* \"#utility.yul\":5426:5441   */\n      revert\n        /* \"#utility.yul\":5453:5773   */\n    tag_23:\n        /* \"#utility.yul\":5497:5503   */\n      0x00\n        /* \"#utility.yul\":5534:5535   */\n      0x02\n        /* \"#utility.yul\":5528:5532   */\n      dup3\n        /* \"#utility.yul\":5524:5536   */\n      div\n        /* \"#utility.yul\":5514:5536   */\n      swap1\n      pop\n        /* \"#utility.yul\":5581:5582   */\n      0x01\n        /* \"#utility.yul\":5575:5579   */\n      dup3\n        /* \"#utility.yul\":5571:5583   */\n      and\n        /* \"#utility.yul\":5602:5620   */\n      dup1\n        /* \"#utility.yul\":5592:5673   */\n      tag_138\n      jumpi\n        /* \"#utility.yul\":5658:5662   */\n      0x7f\n        /* \"#utility.yul\":5650:5656   */\n      dup3\n        /* \"#utility.yul\":5646:5663   */\n      and\n        /* \"#utility.yul\":5636:5663   */\n      swap2\n      pop\n        /* \"#utility.yul\":5592:5673   */\n    tag_138:\n        /* \"#utility.yul\":5720:5722   */\n      0x20\n        /* \"#utility.yul\":5712:5718   */\n      dup3\n        /* \"#utility.yul\":5709:5723   */\n      lt\n        /* \"#utility.yul\":5689:5707   */\n      dup2\n        /* \"#utility.yul\":5686:5724   */\n      sub\n        /* \"#utility.yul\":5683:5767   */\n      tag_139\n      jumpi\n        /* \"#utility.yul\":5739:5757   */\n      tag_140\n      tag_60\n      jump\t// in\n    tag_140:\n        /* \"#utility.yul\":5683:5767   */\n    tag_139:\n        /* \"#utility.yul\":5504:5773   */\n      pop\n        /* \"#utility.yul\":5453:5773   */\n      swap2\n      swap1\n      pop\n      jump\t// out\n        /* \"#utility.yul\":5779:5920   */\n    tag_61:\n        /* \"#utility.yul\":5828:5832   */\n      0x00\n        /* \"#utility.yul\":5851:5854   */\n      dup2\n        /* \"#utility.yul\":5843:5854   */\n      swap1\n      pop\n        /* \"#utility.yul\":5874:5877   */\n      dup2\n        /* \"#utility.yul\":5871:5872   */\n      0x00\n        /* \"#utility.yul\":5864:5878   */\n      mstore\n        /* \"#utility.yul\":5908:5912   */\n      0x20\n        /* \"#utility.yul\":5905:5906   */\n      0x00\n        /* \"#utility.yul\":5895:5913   */\n      keccak256\n        /* \"#utility.yul\":5887:5913   */\n      swap1\n      pop\n        /* \"#utility.yul\":5779:5920   */\n      swap2\n      swap1\n      pop\n      jump\t// out\n        /* \"#utility.yul\":5926:6019   */\n    tag_62:\n        /* \"#utility.yul\":5963:5969   */\n      0x00\n        /* \"#utility.yul\":6010:6012   */\n      0x20\n        /* \"#utility.yul\":6005:6007   */\n      0x1f\n        /* \"#utility.yul\":5998:6003   */\n      dup4\n        /* \"#utility.yul\":5994:6008   */\n      add\n        /* \"#utility.yul\":5990:6013   */\n      div\n        /* \"#utility.yul\":5980:6013   */\n      swap1\n      pop\n        /* \"#utility.yul\":5926:6019   */\n      swap2\n      swap1\n      pop\n      jump\t// out\n        /* \"#utility.yul\":6025:6132   */\n    tag_63:\n        /* \"#utility.yul\":6069:6077   */\n      0x00\n        /* \"#utility.yul\":6119:6124   */\n      dup3\n        /* \"#utility.yul\":6113:6117   */\n      dup3\n        /* \"#utility.yul\":6109:6125   */\n      shl\n        /* \"#utility.yul\":6088:6125   */\n      swap1\n      pop\n        /* \"#utility.yul\":6025:6132   */\n      swap3\n      swap2\n      pop\n      pop\n      jump\t// out\n        /* \"#utility.yul\":6138:6531   */\n    tag_64:\n        /* \"#utility.yul\":6207:6213   */\n      0x00\n        /* \"#utility.yul\":6257:6258   */\n      0x08\n        /* \"#utility.yul\":6245:6255   */\n      dup4\n        /* \"#utility.yul\":6241:6259   */\n      mul\n        /* \"#utility.yul\":6280:6377   */\n      tag_145\n        /* \"#utility.yul\":6310:6376   */\n      0xffffffffffffffffffffffffffffffffffffffffffffffffffffffffffffffff\n        /* \"#utility.yul\":6299:6308   */\n      dup3\n        /* \"#utility.yul\":6280:6377   */\n      tag_63\n      jump\t// in\n    tag_145:\n        /* \"#utility.yul\":6398:6437   */\n      tag_146\n        /* \"#utility.yul\":6428:6436   */\n      dup7\n        /* \"#utility.yul\":6417:6426   */\n      dup4\n        /* \"#utility.yul\":6398:6437   */\n      tag_63\n      jump\t// in\n    tag_146:\n        /* \"#utility.yul\":6386:6437   */\n      swap6\n      pop\n        /* \"#utility.yul\":6470:6474   */\n      dup1\n        /* \"#utility.yul\":6466:6475   */\n      not\n        /* \"#utility.yul\":6459:6464   */\n      dup5\n        /* \"#utility.yul\":6455:6476   */\n      and\n        /* \"#utility.yul\":6446:6476   */\n      swap4\n      pop\n        /* \"#utility.yul\":6519:6523   */\n      dup1\n        /* \"#utility.yul\":6509:6517   */\n      dup7\n        /* \"#utility.yul\":6505:6524   */\n      and\n        /* \"#utility.yul\":6498:6503   */\n      dup5\n        /* \"#utility.yul\":6495:6525   */\n      or\n        /* \"#utility.yul\":6485:6525   */\n      swap3\n      pop\n        /* \"#utility.yul\":6214:6531   */\n      pop\n      pop\n        /* \"#utility.yul\":6138:6531   */\n      swap4\n      swap3\n      pop\n      pop\n      pop\n      jump\t// out\n        /* \"#utility.yul\":6537:6597   */\n    tag_65:\n        /* \"#utility.yul\":6565:6568   */\n      0x00\n        /* \"#utility.yul\":6586:6591   */\n      dup2\n        /* \"#utility.yul\":6579:6591   */\n      swap1\n      pop\n        /* \"#utility.yul\":6537:6597   */\n      swap2\n      swap1\n      pop\n      jump\t// out\n        /* \"#utility.yul\":6603:6745   */\n    tag_66:\n        /* \"#utility.yul\":6653:6662   */\n      0x00\n        /* \"#utility.yul\":6686:6739   */\n      tag_149\n        /* \"#utility.yul\":6704:6738   */\n      tag_150\n        /* \"#utility.yul\":6713:6737   */\n      tag_151\n        /* \"#utility.yul\":6731:6736   */\n      dup5\n        /* \"#utility.yul\":6713:6737   */\n      tag_42\n      jump\t// in\n    tag_151:\n        /* \"#utility.yul\":6704:6738   */\n      tag_65\n      jump\t// in\n    tag_150:\n        /* \"#utility.yul\":6686:6739   */\n      tag_42\n      jump\t// in\n    tag_149:\n        /* \"#utility.yul\":6673:6739   */\n      swap1\n      pop\n        /* \"#utility.yul\":6603:6745   */\n      swap2\n      swap1\n      pop\n      jump\t// out\n        /* \"#utility.yul\":6751:6826   */\n    tag_67:\n        /* \"#utility.yul\":6794:6797   */\n      0x00\n        /* \"#utility.yul\":6815:6820   */\n      dup2\n        /* \"#utility.yul\":6808:6820   */\n      swap1\n      pop\n        /* \"#utility.yul\":6751:6826   */\n      swap2\n      swap1\n      pop\n      jump\t// out\n        /* \"#utility.yul\":6832:7101   */\n    tag_68:\n        /* \"#utility.yul\":6942:6981   */\n      tag_154\n        /* \"#utility.yul\":6973:6980   */\n      dup4\n        /* \"#utility.yul\":6942:6981   */\n      tag_66\n      jump\t// in\n    tag_154:\n        /* \"#utility.yul\":7003:7094   */\n      tag_155\n        /* \"#utility.yul\":7052:7093   */\n      tag_156\n        /* \"#utility.yul\":7076:7092   */\n      dup3\n        /* \"#utility.yul\":7052:7093   */\n      tag_67\n      jump\t// in\n    tag_156:\n        /* \"#utility.yul\":7044:7050   */\n      dup5\n        /* \"#utility.yul\":7037:7041   */\n      dup5\n        /* \"#utility.yul\":7031:7042   */\n      sload\n        /* \"#utility.yul\":7003:7094   */\n      tag_64\n      jump\t// in\n    tag_155:\n        /* \"#utility.yul\":6997:7001   */\n      dup3\n        /* \"#utility.yul\":6990:7095   */\n      sstore\n        /* \"#utility.yul\":6908:7101   */\n      pop\n        /* \"#utility.yul\":6832:7101   */\n      pop\n      pop\n      pop\n      jump\t// out\n        /* \"#utility.yul\":7107:7180   */\n    tag_69:\n        /* \"#utility.yul\":7152:7155   */\n      0x00\n        /* \"#utility.yul\":7173:7174   */\n      0x00\n        /* \"#utility.yul\":7166:7174   */\n      swap1\n      pop\n        /* \"#utility.yul\":7107:7180   */\n      swap1\n      jump\t// out\n        /* \"#utility.yul\":7186:7375   */\n    tag_70:\n        /* \"#utility.yul\":7263:7295   */\n      tag_159\n      tag_69\n      jump\t// in\n    tag_159:\n        /* \"#utility.yul\":7304:7369   */\n      tag_160\n        /* \"#utility.yul\":7362:7368   */\n      dup2\n        /* \"#utility.yul\":7354:7360   */\n      dup5\n        /* \"#utility.yul\":7348:7352   */\n      dup5\n        /* \"#utility.yul\":7304:7369   */\n      tag_68\n      jump\t// in\n    tag_160:\n        /* \"#utility.yul\":7239:7375   */\n      pop\n        /* \"#utility.yul\":7186:7375   */\n      pop\n      pop\n      jump\t// out\n        /* \"#utility.yul\":7381:7595   */\n    tag_71:\n        /* \"#utility.yul\":7466:7467   */\n      0x00\n        /* \"#utility.yul\":7451:7589   */\n    tag_162:\n        /* \"#utility.yul\":7476:7485   */\n      dup3\n        /* \"#utility.yul\":7473:7474   */\n      dup2\n        /* \"#utility.yul\":7470:7486   */\n      lt\n        /* \"#utility.yul\":7451:7589   */\n      iszero\n      tag_164\n      jumpi\n        /* \"#utility.yul\":7528:7579   */\n      tag_165\n        /* \"#utility.yul\":7577:7578   */\n      0x00\n        /* \"#utility.yul\":7573:7574   */\n      dup3\n        /* \"#utility.yul\":7562:7571   */\n      dup5\n        /* \"#utility.yul\":7558:7575   */\n      add\n        /* \"#utility.yul\":7528:7579   */\n      tag_70\n      jump\t// in\n    tag_165:\n        /* \"#utility.yul\":7501:7502   */\n      0x01\n        /* \"#utility.yul\":7498:7499   */\n      dup2\n        /* \"#utility.yul\":7494:7503   */\n      add\n        /* \"#utility.yul\":7489:7503   */\n      swap1\n      pop\n        /* \"#utility.yul\":7451:7589   */\n      jump(tag_162)\n    tag_164:\n        /* \"#utility.yul\":7455:7469   */\n      pop\n        /* \"#utility.yul\":7381:7595   */\n      pop\n      pop\n      jump\t// out\n        /* \"#utility.yul\":7601:8347   */\n    tag_72:\n        /* \"#utility.yul\":7702:7704   */\n      0x1f\n        /* \"#utility.yul\":7697:7700   */\n      dup3\n        /* \"#utility.yul\":7694:7705   */\n      gt\n        /* \"#utility.yul\":7691:8340   */\n      iszero\n      tag_167\n      jumpi\n        /* \"#utility.yul\":7731:7741   */\n      dup3\n        /* \"#utility.yul\":7726:7729   */\n      dup3\n        /* \"#utility.yul\":7723:7742   */\n      gt\n        /* \"#utility.yul\":7720:8330   */\n      iszero\n      tag_168\n      jumpi\n        /* \"#utility.yul\":7777:7815   */\n      tag_169\n        /* \"#utility.yul\":7809:7814   */\n      dup2\n        /* \"#utility.yul\":7777:7815   */\n      tag_61\n      jump\t// in\n    tag_169:\n        /* \"#utility.yul\":7852:7874   */\n      tag_170\n        /* \"#utility.yul\":7870:7873   */\n      dup4\n        /* \"#utility.yul\":7852:7874   */\n      tag_62\n      jump\t// in\n    tag_170:\n        /* \"#utility.yul\":7911:7940   */\n      tag_171\n        /* \"#utility.yul\":7929:7939   */\n      dup6\n        /* \"#utility.yul\":7911:7940   */\n      tag_62\n      jump\t// in\n    tag_171:\n        /* \"#utility.yul\":8101:8103   */\n      0x20\n        /* \"#utility.yul\":8089:8099   */\n      dup7\n        /* \"#utility.yul\":8086:8104   */\n      lt\n        /* \"#utility.yul\":8083:8162   */\n      iszero\n      tag_172\n      jumpi\n        /* \"#utility.yul\":8143:8144   */\n      0x00\n        /* \"#utility.yul\":8127:8144   */\n      swap1\n      pop\n        /* \"#utility.yul\":8083:8162   */\n    tag_172:\n        /* \"#utility.yul\":8212:8224   */\n      dup1\n        /* \"#utility.yul\":8202:8210   */\n      dup4\n        /* \"#utility.yul\":8198:8225   */\n      add\n        /* \"#utility.yul\":8242:8316   */\n      tag_173\n        /* \"#utility.yul\":8302:8314   */\n      dup3\n        /* \"#utility.yul\":8288:8300   */\n      dup5\n        /* \"#utility.yul\":8284:8315   */\n      sub\n        /* \"#utility.yul\":8271:8282   */\n      dup3\n        /* \"#utility.yul\":8242:8316   */\n      tag_71\n      jump\t// in\n    tag_173:\n        /* \"#utility.yul\":7743:8330   */\n      pop\n      pop\n      pop\n      pop\n        /* \"#utility.yul\":7720:8330   */\n    tag_168:\n        /* \"#utility.yul\":7691:8340   */\n    tag_167:\n        /* \"#utility.yul\":7601:8347   */\n      pop\n      pop\n      pop\n      jump\t// out\n        /* \"#utility.yul\":8353:8470   */\n    tag_73:\n        /* \"#utility.yul\":8407:8415   */\n      0x00\n        /* \"#utility.yul\":8457:8462   */\n      dup3\n        /* \"#utility.yul\":8451:8455   */\n      dup3\n        /* \"#utility.yul\":8447:8463   */\n      shr\n        /* \"#utility.yul\":8426:8463   */\n      swap1\n      pop\n        /* \"#utility.yul\":8353:8470   */\n      swap3\n      swap2\n      pop\n      pop\n      jump\t// out\n        /* \"#utility.yul\":8476:8645   */\n    tag_74:\n        /* \"#utility.yul\":8520:8526   */\n      0x00\n        /* \"#utility.yul\":8553:8604   */\n      tag_176\n        /* \"#utility.yul\":8601:8602   */\n      0x00\n        /* \"#utility.yul\":8597:8603   */\n      not\n        /* \"#utility.yul\":8589:8594   */\n      dup5\n        /* \"#utility.yul\":8586:8587   */\n      0x08\n        /* \"#utility.yul\":8582:8595   */\n      mul\n        /* \"#utility.yul\":8553:8604   */\n      tag_73\n      jump\t// in\n    tag_176:\n        /* \"#utility.yul\":8549:8605   */\n      not\n        /* \"#utility.yul\":8634:8638   */\n      dup1\n        /* \"#utility.yul\":8628:8632   */\n      dup4\n        /* \"#utility.yul\":8624:8639   */\n      and\n        /* \"#utility.yul\":8614:8639   */\n      swap2\n      pop\n        /* \"#utility.yul\":8527:8645   */\n      pop\n        /* \"#utility.yul\":8476:8645   */\n      swap3\n      swap2\n      pop\n      pop\n      jump\t// out\n        /* \"#utility.yul\":8650:8945   */\n    tag_75:\n        /* \"#utility.yul\":8726:8730   */\n      0x00\n        /* \"#utility.yul\":8872:8901   */\n      tag_178\n        /* \"#utility.yul\":8897:8900   */\n      dup4\n        /* \"#utility.yul\":8891:8895   */\n      dup4\n        /* \"#utility.yul\":8872:8901   */\n      tag_74\n      jump\t// in\n    tag_178:\n        /* \"#utility.yul\":8864:8901   */\n      swap2\n      pop\n        /* \"#utility.yul\":8934:8937   */\n      dup3\n        /* \"#utility.yul\":8931:8932   */\n      0x02\n        /* \"#utility.yul\":8927:8938   */\n      mul\n        /* \"#utility.yul\":8921:8925   */\n      dup3\n        /* \"#utility.yul\":8918:8939   */\n      or\n        /* \"#utility.yul\":8910:8939   */\n      swap1\n      pop\n        /* \"#utility.yul\":8650:8945   */\n      swap3\n      swap2\n      pop\n      pop\n      jump\t// out\n        /* \"#utility.yul\":8950:10345   */\n    tag_31:\n        /* \"#utility.yul\":9067:9104   */\n      tag_180\n        /* \"#utility.yul\":9100:9103   */\n      dup3\n        /* \"#utility.yul\":9067:9104   */\n      tag_46\n      jump\t// in\n    tag_180:\n        /* \"#utility.yul\":9169:9187   */\n      0xffffffffffffffff\n        /* \"#utility.yul\":9161:9167   */\n      dup2\n        /* \"#utility.yul\":9158:9188   */\n      gt\n        /* \"#utility.yul\":9155:9211   */\n      iszero\n      tag_181\n      jumpi\n        /* \"#utility.yul\":9191:9209   */\n      tag_182\n      tag_53\n      jump\t// in\n    tag_182:\n        /* \"#utility.yul\":9155:9211   */\n    tag_181:\n        /* \"#utility.yul\":9235:9273   */\n      tag_183\n        /* \"#utility.yul\":9267:9271   */\n      dup3\n        /* \"#utility.yul\":9261:9272   */\n      sload\n        /* \"#utility.yul\":9235:9273   */\n      tag_23\n      jump\t// in\n    tag_183:\n        /* \"#utility.yul\":9320:9387   */\n      tag_184\n        /* \"#utility.yul\":9380:9386   */\n      dup3\n        /* \"#utility.yul\":9372:9378   */\n      dup3\n        /* \"#utility.yul\":9366:9370   */\n      dup6\n        /* \"#utility.yul\":9320:9387   */\n      tag_72\n      jump\t// in\n    tag_184:\n        /* \"#utility.yul\":9414:9415   */\n      0x00\n        /* \"#utility.yul\":9438:9442   */\n      0x20\n        /* \"#utility.yul\":9425:9442   */\n      swap1\n      pop\n        /* \"#utility.yul\":9470:9472   */\n      0x1f\n        /* \"#utility.yul\":9462:9468   */\n      dup4\n        /* \"#utility.yul\":9459:9473   */\n      gt\n        /* \"#utility.yul\":9487:9488   */\n      0x01\n        /* \"#utility.yul\":9482:10100   */\n      dup2\n      eq\n      tag_186\n      jumpi\n        /* \"#utility.yul\":10144:10145   */\n      0x00\n        /* \"#utility.yul\":10161:10167   */\n      dup5\n        /* \"#utility.yul\":10158:10235   */\n      iszero\n      tag_187\n      jumpi\n        /* \"#utility.yul\":10210:10219   */\n      dup3\n        /* \"#utility.yul\":10205:10208   */\n      dup8\n        /* \"#utility.yul\":10201:10220   */\n      add\n        /* \"#utility.yul\":10195:10221   */\n      mload\n        /* \"#utility.yul\":10186:10221   */\n      swap1\n      pop\n        /* \"#utility.yul\":10158:10235   */\n    tag_187:\n        /* \"#utility.yul\":10261:10328   */\n      tag_188\n        /* \"#utility.yul\":10321:10327   */\n      dup6\n        /* \"#utility.yul\":10314:10319   */\n      dup3\n        /* \"#utility.yul\":10261:10328   */\n      tag_75\n      jump\t// in\n    tag_188:\n        /* \"#utility.yul\":10255:10259   */\n      dup7\n        /* \"#utility.yul\":10248:10329   */\n      sstore\n        /* \"#utility.yul\":10117:10339   */\n      pop\n        /* \"#utility.yul\":9452:10339   */\n      jump(tag_185)\n        /* \"#utility.yul\":9482:10100   */\n    tag_186:\n        /* \"#utility.yul\":9534:9538   */\n      0x1f\n        /* \"#utility.yul\":9530:9539   */\n      not\n        /* \"#utility.yul\":9522:9528   */\n      dup5\n        /* \"#utility.yul\":9518:9540   */\n      and\n        /* \"#utility.yul\":9568:9605   */\n      tag_189\n        /* \"#utility.yul\":9600:9604   */\n      dup7\n        /* \"#utility.yul\":9568:9605   */\n      tag_61\n      jump\t// in\n    tag_189:\n        /* \"#utility.yul\":9627:9628   */\n      0x00\n        /* \"#utility.yul\":9641:9849   */\n    tag_190:\n        /* \"#utility.yul\":9655:9662   */\n      dup3\n        /* \"#utility.yul\":9652:9653   */\n      dup2\n        /* \"#utility.yul\":9649:9663   */\n      lt\n        /* \"#utility.yul\":9641:9849   */\n      iszero\n      tag_192\n      jumpi\n        /* \"#utility.yul\":9734:9743   */\n      dup5\n        /* \"#utility.yul\":9729:9732   */\n      dup10\n        /* \"#utility.yul\":9725:9744   */\n      add\n        /* \"#utility.yul\":9719:9745   */\n      mload\n        /* \"#utility.yul\":9711:9717   */\n      dup3\n        /* \"#utility.yul\":9704:9746   */\n      sstore\n        /* \"#utility.yul\":9785:9786   */\n      0x01\n        /* \"#utility.yul\":9777:9783   */\n      dup3\n        /* \"#utility.yul\":9773:9787   */\n      add\n        /* \"#utility.yul\":9763:9787   */\n      swap2\n      pop\n        /* \"#utility.yul\":9832:9834   */\n      0x20\n        /* \"#utility.yul\":9821:9830   */\n      dup6\n        /* \"#utility.yul\":9817:9835   */\n      add\n        /* \"#utility.yul\":9804:9835   */\n      swap5\n      pop\n        /* \"#utility.yul\":9678:9682   */\n      0x20\n        /* \"#utility.yul\":9675:9676   */\n      dup2\n        /* \"#utility.yul\":9671:9683   */\n      add\n        /* \"#utility.yul\":9666:9683   */\n      swap1\n      pop\n        /* \"#utility.yul\":9641:9849   */\n      jump(tag_190)\n    tag_192:\n        /* \"#utility.yul\":9877:9883   */\n      dup7\n        /* \"#utility.yul\":9868:9875   */\n      dup4\n        /* \"#utility.yul\":9865:9884   */\n      lt\n        /* \"#utility.yul\":9862:10041   */\n      iszero\n      tag_193\n      jumpi\n        /* \"#utility.yul\":9935:9944   */\n      dup5\n        /* \"#utility.yul\":9930:9933   */\n      dup10\n        /* \"#utility.yul\":9926:9945   */\n      add\n        /* \"#utility.yul\":9920:9946   */\n      mload\n        /* \"#utility.yul\":9978:10026   */\n      tag_194\n        /* \"#utility.yul\":10020:10024   */\n      0x1f\n        /* \"#utility.yul\":10012:10018   */\n      dup10\n        /* \"#utility.yul\":10008:10025   */\n      and\n        /* \"#utility.yul\":9997:10006   */\n      dup3\n        /* \"#utility.yul\":9978:10026   */\n      tag_74\n      jump\t// in\n    tag_194:\n        /* \"#utility.yul\":9970:9976   */\n      dup4\n        /* \"#utility.yul\":9963:10027   */\n      sstore\n        /* \"#utility.yul\":9885:10041   */\n      pop\n        /* \"#utility.yul\":9862:10041   */\n    tag_193:\n        /* \"#utility.yul\":10087:10088   */\n      0x01\n        /* \"#utility.yul\":10083:10084   */\n      0x02\n        /* \"#utility.yul\":10075:10081   */\n      dup9\n        /* \"#utility.yul\":10071:10085   */\n      mul\n        /* \"#utility.yul\":10067:10089   */\n      add\n        /* \"#utility.yul\":10061:10065   */\n      dup9\n        /* \"#utility.yul\":10054:10090   */\n      sstore\n        /* \"#utility.yul\":9489:10100   */\n      pop\n      pop\n      pop\n        /* \"#utility.yul\":9452:10339   */\n    tag_185:\n      pop\n        /* \"#utility.yul\":9042:10345   */\n      pop\n      pop\n      pop\n        /* \"#utility.yul\":8950:10345   */\n      pop\n      pop\n      jump\t// out\n\n    auxdata: 0xa26469706673582212202478a0b840164c227a42dfb9ea2f4acb8f672ca3b23631b368287a4b75cbe1d664736f6c63430008230033\n}\n",
				"bytecode": {
					"linkReferences": {},
					"object": "6080604052348015600e575f5ffd5b506108398061001c5f395ff3fe608060405234801561000f575f5ffd5b506004361061003f575f3560e01c8063510f17c5146100435780635b54633c1461007457806399b4a13714610090575b5f5ffd5b61005d600480360381019061005891906102c8565b6100c1565b60405161006b929190610372565b60405180910390f35b61008e600480360381019061008991906104cc565b610176565b005b6100aa60048036038101906100a591906102c8565b6101d7565b6040516100b8929190610372565b60405180910390f35b600181815481106100d0575f80fd5b905f5260205f2090600202015f91509050805f0154908060010180546100f590610553565b80601f016020809104026020016040519081016040528092919081815260200182805461012190610553565b801561016c5780601f106101435761010080835404028352916020019161016c565b820191905f5260205f20905b81548152906001019060200180831161014f57829003601f168201915b5050505050905082565b6001604051806040016040528083815260200184815250908060018154018082558091505060019003905f5260205f2090600202015f909190919091505f820151815f015560208201518160010190816101d09190610734565b5050505050565b600281600481106101e6575f80fd5b600202015f91509050805f01549080600101805461020390610553565b80601f016020809104026020016040519081016040528092919081815260200182805461022f90610553565b801561027a5780601f106102515761010080835404028352916020019161027a565b820191905f5260205f20905b81548152906001019060200180831161025d57829003601f168201915b5050505050905082565b5f604051905090565b5f5ffd5b5f5ffd5b5f819050919050565b6102a781610295565b81146102b1575f5ffd5b50565b5f813590506102c28161029e565b92915050565b5f602082840312156102dd576102dc61028d565b5b5f6102ea848285016102b4565b91505092915050565b6102fc81610295565b82525050565b5f81519050919050565b5f82825260208201905092915050565b8281835e5f83830152505050565b5f601f19601f8301169050919050565b5f61034482610302565b61034e818561030c565b935061035e81856020860161031c565b6103678161032a565b840191505092915050565b5f6040820190506103855f8301856102f3565b8181036020830152610397818461033a565b90509392505050565b5f5ffd5b5f5ffd5b7f4e487b71000000000000000000000000000000000000000000000000000000005f52604160045260245ffd5b6103de8261032a565b810181811067ffffffffffffffff821117156103fd576103fc6103a8565b5b80604052505050565b5f61040f610284565b905061041b82826103d5565b919050565b5f67ffffffffffffffff82111561043a576104396103a8565b5b6104438261032a565b9050602081019050919050565b828183375f83830152505050565b5f61047061046b84610420565b610406565b90508281526020810184848401111561048c5761048b6103a4565b5b610497848285610450565b509392505050565b5f82601f8301126104b3576104b26103a0565b5b81356104c384826020860161045e565b91505092915050565b5f5f604083850312156104e2576104e161028d565b5b5f83013567ffffffffffffffff8111156104ff576104fe610291565b5b61050b8582860161049f565b925050602061051c858286016102b4565b9150509250929050565b7f4e487b71000000000000000000000000000000000000000000000000000000005f52602260045260245ffd5b5f600282049050600182168061056a57607f821691505b60208210810361057d5761057c610526565b5b50919050565b5f819050815f5260205f209050919050565b5f6020601f8301049050919050565b5f82821b905092915050565b5f600883026105df7fffffffffffffffffffffffffffffffffffffffffffffffffffffffffffffffff826105a4565b6105e986836105a4565b95508019841693508086168417925050509392505050565b5f819050919050565b5f61062461061f61061a84610295565b610601565b610295565b9050919050565b5f819050919050565b61063d8361060a565b6106516106498261062b565b8484546105b0565b825550505050565b5f5f905090565b610668610659565b610673818484610634565b505050565b5f5b828110156106995761068e5f828401610660565b60018101905061067a565b505050565b601f8211156106ec57828211156106eb576106b881610583565b6106c183610595565b6106ca85610595565b60208610156106d7575f90505b8083016106e682840382610678565b505050505b5b505050565b5f82821c905092915050565b5f61070c5f19846008026106f1565b1980831691505092915050565b5f61072483836106fd565b9150826002028217905092915050565b61073d82610302565b67ffffffffffffffff811115610756576107556103a8565b5b6107608254610553565b61076b82828561069e565b5f60209050601f83116001811461079c575f841561078a578287015190505b6107948582610719565b8655506107fb565b601f1984166107aa86610583565b5f5b828110156107d1578489015182556001820191506020850194506020810190506107ac565b868310156107ee57848901516107ea601f8916826106fd565b8355505b6001600288020188555050505b50505050505056fea26469706673582212202478a0b840164c227a42dfb9ea2f4acb8f672ca3b23631b368287a4b75cbe1d664736f6c63430008230033",
					"opcodes": "PUSH1 0x80 PUSH1 0x40 MSTORE CALLVALUE DUP1 ISZERO PUSH1 0xE JUMPI PUSH0 PUSH0 REVERT JUMPDEST POP PUSH2 0x839 DUP1 PUSH2 0x1C PUSH0 CODECOPY PUSH0 RETURN INVALID PUSH1 0x80 PUSH1 0x40 MSTORE CALLVALUE DUP1 ISZERO PUSH2 0xF JUMPI PUSH0 PUSH0 REVERT JUMPDEST POP PUSH1 0x4 CALLDATASIZE LT PUSH2 0x3F JUMPI PUSH0 CALLDATALOAD PUSH1 0xE0 SHR DUP1 PUSH4 0x510F17C5 EQ PUSH2 0x43 JUMPI DUP1 PUSH4 0x5B54633C EQ PUSH2 0x74 JUMPI DUP1 PUSH4 0x99B4A137 EQ PUSH2 0x90 JUMPI JUMPDEST PUSH0 PUSH0 REVERT JUMPDEST PUSH2 0x5D PUSH1 0x4 DUP1 CALLDATASIZE SUB DUP2 ADD SWAP1 PUSH2 0x58 SWAP2 SWAP1 PUSH2 0x2C8 JUMP JUMPDEST PUSH2 0xC1 JUMP JUMPDEST PUSH1 0x40 MLOAD PUSH2 0x6B SWAP3 SWAP2 SWAP1 PUSH2 0x372 JUMP JUMPDEST PUSH1 0x40 MLOAD DUP1 SWAP2 SUB SWAP1 RETURN JUMPDEST PUSH2 0x8E PUSH1 0x4 DUP1 CALLDATASIZE SUB DUP2 ADD SWAP1 PUSH2 0x89 SWAP2 SWAP1 PUSH2 0x4CC JUMP JUMPDEST PUSH2 0x176 JUMP JUMPDEST STOP JUMPDEST PUSH2 0xAA PUSH1 0x4 DUP1 CALLDATASIZE SUB DUP2 ADD SWAP1 PUSH2 0xA5 SWAP2 SWAP1 PUSH2 0x2C8 JUMP JUMPDEST PUSH2 0x1D7 JUMP JUMPDEST PUSH1 0x40 MLOAD PUSH2 0xB8 SWAP3 SWAP2 SWAP1 PUSH2 0x372 JUMP JUMPDEST PUSH1 0x40 MLOAD DUP1 SWAP2 SUB SWAP1 RETURN JUMPDEST PUSH1 0x1 DUP2 DUP2 SLOAD DUP2 LT PUSH2 0xD0 JUMPI PUSH0 DUP1 REVERT JUMPDEST SWAP1 PUSH0 MSTORE PUSH1 0x20 PUSH0 KECCAK256 SWAP1 PUSH1 0x2 MUL ADD PUSH0 SWAP2 POP SWAP1 POP DUP1 PUSH0 ADD SLOAD SWAP1 DUP1 PUSH1 0x1 ADD DUP1 SLOAD PUSH2 0xF5 SWAP1 PUSH2 0x553 JUMP JUMPDEST DUP1 PUSH1 0x1F ADD PUSH1 0x20 DUP1 SWAP2 DIV MUL PUSH1 0x20 ADD PUSH1 0x40 MLOAD SWAP1 DUP2 ADD PUSH1 0x40 MSTORE DUP1 SWAP3 SWAP2 SWAP1 DUP2 DUP2 MSTORE PUSH1 0x20 ADD DUP3 DUP1 SLOAD PUSH2 0x121 SWAP1 PUSH2 0x553 JUMP JUMPDEST DUP1 ISZERO PUSH2 0x16C JUMPI DUP1 PUSH1 0x1F LT PUSH2 0x143 JUMPI PUSH2 0x100 DUP1 DUP4 SLOAD DIV MUL DUP4 MSTORE SWAP2 PUSH1 0x20 ADD SWAP2 PUSH2 0x16C JUMP JUMPDEST DUP3 ADD SWAP2 SWAP1 PUSH0 MSTORE PUSH1 0x20 PUSH0 KECCAK256 SWAP1 JUMPDEST DUP2 SLOAD DUP2 MSTORE SWAP1 PUSH1 0x1 ADD SWAP1 PUSH1 0x20 ADD DUP1 DUP4 GT PUSH2 0x14F JUMPI DUP3 SWAP1 SUB PUSH1 0x1F AND DUP3 ADD SWAP2 JUMPDEST POP POP POP POP POP SWAP1 POP DUP3 JUMP JUMPDEST PUSH1 0x1 PUSH1 0x40 MLOAD DUP1 PUSH1 0x40 ADD PUSH1 0x40 MSTORE DUP1 DUP4 DUP2 MSTORE PUSH1 0x20 ADD DUP5 DUP2 MSTORE POP SWAP1 DUP1 PUSH1 0x1 DUP2 SLOAD ADD DUP1 DUP3 SSTORE DUP1 SWAP2 POP POP PUSH1 0x1 SWAP1 SUB SWAP1 PUSH0 MSTORE PUSH1 0x20 PUSH0 KECCAK256 SWAP1 PUSH1 0x2 MUL ADD PUSH0 SWAP1 SWAP2 SWAP1 SWAP2 SWAP1 SWAP2 POP PUSH0 DUP3 ADD MLOAD DUP2 PUSH0 ADD SSTORE PUSH1 0x20 DUP3 ADD MLOAD DUP2 PUSH1 0x1 ADD SWAP1 DUP2 PUSH2 0x1D0 SWAP2 SWAP1 PUSH2 0x734 JUMP JUMPDEST POP POP POP POP POP JUMP JUMPDEST PUSH1 0x2 DUP2 PUSH1 0x4 DUP2 LT PUSH2 0x1E6 JUMPI PUSH0 DUP1 REVERT JUMPDEST PUSH1 0x2 MUL ADD PUSH0 SWAP2 POP SWAP1 POP DUP1 PUSH0 ADD SLOAD SWAP1 DUP1 PUSH1 0x1 ADD DUP1 SLOAD PUSH2 0x203 SWAP1 PUSH2 0x553 JUMP JUMPDEST DUP1 PUSH1 0x1F ADD PUSH1 0x20 DUP1 SWAP2 DIV MUL PUSH1 0x20 ADD PUSH1 0x40 MLOAD SWAP1 DUP2 ADD PUSH1 0x40 MSTORE DUP1 SWAP3 SWAP2 SWAP1 DUP2 DUP2 MSTORE PUSH1 0x20 ADD DUP3 DUP1 SLOAD PUSH2 0x22F SWAP1 PUSH2 0x553 JUMP JUMPDEST DUP1 ISZERO PUSH2 0x27A JUMPI DUP1 PUSH1 0x1F LT PUSH2 0x251 JUMPI PUSH2 0x100 DUP1 DUP4 SLOAD DIV MUL DUP4 MSTORE SWAP2 PUSH1 0x20 ADD SWAP2 PUSH2 0x27A JUMP JUMPDEST DUP3 ADD SWAP2 SWAP1 PUSH0 MSTORE PUSH1 0x20 PUSH0 KECCAK256 SWAP1 JUMPDEST DUP2 SLOAD DUP2 MSTORE SWAP1 PUSH1 0x1 ADD SWAP1 PUSH1 0x20 ADD DUP1 DUP4 GT PUSH2 0x25D JUMPI DUP3 SWAP1 SUB PUSH1 0x1F AND DUP3 ADD SWAP2 JUMPDEST POP POP POP POP POP SWAP1 POP DUP3 JUMP JUMPDEST PUSH0 PUSH1 0x40 MLOAD SWAP1 POP SWAP1 JUMP JUMPDEST PUSH0 PUSH0 REVERT JUMPDEST PUSH0 PUSH0 REVERT JUMPDEST PUSH0 DUP2 SWAP1 POP SWAP2 SWAP1 POP JUMP JUMPDEST PUSH2 0x2A7 DUP2 PUSH2 0x295 JUMP JUMPDEST DUP2 EQ PUSH2 0x2B1 JUMPI PUSH0 PUSH0 REVERT JUMPDEST POP JUMP JUMPDEST PUSH0 DUP2 CALLDATALOAD SWAP1 POP PUSH2 0x2C2 DUP2 PUSH2 0x29E JUMP JUMPDEST SWAP3 SWAP2 POP POP JUMP JUMPDEST PUSH0 PUSH1 0x20 DUP3 DUP5 SUB SLT ISZERO PUSH2 0x2DD JUMPI PUSH2 0x2DC PUSH2 0x28D JUMP JUMPDEST JUMPDEST PUSH0 PUSH2 0x2EA DUP5 DUP3 DUP6 ADD PUSH2 0x2B4 JUMP JUMPDEST SWAP2 POP POP SWAP3 SWAP2 POP POP JUMP JUMPDEST PUSH2 0x2FC DUP2 PUSH2 0x295 JUMP JUMPDEST DUP3 MSTORE POP POP JUMP JUMPDEST PUSH0 DUP2 MLOAD SWAP1 POP SWAP2 SWAP1 POP JUMP JUMPDEST PUSH0 DUP3 DUP3 MSTORE PUSH1 0x20 DUP3 ADD SWAP1 POP SWAP3 SWAP2 POP POP JUMP JUMPDEST DUP3 DUP2 DUP4 MCOPY PUSH0 DUP4 DUP4 ADD MSTORE POP POP POP JUMP JUMPDEST PUSH0 PUSH1 0x1F NOT PUSH1 0x1F DUP4 ADD AND SWAP1 POP SWAP2 SWAP1 POP JUMP JUMPDEST PUSH0 PUSH2 0x344 DUP3 PUSH2 0x302 JUMP JUMPDEST PUSH2 0x34E DUP2 DUP6 PUSH2 0x30C JUMP JUMPDEST SWAP4 POP PUSH2 0x35E DUP2 DUP6 PUSH1 0x20 DUP7 ADD PUSH2 0x31C JUMP JUMPDEST PUSH2 0x367 DUP2 PUSH2 0x32A JUMP JUMPDEST DUP5 ADD SWAP2 POP POP SWAP3 SWAP2 POP POP JUMP JUMPDEST PUSH0 PUSH1 0x40 DUP3 ADD SWAP1 POP PUSH2 0x385 PUSH0 DUP4 ADD DUP6 PUSH2 0x2F3 JUMP JUMPDEST DUP2 DUP2 SUB PUSH1 0x20 DUP4 ADD MSTORE PUSH2 0x397 DUP2 DUP5 PUSH2 0x33A JUMP JUMPDEST SWAP1 POP SWAP4 SWAP3 POP POP POP JUMP JUMPDEST PUSH0 PUSH0 REVERT JUMPDEST PUSH0 PUSH0 REVERT JUMPDEST PUSH32 0x4E487B7100000000000000000000000000000000000000000000000000000000 PUSH0 MSTORE PUSH1 0x41 PUSH1 0x4 MSTORE PUSH1 0x24 PUSH0 REVERT JUMPDEST PUSH2 0x3DE DUP3 PUSH2 0x32A JUMP JUMPDEST DUP2 ADD DUP2 DUP2 LT PUSH8 0xFFFFFFFFFFFFFFFF DUP3 GT OR ISZERO PUSH2 0x3FD JUMPI PUSH2 0x3FC PUSH2 0x3A8 JUMP JUMPDEST JUMPDEST DUP1 PUSH1 0x40 MSTORE POP POP POP JUMP JUMPDEST PUSH0 PUSH2 0x40F PUSH2 0x284 JUMP JUMPDEST SWAP1 POP PUSH2 0x41B DUP3 DUP3 PUSH2 0x3D5 JUMP JUMPDEST SWAP2 SWAP1 POP JUMP JUMPDEST PUSH0 PUSH8 0xFFFFFFFFFFFFFFFF DUP3 GT ISZERO PUSH2 0x43A JUMPI PUSH2 0x439 PUSH2 0x3A8 JUMP JUMPDEST JUMPDEST PUSH2 0x443 DUP3 PUSH2 0x32A JUMP JUMPDEST SWAP1 POP PUSH1 0x20 DUP2 ADD SWAP1 POP SWAP2 SWAP1 POP JUMP JUMPDEST DUP3 DUP2 DUP4 CALLDATACOPY PUSH0 DUP4 DUP4 ADD MSTORE POP POP POP JUMP JUMPDEST PUSH0 PUSH2 0x470 PUSH2 0x46B DUP5 PUSH2 0x420 JUMP JUMPDEST PUSH2 0x406 JUMP JUMPDEST SWAP1 POP DUP3 DUP2 MSTORE PUSH1 0x20 DUP2 ADD DUP5 DUP5 DUP5 ADD GT ISZERO PUSH2 0x48C JUMPI PUSH2 0x48B PUSH2 0x3A4 JUMP JUMPDEST JUMPDEST PUSH2 0x497 DUP5 DUP3 DUP6 PUSH2 0x450 JUMP JUMPDEST POP SWAP4 SWAP3 POP POP POP JUMP JUMPDEST PUSH0 DUP3 PUSH1 0x1F DUP4 ADD SLT PUSH2 0x4B3 JUMPI PUSH2 0x4B2 PUSH2 0x3A0 JUMP JUMPDEST JUMPDEST DUP2 CALLDATALOAD PUSH2 0x4C3 DUP5 DUP3 PUSH1 0x20 DUP7 ADD PUSH2 0x45E JUMP JUMPDEST SWAP2 POP POP SWAP3 SWAP2 POP POP JUMP JUMPDEST PUSH0 PUSH0 PUSH1 0x40 DUP4 DUP6 SUB SLT ISZERO PUSH2 0x4E2 JUMPI PUSH2 0x4E1 PUSH2 0x28D JUMP JUMPDEST JUMPDEST PUSH0 DUP4 ADD CALLDATALOAD PUSH8 0xFFFFFFFFFFFFFFFF DUP2 GT ISZERO PUSH2 0x4FF JUMPI PUSH2 0x4FE PUSH2 0x291 JUMP JUMPDEST JUMPDEST PUSH2 0x50B DUP6 DUP3 DUP7 ADD PUSH2 0x49F JUMP JUMPDEST SWAP3 POP POP PUSH1 0x20 PUSH2 0x51C DUP6 DUP3 DUP7 ADD PUSH2 0x2B4 JUMP JUMPDEST SWAP2 POP POP SWAP3 POP SWAP3 SWAP1 POP JUMP JUMPDEST PUSH32 0x4E487B7100000000000000000000000000000000000000000000000000000000 PUSH0 MSTORE PUSH1 0x22 PUSH1 0x4 MSTORE PUSH1 0x24 PUSH0 REVERT JUMPDEST PUSH0 PUSH1 0x2 DUP3 DIV SWAP1 POP PUSH1 0x1 DUP3 AND DUP1 PUSH2 0x56A JUMPI PUSH1 0x7F DUP3 AND SWAP2 POP JUMPDEST PUSH1 0x20 DUP3 LT DUP2 SUB PUSH2 0x57D JUMPI PUSH2 0x57C PUSH2 0x526 JUMP JUMPDEST JUMPDEST POP SWAP2 SWAP1 POP JUMP JUMPDEST PUSH0 DUP2 SWAP1 POP DUP2 PUSH0 MSTORE PUSH1 0x20 PUSH0 KECCAK256 SWAP1 POP SWAP2 SWAP1 POP JUMP JUMPDEST PUSH0 PUSH1 0x20 PUSH1 0x1F DUP4 ADD DIV SWAP1 POP SWAP2 SWAP1 POP JUMP JUMPDEST PUSH0 DUP3 DUP3 SHL SWAP1 POP SWAP3 SWAP2 POP POP JUMP JUMPDEST PUSH0 PUSH1 0x8 DUP4 MUL PUSH2 0x5DF PUSH32 0xFFFFFFFFFFFFFFFFFFFFFFFFFFFFFFFFFFFFFFFFFFFFFFFFFFFFFFFFFFFFFFFF DUP3 PUSH2 0x5A4 JUMP JUMPDEST PUSH2 0x5E9 DUP7 DUP4 PUSH2 0x5A4 JUMP JUMPDEST SWAP6 POP DUP1 NOT DUP5 AND SWAP4 POP DUP1 DUP7 AND DUP5 OR SWAP3 POP POP POP SWAP4 SWAP3 POP POP POP JUMP JUMPDEST PUSH0 DUP2 SWAP1 POP SWAP2 SWAP1 POP JUMP JUMPDEST PUSH0 PUSH2 0x624 PUSH2 0x61F PUSH2 0x61A DUP5 PUSH2 0x295 JUMP JUMPDEST PUSH2 0x601 JUMP JUMPDEST PUSH2 0x295 JUMP JUMPDEST SWAP1 POP SWAP2 SWAP1 POP JUMP JUMPDEST PUSH0 DUP2 SWAP1 POP SWAP2 SWAP1 POP JUMP JUMPDEST PUSH2 0x63D DUP4 PUSH2 0x60A JUMP JUMPDEST PUSH2 0x651 PUSH2 0x649 DUP3 PUSH2 0x62B JUMP JUMPDEST DUP5 DUP5 SLOAD PUSH2 0x5B0 JUMP JUMPDEST DUP3 SSTORE POP POP POP POP JUMP JUMPDEST PUSH0 PUSH0 SWAP1 POP SWAP1 JUMP JUMPDEST PUSH2 0x668 PUSH2 0x659 JUMP JUMPDEST PUSH2 0x673 DUP2 DUP5 DUP5 PUSH2 0x634 JUMP JUMPDEST POP POP POP JUMP JUMPDEST PUSH0 JUMPDEST DUP3 DUP2 LT ISZERO PUSH2 0x699 JUMPI PUSH2 0x68E PUSH0 DUP3 DUP5 ADD PUSH2 0x660 JUMP JUMPDEST PUSH1 0x1 DUP2 ADD SWAP1 POP PUSH2 0x67A JUMP JUMPDEST POP POP POP JUMP JUMPDEST PUSH1 0x1F DUP3 GT ISZERO PUSH2 0x6EC JUMPI DUP3 DUP3 GT ISZERO PUSH2 0x6EB JUMPI PUSH2 0x6B8 DUP2 PUSH2 0x583 JUMP JUMPDEST PUSH2 0x6C1 DUP4 PUSH2 0x595 JUMP JUMPDEST PUSH2 0x6CA DUP6 PUSH2 0x595 JUMP JUMPDEST PUSH1 0x20 DUP7 LT ISZERO PUSH2 0x6D7 JUMPI PUSH0 SWAP1 POP JUMPDEST DUP1 DUP4 ADD PUSH2 0x6E6 DUP3 DUP5 SUB DUP3 PUSH2 0x678 JUMP JUMPDEST POP POP POP POP JUMPDEST JUMPDEST POP POP POP JUMP JUMPDEST PUSH0 DUP3 DUP3 SHR SWAP1 POP SWAP3 SWAP2 POP POP JUMP JUMPDEST PUSH0 PUSH2 0x70C PUSH0 NOT DUP5 PUSH1 0x8 MUL PUSH2 0x6F1 JUMP JUMPDEST NOT DUP1 DUP4 AND SWAP2 POP POP SWAP3 SWAP2 POP POP JUMP JUMPDEST PUSH0 PUSH2 0x724 DUP4 DUP4 PUSH2 0x6FD JUMP JUMPDEST SWAP2 POP DUP3 PUSH1 0x2 MUL DUP3 OR SWAP1 POP SWAP3 SWAP2 POP POP JUMP JUMPDEST PUSH2 0x73D DUP3 PUSH2 0x302 JUMP JUMPDEST PUSH8 0xFFFFFFFFFFFFFFFF DUP2 GT ISZERO PUSH2 0x756 JUMPI PUSH2 0x755 PUSH2 0x3A8 JUMP JUMPDEST JUMPDEST PUSH2 0x760 DUP3 SLOAD PUSH2 0x553 JUMP JUMPDEST PUSH2 0x76B DUP3 DUP3 DUP6 PUSH2 0x69E JUMP JUMPDEST PUSH0 PUSH1 0x20 SWAP1 POP PUSH1 0x1F DUP4 GT PUSH1 0x1 DUP2 EQ PUSH2 0x79C JUMPI PUSH0 DUP5 ISZERO PUSH2 0x78A JUMPI DUP3 DUP8 ADD MLOAD SWAP1 POP JUMPDEST PUSH2 0x794 DUP6 DUP3 PUSH2 0x719 JUMP JUMPDEST DUP7 SSTORE POP PUSH2 0x7FB JUMP JUMPDEST PUSH1 0x1F NOT DUP5 AND PUSH2 0x7AA DUP7 PUSH2 0x583 JUMP JUMPDEST PUSH0 JUMPDEST DUP3 DUP2 LT ISZERO PUSH2 0x7D1 JUMPI DUP5 DUP10 ADD MLOAD DUP3 SSTORE PUSH1 0x1 DUP3 ADD SWAP2 POP PUSH1 0x20 DUP6 ADD SWAP5 POP PUSH1 0x20 DUP2 ADD SWAP1 POP PUSH2 0x7AC JUMP JUMPDEST DUP7 DUP4 LT ISZERO PUSH2 0x7EE JUMPI DUP5 DUP10 ADD MLOAD PUSH2 0x7EA PUSH1 0x1F DUP10 AND DUP3 PUSH2 0x6FD JUMP JUMPDEST DUP4 SSTORE POP JUMPDEST PUSH1 0x1 PUSH1 0x2 DUP9 MUL ADD DUP9 SSTORE POP POP POP JUMPDEST POP POP POP POP POP POP JUMP INVALID LOG2 PUSH5 0x6970667358 0x22 SLT KECCAK256 0x24 PUSH25 0xA0B840164C227A42DFB9EA2F4ACB8F672CA3B23631B368287A 0x4B PUSH22 0xCBE1D664736F6C634300082300330000000000000000 "
				},
				"gasEstimates": {
					"creation": {
						"codeDepositCost": "421000",
						"executionCost": "453",
						"totalCost": "421453"
					},
					"external": {
						"addPersons(string,uint256)": "infinite",
						"listOfFavoritePersons(uint256)": "infinite",
						"listOfPersons(uint256)": "infinite"
					}
				},
				"methodIdentifiers": {
					"addPersons(string,uint256)": "5b54633c",
					"listOfFavoritePersons(uint256)": "99b4a137",
					"listOfPersons(uint256)": "510f17c5"
				}
			},
			"storageLayout": {
				"storage": [
					{
						"astId": 3,
						"contract": "functions/Arrays.sol:SimpleStorage1",
						"label": "myfavoriteNumber",
						"offset": 0,
						"slot": "0",
						"type": "t_uint256"
					},
					{
						"astId": 12,
						"contract": "functions/Arrays.sol:SimpleStorage1",
						"label": "listOfPersons",
						"offset": 0,
						"slot": "1",
						"type": "t_array(t_struct(Person)8_storage)dyn_storage"
					},
					{
						"astId": 17,
						"contract": "functions/Arrays.sol:SimpleStorage1",
						"label": "listOfFavoritePersons",
						"offset": 0,
						"slot": "2",
						"type": "t_array(t_struct(Person)8_storage)4_storage"
					}
				],
				"types": {
					"t_array(t_struct(Person)8_storage)4_storage": {
						"base": "t_struct(Person)8_storage",
						"encoding": "inplace",
						"label": "struct SimpleStorage1.Person[4]",
						"numberOfBytes": "256"
					},
					"t_array(t_struct(Person)8_storage)dyn_storage": {
						"base": "t_struct(Person)8_storage",
						"encoding": "dynamic_array",
						"label": "struct SimpleStorage1.Person[]",
						"numberOfBytes": "32"
					},
					"t_string_storage": {
						"encoding": "bytes",
						"label": "string",
						"numberOfBytes": "32"
					},
					"t_struct(Person)8_storage": {
						"encoding": "inplace",
						"label": "struct SimpleStorage1.Person",
						"members": [
							{
								"astId": 5,
								"contract": "functions/Arrays.sol:SimpleStorage1",
								"label": "favoriteNumber",
								"offset": 0,
								"slot": "0",
								"type": "t_uint256"
							},
							{
								"astId": 7,
								"contract": "functions/Arrays.sol:SimpleStorage1",
								"label": "name",
								"offset": 0,
								"slot": "1",
								"type": "t_string_storage"
							}
						],
						"numberOfBytes": "64"
					},
					"t_uint256": {
						"encoding": "inplace",
						"label": "uint256",
						"numberOfBytes": "32"
					}
				}
			},
			"userdoc": {
				"kind": "user",
				"methods": {},
				"version": 1
			}
		}
	}
}